:020000040800F2
:10000000B01000200D0200088935000819320008E0
:100010008135000869040008414A0008000000001A
:1000200000000000000000000000000099350008FA
:10003000710400080000000091350008A135000897
:1000400027020008270200082702000827020008EC
:1000500027020008270200082702000827020008DC
:1000600027020008270200082702000827020008CC
:1000700027020008270200082702000827020008BC
:1000800027020008270200082702000827020008AC
:10009000270200082702000827020008270200089C
:1000A00091360008B1360008A13600082702000882
:1000B000270200082702000827020008270200087C
:1000C000270200082702000827020008270200086C
:1000D000270200082702000827020008270200085C
:1000E000270200082702000827020008270200084C
:1000F000270200082702000827020008270200083C
:10010000270200082702000827020008270200082B
:10011000270200082702000827020008270200081B
:10012000270200082702000827020008270200080B
:1001300027020008270200082702000827020008FB
:1001400027020008270200082702000827020008EB
:1001500027020008270200082702000827020008DB
:1001600027020008270200082702000827020008CB
:1001700027020008270200082702000800000000EC
:1001800027020008270200082702000827020008AB
:10019000270200082702000827020008270200089B
:1001A000270200082702000827020008270200088B
:1001B000270200082702000827020008270200087B
:1001C000270200082702000800000000270200089C
:1001D000270200082702000827020008270200085B
:1001E000270200082702000827020008270200084B
:1001F0002702000827020008DFF80CD000F0BEF844
:1002000000480047494A0008B010002006488047CF
:1002100006480047FEE7FEE7FEE7FEE7FEE7FEE7EB
:10022000FEE7FEE7FEE7FEE779360008F901000881
:100230002DE9F05F0546002092469B46884606461B
:10024000814640241BE0284641464746224600F0AE
:1002500041F853465A46C01A914110D311461846E8
:10026000224600F028F82D1A67EB01084F46224677
:100270000120002100F01FF817EB00094E41201E5D
:10028000A4F10104DFDC484631462A464346BDE876
:10029000F09FD2B201E000F8012B491EFBD270475B
:1002A0000022F6E710B513460A4604461946FFF742
:1002B000F0FF204610BD202A04DB203A00FA02F1AC
:1002C000002070479140C2F1200320FA03F3194344
:1002D00090407047202A04DB203A21FA02F00021E6
:1002E000704721FA02F3D040C2F120029140084346
:1002F000194670472DE9FE4FC3F30A5701F0004538
:100300000024C1F30A56C3F31303C1F3130143F4EA
:10031000801312EB020AA64641F48011009543EBCC
:10032000030CA7F1010B16E0B0EB0A0061EB0C0126
:10033000071E71F1000707DA4FF00008D0EB080044
:1003400085F0004568EB0101171A73EB0107EBD349
:10035000761E001849415E45F6DA50EA010209D0DE
:10036000CDE900E500221346029600F02EF803B016
:10037000BDE8F08F20460099F9E700001CB5094858
:100380000090094801900546009C06E0E06840F0B6
:10039000010394E8070098471034AC42F6D3FFF706
:1003A0002FFF0000105C0008305C000810B5141E20
:1003B00073F1000408DA401C41F1000192185B411E
:1003C0001A4301D120F0010010BD2DE9F04D9246F5
:1003D0009B4611B1B1FA81F202E0B0FA80F220320C
:1003E0009046FFF768FF04460F4640EA0A0041EADC
:1003F0000B0153465A46084313D0114653EA0100F5
:1004000019D0C8F140025046FFF764FF05460E467A
:10041000504659464246FFF74EFF084305D001209B
:1004200004E020463946BDE8F08D0020054346EA49
:10043000E0762C4337430A986305E40AA0EB0800F2
:100440000022FD0A44EA47540A3002D50020014642
:10045000E9E7010510196941DDE90845001969411D
:10046000BDE8F04DA2E70000FEE70000000000003C
:100470007047000000000000EFF3108072B600BF6C
:10048000FEE7000000000000B0B584B040F2F805BF
:100490000020C2F20005ADF80E0002200DF10E01A1
:1004A000CDE9001005F110006C210C22012332244B
:1004B000029400F075FBBDF80E009FED081AC0BA5B
:1004C00000EE100AB8EEC00A20EE010A9FED041AF1
:1004D00020EE010A85ED020A04B0B0BDDB0FC94071
:1004E0000000803900000000B0B581B00022009209
:1004F00090F83C20012A03D10221084601B0B0BD8A
:10050000D1F800E001221FFA8EFC80F83C204FEA6F
:100510004C02BEF10A0F12FA8EF319D3BEF1004F4E
:1005200016D002681E3B07249C40D56825EA0404C7
:100530001225C1F20005D460AE458D68D46821D182
:1005400044EA0563D3604968062911D921E000BF58
:10055000026807249C40156925EA040414618C682C
:1005600004FA03F31469234313614968062910D878
:1005700001EB81011F23053903FA01F4134653F8F7
:10058000345F1AE005FA03F32343D3604968062970
:10059000EED90C2901EB810108D823391F2303FA76
:1005A00001F4134653F8305F07E000BF41391F23C1
:1005B00003FA01F4134653F82C5F0CFA01F142F2EE
:1005C000043CC4F2010C25EA04041C60ACF541743F
:1005D0001D68A24241EA0501196058D1BEF1004FE1
:1005E00006D1DCF8001021F44001CCF800104EE0F8
:1005F000BEF1110F12D01221C1F200018E450DD0B3
:10060000BEF1120F43D1DCF8001021F40001CCF848
:100610000010DCF8001041F48001E6E7DCF800107F
:1006200021F48001CCF800101221C1F200018E45A6
:10063000DCF8001041F40001CCF8001027D140F2A2
:1006400070014DF68362C2F20001C4F21B320968E8
:10065000A1FB0212910C01EB8101490002E000BFF5
:10066000009901390091009989B1009901390091EF
:10067000009961B1009901390091009900291FBFCB
:10068000009901390091009918BF0029E8D1002193
:1006900080F83C10084601B0B0BD0000000000002A
:1006A000002843D010B50446006C002840D0206CD0
:1006B000C00647D4206C41F20211884342F2043153
:1006C000C4F2010102302064086820F44030086060
:1006D0000A68D4F810E094E809101A430A604168E7
:1006E000012321F4807141604168C0F6007341EA42
:1006F0000E214160416821F040714160416841EA4A
:100700000C014160816821F400618160E1688268C8
:1007100011438160A16A826822F07062826099420E
:10072000826815D122F040511BE000BF01207047C4
:10073000204600F065F80020606484F83C00206CDE
:10074000C006B7D50120002184F83C1010BD00BFC1
:1007500011438160816821F040518160E16A8268C3
:1007600011438160816821F002018160A169826882
:1007700042EA4101816094F820100029416811D0BB
:1007800041F40061416041684EF2000221F4604191
:100790004160616ACFF6FF7202EB4131426811435A
:1007A00002E000BF21F4006141600023C16ACFF67E
:1007B000F07321F47001C162E169626903EB0151D8
:1007C000C36A1943C162816821F40071816094F8A1
:1007D0003010836843EA41218160816821F480619F
:1007E0008160816841EA8221816000206064216C1F
:1007F000012262F301012164002184F83C1010BD44
:1008000080B586B042F200010068C4F20101002206
:1008100088420592049201D006B080BD43F63000B4
:10082000C4F20200436943F480734361436903F4F3
:1008300080730093009B036843F00103036000682A
:1008400000F0010000900098382001900320CDE9CD
:10085000020201F5604001A900F016F806B080BD63
:10086000B0B5044600F0F0F840F204010546C2F2CB
:100870000001621C097818BF0C4400BF00F0E4F8C6
:10088000401BA042FAD3B0BD2DE9F04F82B000F179
:100890003E4342F2004603F1FF738705C4F20206AD
:1008A0000A22B04247EA932708BF0922092F4FF0D6
:1008B000000E38BF3A46012400270026009206E0C9
:1008C00001360237102E0EF1040E00F0AF8004FA4C
:1008D00006FB0D6815EA0B08F2D0D1F804A003223C
:1008E0000AF0030CBA40ACF101056FEA0209012DD0
:1008F00010D88268CD6802EA0902BD402A438260AE
:10090000CAF30015426822EA0B02B5402A4342604E
:1009100006E000BFBCF1030F02D14FF0030C22E050
:10092000C2688D6802EA0902BD40BCF1020F42EACA
:100930000502C26017D16FF003020EF01C0302EA39
:1009400056020F25024405FA03FAD2F820C00D69B9
:100950002CEA0A0C05FA03F343EA0C031362D1F8FC
:1009600004A00AF0030C02680CFA07F302EA090279
:100970001AF4403F42EA03020260A1D043F6440366
:1009800043F60049C4F20203C4F201094FF6084AD3
:100990000F241A68CFF6FF7A42F480421A601A6870
:1009A00026F0030302F48042019209EB0302019B4B
:1009B0000EF00C0352F80AC004FA03F5009C2CEA6E
:1009C000050504FA03F32B4342F80A30D9F808C0AE
:1009D0004B684CEA0805DA0258BF2CEA080543F6D2
:1009E0000C4C9C02C4F2010CC9F80850DCF8002041
:1009F00042EA080558BF22EA08059C034FF00104AB
:100A0000CCF80050D9F8042042EA080558BF22EA81
:100A10000805DB03C9F80450D9F8002042EA0805AC
:100A200058BF22EA0805C9F8005049E702B0BDE8FE
:100A3000F08F000000000000002A08BF0904816157
:100A4000704700000000000040F6AC00C2F2000059
:100A5000006870470000000090F84120202A03D170
:100A600090F84020012A01D102207047242280F80A
:100A700041200268136823F001031360136823F414
:100A800080531360136819431160116841F001012C
:100A90001160202180F84110002180F840100846A4
:100AA000704700000000000090F84120202A03D188
:100AB00090F84020012A01D102207047242280F8BA
:100AC00041200268136823F001031360136823F4C4
:100AD000706343EA01211160116841F00101116066
:100AE000202180F84110002180F84010084670470E
:100AF00010B310B5044690F8410028B9002084F8DE
:100B00004000204600F06CF9242084F8410094E86D
:100B10000910E2680168012A21F00101016023F057
:100B200070610161816821F40041816006D14CF45B
:100B3000004181600CE000BF01207047022A4CF4A4
:100B40000441816004D1416841F4006103E000BFC9
:100B5000416821F40061416004F1100C416841F0EA
:100B6000007141F400414160C16821F40041C1605D
:100B70009CE80E10114341EA0321C160216A41EA59
:100B80000C010160016841F0010101600020606416
:100B9000202184F84110206384F8420010BD000039
:100BA0002DE9F04F81B0044690F8410020280DD186
:100BB000DDF82880B8F1000F0CD0DDF82CA0BAF1D8
:100BC000000F07D094F8400001280BD1022001B09B
:100BD000BDE8F08F4FF400706064012001B0BDE803
:100BE000F08F00BF1D4617468946012084F840005B
:100BF000FFF72AFF216806468A69120447D422209B
:100C000084F84100402084F84200E8B24FF0000B25
:100C10006FF39F29C4F844B0C4F8248049EA004027
:100C2000A4F82AA049F6000AC4F834B0CFF6004A66
:100C30004A68DDF8308002EA0A021044324600F5C4
:100C4000005048602046414602F04EFCA8B9012DF4
:100C5000206808D0390A816220464146324602F0B7
:100C600043FC50B92068F9B281624021002220463D
:100C70004346009602F084FB50B384F840B0012054
:100C800001B0BDE8F08F00BF88690004B7D5192115
:100C90002046324602F0C4FA00289ED1FFF7D4FE67
:100CA000801B21681A28EFD388690004ECD5606C9A
:100CB00040F020006064202084F84100002084F887
:100CC000420084F84000012001B0BDE8F08F00BF71
:100CD000608D40F2000BC0F2011BB0F5807F09D39C
:100CE00020680BF5105350F8041F01EA0A02012195
:100CF0000DE000BF618D2068CAB250F8043F03EADE
:100D00000A0343EA024242F20043C0F200231A43BC
:100D100001270AF5806542EA09020260218510E098
:100D2000618D20682185C9B250F8042F2A4042EA1B
:100D300001414FF00072114341EA09010160608DE9
:100D400080B30421002220464346009602F018FB9F
:100D500000287FF442AF2068616A406A0870218DE4
:100D6000606A01306062481E2085618D01396185AD
:100D7000618D0029E3D00004E1D1802100222046CA
:100D80004346009602F0FCFA00287FF426AF608DFF
:100D9000B0F5807FC4D3206827855A4650F8041FD9
:100DA0002940C8E720464146324602F05DFB002854
:100DB0007FF413AF206820214EF60003C161CFF607
:100DC000006342681A40426084F84110002084F8B1
:100DD000420084F8400001B0BDE8F08F0000000040
:100DE000B0B5AAB0044601A845F2004504308C21F4
:100DF000C4F20005FFF754FA2068A84202D02AB0D6
:100E0000B0BD00BF4FF48040019001A800F0ECFAA3
:100E100008B1FFF731FB43F6300425A9C4F2020400
:100E2000206840F002002060206800F00200259059
:100E300025984FF44070259012202690002027908E
:100E4000032028900420299005F5D830FFF71CFDD9
:100E5000206940F400102061206900F40010009027
:100E600000982AB0B0BD000040F2040040F6AC018A
:100E7000C2F20000C2F2000100780A681044086063
:100E8000704700000000000080B5032000F088F8E3
:100E90000F2000F005F800F027F8002080BD0000CA
:100EA00070B540F2040640F27001C2F20006C2F2D0
:100EB00000014FF47A73044632780968B3FBF2F20A
:100EC000B1FBF2F1084601F067F90F2C4FF0010574
:100ED00008D838B94FF0FF3000222146002500F035
:100EE0002FF87460284670BD82B043F64000C4F20B
:100EF0000200016841F080510160016801F08051F9
:100F000001910199416841F480414160406800F4D9
:100F100080400090009802B0704700000000000080
:100F2000002848BF70471C214EF2001300F01F023A
:100F300001EAD000CEF2000301219140C150704778
:100F400070B54EF60C5C4FF0FF36CEF2000C00F19F
:100F5000604505F56445DCF80030C3F3022E8EF0E1
:100F60000703042B28BF0423BEF1030406FA03F38E
:100F700021EA030100F00F0338BF0024043B0028DE
:100F8000634406FA04F048BF03F10C05A14022EACD
:100F9000000008430001287070BD00000000000040
:100FA0004EF60C514FF6FF03CEF200010A681A40CC
:100FB00060F30A2242F0806040F0FD7008607047E4
:100FC00001680122C0F8D824002280F8CC24886966
:100FD00040F000608861486D40F08052002042F08F
:100FE00003024A6570470000002800F02D81F0B52B
:100FF00081B00446056890F89504002800F0268129
:10100000B5F1A04F4FF0030084F8950400F02C8157
:10101000206803F059FBD4E90001267CD4E90223BF
:10102000009602F0EDFF002840F0088120680021C2
:1010300003F052FB002840F0018194F804E0BEF177
:10104000000F00F0F280BEF1040F0EF0030C4FF021
:10105000000241D30EF0FC03A4F19000032101250E
:10106000CE1E80F8A460A0F8BE608E1E80F8C86016
:101070004F1CA0F8E2604E1E80F8EC609F42A0F882
:10108000066101F1040680F8A55080F8A820C0E9A7
:101090002B22C0F8B42080F8C95080F8CC20C0E9D9
:1010A0003422C0F8D82080F8ED5080F8F020C0E954
:1010B0003D22C0F8FC2080F8115180F81011A0F8F2
:1010C0002A11314680F81421C0E94622C0F82021B7
:1010D00000F19000C4D1F21EBCF1000F2DD002EB44
:1010E000C2000121BCF1010F04EB80034FF00000AE
:1010F00059751A75DA851876C3E9070058621CD04D
:10110000531CBCF1020F03EBC30504EB85056975A5
:101110002B75EB852876C5E9070068620DD0901C19
:10112000012200EBC00104EB81014A750875C885F6
:1011300000200876C1E907004862BEF1000F74D0B4
:10114000BEF1040F4FF0000237D30EF0FC00032174
:10115000234600BFCF1E83F854728F1E83F8787227
:101160004F1E83F89C724F1C0D1D83F85522874239
:1011700083F85822C3E99722C3F8642283F87922BE
:1011800083F87C22C3E9A022C3F8882283F89D2239
:1011900083F8A022C3E9A922C3F8AC2283F8C122B4
:1011A00083F8C012294683F8C422C3E9B222C3F8E7
:1011B000D02203F19003CDD1EA1EBCF1000F34D050
:1011C00002EBC200BCF1010F04EB80014FF0000004
:1011D00081F8550281F8542281F85802C1E997003C
:1011E000C1F8640221D0511CBCF1020F01EBC10314
:1011F00004EB830383F8550283F8541283F85802F2
:10120000C3E99700C3F864020FD0901C002200EBE2
:10121000C00104EB810181F8552281F8540281F864
:101220005822C1E99722C1F86422D4E90001277C41
:10123000D4E90223009702F0F7FFC8B1022084F836
:101240009504012001B0F0BD01207047002084F812
:101250009404204600F020F8B5F1A04F4FF00300B1
:1012600084F895047FF4D4AE0020A071D0E600BFCE
:1012700000206074012084F89504207B012802D1AD
:101280002046FFF79DFE206802F0BEFF002001B05F
:10129000F0BD000000000000F0B5ABB002A90446AC
:1012A000081D8C21FEF7FCFF2068B0F1A04F01D093
:1012B0002BB0F0BD4FF40010029060200790012089
:1012C0000A900C904FF00060219002A80224CDE912
:1012D000084400F089F808B1FFF7CEF843F630066D
:1012E00026ADC4F2020629460027306840F001000E
:1012F0003060306800F00100269026984FF4E850E6
:10130000CDE9260400240320C4F2020429900A2017
:101310002A9020462897FFF7B7FA4FF40070294625
:10132000CDE9260720462897FFF7AEFA706840F00F
:1013300080007060706800F0800001900198706912
:1013400040F480407061706900F480400090009823
:101350002BB0F0BD00000000B0B582B043F64000F5
:1013600047F20005C4F20200C4F20005016841F032
:1013700080510160006800F0805001900198286859
:1013800040F480302860FFF75FFB04466868C003C4
:1013900006D4FFF759FB001BB0F57A7FF6D910E0B1
:1013A000286840F400302860FFF74EFB044600BF79
:1013B0006868800308D4FFF747FB001BB0F57A7F0D
:1013C000F6D9032002B0B0BD002002B0B0BD0000CD
:1013D00047F20000C4F20000016841F4807101602E
:1013E00070470000000000002DE9F04782B0D0F8FF
:1013F00000A043F6900604465FEACA70C4F20206F3
:101400001AD14FF000095FEA0A3028D556F8040CCB
:10141000E16B20F44010B1F5801F40EA010046F86E
:10142000040CB1FA81F04FEA501808BF4FF00109DF
:101430005FEACA2018D429E056F8880C20F400008E
:1014400046F8880C606B56F8881C014346F8881CE7
:10145000B0FA80F04FEA50195FEA0A30D6D44FF064
:1014600000085FEACA2011D556F8040C216C20F45C
:101470004000B1F5800F40EA010008BF4FF00109BC
:10148000002908BF4FF0010846F8040C5FEA8A60A3
:1014900057465CD556F8500C47F2000740F0805094
:1014A00046F8500CC4F2000756F8500C00F080507B
:1014B00001900198386840F480703860FFF7C4FAF2
:1014C000054600BF3868C00506D4FFF7BDFA401BCB
:1014D0006428F7D962E200BF56F8200C10F440707F
:1014E0001BD0216B01F44071884216D056F8200CB5
:1014F00056F8201C41F4803146F8201C56F8201C78
:1015000020F4407021F4803146F8201C46F8200C6D
:1015100056F8200CC00740F0C3814FF6FF43276800
:10152000206B56F8882CC0F6FF7300F4407122F44B
:10153000F81203406FF31F30B1F5407F08BF1A4324
:1015400046F8882C56F8201C084346F8200CF8066C
:1015500032D478043ED4380444D4F8034AD4B803CF
:1015600050D4780656D438065CD4F80562D4B80551
:1015700068D478056ED4380575D4F8047CD4B804E2
:1015800000F18380780200F18980B80200F18F8039
:10159000780300F19B80380200F1A180780100F10E
:1015A000A880380100F1AF80F80000F1B8805FEA50
:1015B000CA1040F1C080CDE056F8040C20F08070D5
:1015C00046F8040CA06B56F8041C084346F8040CBB
:1015D0007804C0D53068616E20F440300843306034
:1015E0003804BAD53068A16E20F44020084330603A
:1015F000F803B4D53068E16E20F440100843306041
:10160000B803AED53068216F20F440000843306045
:101610007806A8D53068616C20F00300084330607C
:101620003806A2D53068A16C20F00C000843306069
:10163000F8059CD53068E16C20F03000084330603C
:10164000B80596D53068216D20F0C00008433060A1
:10165000780590D53068616D20F4407008433060A3
:1016600038057FF58AAF3068A16D20F440600843EB
:101670003060F8047FF583AF3068E16D20F44050AE
:1016800008433060B8047FF57DAF3068216E20F4E8
:1016900040400843306078027FF577AF3068A16F33
:1016A00020F0806008433060B8027FF571AF306889
:1016B000E16F20F00060B1F1006F40EA010008BF67
:1016C0004FF00108306078037FF565AF3068616FD7
:1016D00020F040700843306038027FF55FAF30681B
:1016E000D4F8801020F080500843306078017FF5F6
:1016F00058AF3068D4F8841020F0005008433060B0
:1017000038017FF551AF56F8040CD4F8881020F05A
:101710000070084346F8040CF8007FF548AF56F80F
:10172000040CD4F88C1020F08060084346F8040CB8
:101730005FEACA100ED4B9F1000F08BF17F00070AD
:1017400008D138071AD4B8F1000F17D1002002B021
:10175000BDE8F08756F8900C20F0806046F8900CB9
:10176000FFF772F9054600BF56F8900C000119D535
:10177000FFF76AF9401B6428F6D90FE156F8900C80
:1017800020F0805046F8900CFFF75EF9054600BF48
:1017900056F8900C800015D5FFF756F9401B6428C9
:1017A000F6D9FBE02068C10703D0616B002900F087
:1017B0008B80010340F19C80E16BB1F5801F40F00C
:1017C00097809BE02068010301D5E16B19B1C1024C
:1017D0001ED5216CE1B956F8081C56F8082C01F406
:1017E000403102F0E042D4E905371144A26A41EAEF
:1017F00083116FF0FF0341EA076146F8081C56F8B1
:10180000041C03EB022221F4F851114346F8041C96
:10181000810214D5E16FB1F1006F10D156F8081CA8
:1018200056F8082C01F0706102F0E0426369276A03
:10183000114441EA831141EA074146F8081C0007B8
:1018400018D556F8080C56F8081C00F0706001F422
:10185000403162690844E16940EA8210E36A40EA83
:10186000017046F8080C56F8040C20F44030184378
:1018700046F8040C56F8900C40F0805046F8900C56
:10188000FFF7E2F8044600BF56F8900C80003FF5E1
:101890005DAFFFF7D9F8001B6528F5D37EE000BFE8
:1018A000FFF7D2F8054641F2883700BF56F8200C02
:1018B00080073FF532AEFFF7C7F8401BB8424FF044
:1018C0000300F3D96BE000BF56F80C1C56F80C2C43
:1018D00001F4403102F07062D4E90135114441EA6B
:1018E000831141EA057146F80C1C01033FF564AF12
:1018F000C1021DD5216CB1F5800F19D156F80C1C11
:1019000056F80C2C01F4403102F0E04263681144B7
:10191000E26841EA8311656A41EA026146F80C1CFB
:1019200056F8041C6A1E21F01F01114346F8041CDE
:10193000C10110D556F80C1C56F80C2C01F0706142
:1019400002F0E04263682569114441EA831141EAEB
:10195000054146F80C1C80010CD56068A368D4E9E9
:101960000321090441EA801040EA026040EA037062
:1019700046F80C0C56F8900C40F0806046F8900C3D
:10198000FFF762F8054600BF56F8900C00013FF5DE
:10199000D8AEFFF759F8401B6428F5D9032002B0F0
:1019A000BDE8F08700000000002871D02DE9F0416B
:1019B00043F608080446C4F202080D46D8F8F803B6
:1019C00000F00F0088420CD2D8F8F80320F00F0086
:1019D0002843C8F8F803D8F8F80300F00F00A8422D
:1019E00070D12068810717D5410705D5D8F80010B8
:1019F00041F4E051C8F80010010705D5D8F80010EF
:101A000041F46041C8F80010D8F80010A26821F035
:101A1000F0011143C8F80010C0073BD1D8F8F80313
:101A200000F00F00A8420CD9D8F8F80320F00F00FE
:101A30002843C8F8F803D8F8F80300F00F00A842CC
:101A400040D12068410707D5D8F80010E26821F49A
:101A5000E0511143C8F80010000708D5D8F800007D
:101A6000216920F4604040EAC100C8F80000D8F8BD
:101A7000000000F00C0142F200400829C0F2F4001E
:101A800040D0042960D141F20020C0F27A005BE02E
:101A9000012070476068022808D001280ED158F84C
:101AA000081C890312D40120BDE8F08158F8081CF5
:101AB00089010BD40120BDE8F08100BF58F8081C53
:101AC000890703D40120BDE8F08100BFD8F80010D9
:101AD00021F003010843C8F80000FEF7B5FF0646F1
:101AE00041F28837D8F80000616800F00C00B0EBD4
:101AF000810F93D0FEF7A8FF801BB842F2D90320D4
:101B0000BDE8F08158F8041C58F8043C58F8047CEF
:101B100001F03F025902C7F3881105D4A1FB00016F
:101B20000023FEF785FB06E041F20020C0F27A00B8
:101B30004843B0FBF2F058F8041C0222C1F3014103
:101B400002EB4101B0FBF1F0D8F8001045F6D832B5
:101B5000C0F60002C1F30311515C40F20802C2F268
:101B60000002C84040F27001C2F200010860106833
:101B7000FFF796F90020BDE8F081000000000000AA
:101B800040F2700043F60801C2F20000C4F2020104
:101B900045F6E83200680968C0F60002C1F3822108
:101BA000515CC8407047000040F2700043F60801E5
:101BB000C2F20000C4F2020145F6E832006809688A
:101BC000C0F60002C1F34231515CC84070470000CA
:101BD00010B543F60404C4F20204606800F00C017E
:101BE00042F200400829C0F2F40007D0042918BFCF
:101BF00010BD41F20020C0F27A0010BD22682368B7
:101C0000216802F03F025B02C1F3881106D4A1FBF8
:101C100000010023FEF70CFB07E000BF41F20020AB
:101C2000C0F27A004843B0FBF2F021680222C1F30F
:101C3000014102EB4101B0FBF1F010BD00000000DA
:101C400000284FD02DE9F04182B00446007843F6D9
:101C50000006C007C4F202060CD0B06800F00C0009
:101C6000042840F081803068800303D56068002834
:101C700000F03881207880071BD5B06810F00C0F79
:101C800009D0B06800F00C00082840F08B80706824
:101C9000400200F187803068800703D5E0680128A2
:101CA00040F020813068216920F0F80040EAC1004E
:101CB00030602078000717D4207840072CD4A5691D
:101CC000002D00F00B81B06800F00C00082840F0F7
:101CD000A780012D706840F0D980012002B0BDE8D6
:101CE000F08100BF0120704760690028706F00F02C
:101CF000838040F001007067FEF7A6FE054600BF36
:101D0000706F8007D8D4FEF79FFE401B0228F7D9DA
:101D1000032002B0BDE8F081306C5FEAC00808D44F
:101D2000306C40F080503064306C00F08050019096
:101D3000019847F20007C4F200073868C00549D48B
:101D4000386840F480703860FEF77EFE054600BFBC
:101D50003868C0053ED4FEF777FE401B6428F7D9EB
:101D6000032002B0BDE8F081B06800F00C00082844
:101D700003D1706840023FF576AF6068002800F03C
:101D8000F380B0F5A02F00F00781B0F5803F00F0A0
:101D90000781306820F480303060306820F4802083
:101DA00001E100BFE068002830685BD040F001002E
:101DB0003060FEF749FE0546306880073FF572AF98
:101DC000FEF742FE401B0228F6D9032002B0BDE810
:101DD000F08100BFA068002800F08880052800F08E
:101DE0009F80012800F0A080306F20F00100306754
:101DF000306F20F004009AE020F001007067FEF7D9
:101E000023FE0546706F80077FF556AFFEF71CFE78
:101E1000401B0228F6D9032002B0BDE8F08100BFC4
:101E2000306820F080703060FEF70EFE022D05460F
:101E30000CD100BF3068800140F1C880FEF704FE7D
:101E4000401B02284FF00300F4D91CE030688001E9
:101E500044D5FEF7F9FD401B02284FF00300F5D9E9
:101E600011E000BF20F001003060FEF7EDFD0546F7
:101E7000306880077FF51DAFFEF7E6FD401B0228A6
:101E80004FF00300F4D902B0BDE8F08100F4800106
:101E9000E269914226D100F03F01226A914221D1AC
:101EA00047F6C071626A0140B1EB821F1AD1A16A84
:101EB0004FF6FF72C903914300F44032A1F580311F
:101EC0008A420FD1E16A00F07062B2EB016F09D172
:101ED000216B00F0E040B0EB017F03D1002002B0A5
:101EE000BDE8F081012002B0BDE8F081306F20F044
:101EF00001003067306F20F004003067FEF7A4FD6A
:101F0000054641F2883700BF306F800722D5FEF7C3
:101F10009BFD401BB8424FF00300F5D9B3E700BF6B
:101F2000306F40F004003067306F40F001003067E0
:101F3000FEF78AFD054641F2883700BF306F800703
:101F400008D4FEF781FD401BB842F7D9032002B048
:101F5000BDE8F081B8F1000F3FF5B1AE306C20F074
:101F600080503064ABE600BF306820F480303060D1
:101F7000306820F480203060FEF766FD054600BF23
:101F8000306880037FF576AEFEF75EFD401B642867
:101F90004FF00300F4D976E7306840F480203060D9
:101FA000306840F480303060FEF74EFD054600BFDB
:101FB000306880033FF55EAEFEF746FD401B6428A7
:101FC000F6D9032002B0BDE8F08100BF04F11C0780
:101FD000256B8FCF0843D9034FF6FF7340EA821079
:101FE000994340EA0760A1F58031084340EA057053
:101FF0007060306840F080703060FEF725FD044668
:10200000306880013FF56AAFFEF71EFD001B022815
:102010004FF00300F4D936E740B1B0B50446406A4A
:1020200030B10020206104F1140007E00120704766
:102030006068B0F5827F03D004F11C0000210160CC
:102040000025A56294F85D0020B9204684F85C5014
:1020500000F052F8022084F85D002068D4F80CE00B
:10206000BEF5E06F4EF40063026898BF0125B3F53A
:10207000706F22F040024FEA053C026001D000235D
:10208000A362D4E90135D4E9042103F4827305F491
:1020900004452B4402F002021A4401F001011144EC
:1020A000A26902F40073E569194405F03803194484
:1020B000236A03F08003A56A194405F40053194309
:1020C0000423016003EA12410EF47063626A43EA7A
:1020D0000C0302F01002656B194305F0080311436D
:1020E00019434160C16921F40061C161002020668B
:1020F000012184F85D10B0BD2DE9F04385B043F6B1
:1021000000050068C4F20005A84203D005B0BDE890
:10211000F08300BF43F630006C46C4F202004FF07B
:1021200002084FF0000903260169052741F48041A8
:102130000161016901F4804100910099016841F059
:1021400004010160016801F0040100910099016837
:1021500041F0080101600068214600F0080000908D
:1021600000980C20009005F5E830CDF80480CDF8FB
:10217000089003960497FEF787FB082021468DE818
:10218000010305F5EA30CDE90367FEF77DFB05B0F5
:10219000BDE8F08300000000411E0020B0EB116F8D
:1021A00002D00120704700BF4EF21002F023CEF2A1
:1021B000000251604EF62351CEF200010B70072150
:1021C0009060116070470000704700000000000040
:1021D0007047000000000000704700000000000091
:1021E00090F83C20012A01D102207047B0B5CB689D
:1021F00048F2FF7ED1E901C223F47C5322F47052ED
:10220000CFF6F07E1A430CEA0E03D1F800C042EA82
:10221000030E2CF477230A6943EA0E0322F4762294
:10222000D0F800E01A434B691A438B6A22F4742CED
:1022300023F470238A6940F200454EF48064C4F2AE
:10224000010543EA0C03AC4243EA02430FD10025E7
:1022500023F07C724B6ACFF6F045CC6905EA035354
:102260001A4324F00073096A1A4342EA0103CEF8C4
:102270004430002180F83C10BDE8B040084670476B
:1022800090F83C20012A4FF002025ED0B0B580F8F1
:102290003D2040F2004C0268C4F2010C42F480631D
:1022A00063455368D2F808E002BF23F470034C681A
:1022B000234341F2FF740D68C4F2000423F070035D
:1022C000A24243EA050353600CDC40F2FF73C4F200
:1022D00000039A4216DCB2F1804F29D040F200434D
:1022E00018E000BF40F2FF33C4F201039A4217DC4A
:1022F00041F60003C4F200039A4219D00023C4F24D
:10230000010309E040F60003C4F200039A420FD033
:1023100040F60043C4F200039A4209D00DE000BF2A
:1023200044F20003C4F201039A4201D0624504D191
:102330002EF080038968194391600022012180F802
:102340003D1080F83C20BDE8B040104670470000CA
:1023500060B310B5044690F83D0028B9002084F819
:102360003C00204600F024F8022084F83D0020685C
:10237000211D01F0A5F9012084F8480084F83E00F1
:1023800084F83F0084F8400084F8410084F842005B
:1023900084F8430084F8440084F8450084F846003B
:1023A00084F8470084F83D00002010BD01207047EC
:1023B00080B582B00068B0F1804F2DD00021C4F20A
:1023C0000101884235D143F640000022C4F20200E8
:1023D000416841F0010141604068002100F00100C6
:1023E000019001981820FEF7ABFD1820FEF798FD2C
:1023F000192000210022FEF7A3FD1920FEF790FD11
:102400001A2000210022FEF79BFD1A2002B0BDE831
:102410008040FEF785BD00BF43F64000C4F20200D5
:10242000016841F001010160006800F001000090C6
:10243000009802B080BD000090F83D1001291BD12A
:10244000022180F83D10016841F2FF70C4F20000E3
:102450008142C86840F00100C8600FDC40F2FF70A4
:10246000C4F20000814217DCB1F1804F2CD040F261
:102470000040C4F2000025E00120704740F2FF3028
:10248000C4F20100814213DC41F60000C4F20000F6
:10249000814219D0002013E040F60000C4F2000091
:1024A000814211D040F60040C4F200000AE000BFB3
:1024B00044F20000C4F20100814205D040F2004025
:1024C000C4F2010081420BD107228868C0F20102E8
:1024D00002400020062A18BFB2F5803F00D17047A5
:1024E000086840F00100086000207047000000000C
:1024F00090F83C20012A4FF002026CD080B580F8A1
:102500003D208822D0F800C0CFF6FE72DCF80830FB
:102510001A40CCF808200B684F2B29DC1F2B45DD17
:10252000202B18BF302B44D0402B40F0AF80D1F887
:1025300004E0C968DCF82030DCF8202022F0010239
:10254000CCF82020DCF8182022F0F00242EA011139
:1025500023F00A02CCF8181042EA0E01CCF8201041
:10256000DCF8081041F0470121F0300128E000BFFD
:102570006F2B33DDB3F5005F54D0B3F5805F21D00E
:10258000702B40F08380D1E901E3C968DCF80820B2
:1025900043EA0E0322F47F4243EA01211143CCF8BF
:1025A0000810DCF8081041F0770109E00BB1102B9E
:1025B0006CD1DCF8081021F07001194341F00701DB
:1025C000CCF808100022012180F83D10002180F88D
:1025D0003C10BDE880401046704700BF502B35D0FE
:1025E000602B53D1D1F804E0C968DCF82030DCF866
:1025F000202022F01002CCF82020DCF8182022F451
:10260000704242EA013123F0A002CCF8181042EAED
:102610000E11CCF82010DCF8081041F0670121F011
:102620001001CDE7D1E901E3C968DCF8082043EAED
:102630000E0322F47F4243EA01211143CCF8081033
:10264000DCF8081041F48041BAE700BFD1F804E09B
:10265000C968DCF82030DCF8202022F00102CCF838
:102660002020DCF8182022F0F00242EA011123F0C9
:102670000A02CCF8181042EA0E01CCF82010DCF85F
:10268000081041F0570121F0200199E701229AE753
:102690007047000000000000F0B581B004460068FB
:1026A000C5680669B10717D515F0020114D06FF09F
:1026B00002010161012121778069800704D0204651
:1026C000FFF7E6FF06E000BF204600F025FA2046AF
:1026D00000F01EFC00202077700719D515F00400CB
:1026E00016D020686FF00401016102212177806912
:1026F00010F4407F04D02046FFF7CAFF06E000BF79
:10270000204600F009FA204600F002FC0020207765
:10271000300717D515F0080014D020686FF00801B5
:10272000016104212177C069800703D02046FFF7AB
:10273000AFFF05E0204600F0EFF9204600F0E8FB8F
:1027400000202077F00619D515F0100016D020686B
:102750006FF01001016108212177C06910F4407FFA
:1027600004D02046FFF794FF06E000BF204600F0AB
:10277000D3F9204600F0CCFB00202077F00718BFEB
:1027800015F0010006D020686FF0010101612046BC
:1027900000F07EFC05F0800716F4025F18BF002FE2
:1027A00002D1F00509D410E020686FF402510161F4
:1027B0002046FFF70DFDF00507D537B120686FF40F
:1027C000807101612046FFF7FFFC700609D515F006
:1027D000400006D020686FF040010161204600F003
:1027E0005BFCB0060CD515F0200009D020686FF016
:1027F00020010161204601B0BDE8F040FFF7ECBCCC
:1028000001B0F0BD000000000068B0F1804F18BFBB
:1028100070472DE9F04186B043F630000024C4F241
:102820000200C4F2020401AD012601684FF0020863
:1028300041F0010101600168002701F001010191EF
:102840000199016841F0020101600068294600F029
:1028500002000190019820460196CDF80880CDE94C
:1028600003770596FEF710F84FF440602946CDE94E
:10287000010804F580600596CDE90377FEF704F8BA
:1028800006B0BDE8F041704790F83C30012B01D113
:10289000022070474FEAB202052A00F20181F0B52A
:1028A000DFE812F006003A007200AA00D40004012A
:1028B000026842F48064136A156A23F0020325F06B
:1028C00001051562D2F804E0D2F818C08E6840F213
:1028D0000045C4F201053343AC4201BFCE6823F08A
:1028E0000C0326F004063343AC420C6801BF2EF4FF
:1028F0004076D1E9055E35434EEA050E4FF68C75FC
:10290000CFF6FE75C2F804E00CEA05062643966190
:10291000496851631362F4E0026840F2004542F4F2
:102920008064C4F20105136AAC42166A23F02003E6
:1029300026F010061662D2F804E0D2F818C08E68AD
:1029400043EA061307D1CE686FF0400723F0C003B7
:1029500007EA06163343AC420C6801BFD1E90556BD
:1029600035432EF4406747EA850E48F6FF45CFF61B
:10297000FF65C2F804E00CEA050747EA04279761FF
:10298000496891631362BCE0026840F2004542F47A
:102990008064C4F20105136AAC42176A23F4007321
:1029A00027F480771762D2F804E0D2F81CC08E6852
:1029B00043EA062307D1CE6840F2FF47360223F4EC
:1029C0004063BE433343AC420C6801BFD1E90556B6
:1029D00035432EF4405747EA051E4FF68C75CFF667
:1029E000FE75C2F804E00CEA05072743D761496881
:1029F000D163136285E000BF026840F2004642F4F2
:102A00008067C4F20106D2F820C0B742136A2CF4E2
:102A1000005723F4805313625368D469D1F800E05F
:102A20008D6802BF4E6923F4804343EA861348F65B
:102A3000FF4647EA0537CFF6FF665360264046EA71
:102A40000E23D361496811645AE000BF026840F266
:102A5000004642F48067C4F20106D2F820C0B742B3
:102A6000136A2CF4003723F4803313625368556DD6
:102A7000D1F800E08C6802BF4E6923F4803343EA4A
:102A800006234FF68C7647EA0447CFF6FE7653606E
:102A900003362E4046EA0E035365496891652FE0E0
:102AA0000121002280F83C2008467047026840F26D
:102AB000004642F48067C4F20106D2F820C0B74253
:102AC000136A2CF4001723F4801313625368556DB6
:102AD000D1F800E08C6802BF4E6923F4802343EAFA
:102AE000862348F6FF4647EA0457CFF6FF66536051
:102AF00006F540762E4046EA0E2353654968D165B7
:102B000017620021BDE8F040002280F83C20084612
:102B10007047000000000000704700000000000047
:102B200060B310B5044690F83D0028B9002084F841
:102B30003C00204600F024F8022084F83D00206884
:102B4000211D00F0BDFD012084F8480084F83E00FE
:102B500084F83F0084F8400084F8410084F8420083
:102B600084F8430084F8440084F8450084F8460063
:102B700084F8470084F83D00002010BD0120704714
:102B8000704700000000000090F83C30012B01D19C
:102B9000022070474FEAB202052A00F23B812DE97C
:102BA000F041DFE812F0070047008900CB00010187
:102BB0003D0100BF036840F2004643F48065C4F263
:102BC00001061C6AB5421A6A24F0020422F00102CE
:102BD0001A621A46D3F804C052F818EF8F6844EA14
:102BE000070401BFCF6824F00C0427F004073C431E
:102BF000B5420D6801BF2CF44077D1E9056C3E4326
:102C00004CEA060C4FF68C76CFF6FE76C3F804C07D
:102C10000EEA06072F439F614F6809695F631C62D4
:102C20009F6947F008079F619F6927F004079F612C
:102C30002DE100BF036840F2004643F48065C4F212
:102C400001061C6AB5421A6A24F0200422F0100220
:102C50001A621A46D3F804C052F818EF8F6844EA93
:102C6000071407D1CF686FF0400824F0C00408EAC9
:102C700007173C43B5420D6801BFD1E905673E43E4
:102C80002CF4406747EA860C48F6FF46CFF6FF660D
:102C9000C3F804C00EEA060747EA05279F614F689C
:102CA00009699F631C629F6947F400679F619F6980
:102CB00027F480679F61E9E0036840F2004643F42F
:102CC0008065C4F201061C6AB5421A6A24F40074D5
:102CD00022F480721A621A46D3F804C052F81CEF2C
:102CE0008F6844EA072408D1CF6840F2FF483F02CA
:102CF00024F4406427EA08073C43B5420D6801BF4D
:102D0000D1E905673E432CF4405747EA061C4FF6CD
:102D10008C76CFF6FE76C3F804C00EEA06072F4382
:102D2000DF614F680969DF631C62DF6947F00807EC
:102D3000DF61DF6927F00407DF61A8E0036840F284
:102D4000004543F48067C4F20105D3F820C0AF42C8
:102D50001A6A22F480521A621A465C6852F81C6F92
:102D60000D68D1F808E002BF4F6924F4804444EABA
:102D7000871448F6FF47CFF6FF675C603E402CF4AF
:102D8000005746EA0524DC614E6809691E6447EA7B
:102D90000E371F62DF6947F40067DF61DF6927F4E0
:102DA0008067DF6172E000BF036840F2004543F4D2
:102DB0008067C4F20105D3F820C0AF421A6A22F43A
:102DC00080321A621A465C6852F8546F0D68D1F866
:102DD00008E002BF4F6924F4803444EA07244FF628
:102DE0008C77CFF6FE775C6003373E402CF40037DB
:102DF00046EA05045C654E6809699E6547EA0E4728
:102E00001F625F6D47F008075F655F6D27F004077D
:102E10005F653CE00121002280F83C2008467047B5
:102E2000036840F2004543F48067C4F20105D3F81B
:102E300020C0AF421A6A22F480121A621A465C68F5
:102E400052F8546F0D68D1F808E002BF4F6924F4BE
:102E5000802444EA872448F6FF47CFF6FF675C608A
:102E600007F540773E402CF4001746EA05245C65E0
:102E70004E680969DE6547EA0E571F625F6D47F4C9
:102E800000675F655F6D27F480675F6509021368FF
:102E9000194311600021BDE8F041002280F83C2078
:102EA000084670470000000060B310B5044690F873
:102EB0003D0028B9002084F83C00204600F024F8AA
:102EC000022084F83D002068211D00F0F9FB01205C
:102ED00084F8480084F83E0084F83F0084F84000FD
:102EE00084F8410084F8420084F8430084F84400E8
:102EF00084F8450084F8460084F8470084F83D00D3
:102F0000002010BD01207047704700000000000045
:102F1000704700000000000081B10A1F8B0743EAE0
:102F20009202032A30D8DFE802F00311192900BF0A
:102F300000F13F031B78012B15D00CE090F83E20E8
:102F4000012A08D1022280F83E2032E000F140033D
:102F50001B78012B07D00120704700BF00F141030F
:102F60001B78012BF7D1032A14D8DFE802F00317EE
:102F70001B1F00BF022280F83F201AE000F142032D
:102F80001B78012BE7D1EEE700F143031B78012BFF
:102F9000E9D0E0E7022280F843200AE0022280F82C
:102FA000402006E0022280F8412002E0022280F860
:102FB0004220026801F01F00012101FA00F0116AAD
:102FC0008143116241F2FF71C4F200018A42116A29
:102FD00040EA010010620FDC40F2FF70C4F2000012
:102FE00082421BDCB2F1804F3ED040F20040C4F27E
:102FF0000000824238D043E040F2FF30C4F20100CA
:10300000824219DC41F60000C4F2000082422BD05B
:103010000020C4F2010082421AD031E040F60000E4
:10302000C4F2000082421FD040F60040C4F200000B
:10303000824219D024E000BF44F20000C4F2010033
:10304000824211D040F20040C4F20100824217D106
:1030500040F2004142F48060C4F20101536C8842A6
:1030600043F4004050640BD107219068C0F2010185
:1030700001400020062918BFB1F5803F00D17047FC
:10308000106840F001001060002070470000000050
:1030900070470000000000007047000000000000C2
:1030A00010B5C8B10446C06F28B9002084F8780074
:1030B000204600F025F82420E0672068616A002996
:1030C000026822F00101016002D0204600F0A0FB5E
:1030D000204600F0C9FC08B1012010BD20684168FD
:1030E00021F490414160816821F02A0181600168EA
:1030F00041F0010101602046BDE8104000F0F8BB3E
:103100002DE9F041AAB000210446CDE92811CDE90E
:103110002611259101A89021FDF7C2F844F600017F
:103120002068C4F2000188423ED041F20001C4F29E
:10313000010188426CD101A84FF04008CDF804800D
:10314000FEF752F908B1FDF797F943F6300040F267
:103150000044C4F20200C4F20204022600274169BE
:10316000032541F010014161416901F01001009116
:103170000099016841F002010160006825A900F092
:103180000200009000984FF4004025900420299000
:103190002046269627972895FDF776FBCDE92586CC
:1031A000CDE927752EE000BF4FF48070019001A893
:1031B000FEF71AF908B1FDF75FF943F63000C4F2E3
:1031C0000200016941F480210161016901F480215B
:1031D00000910099016841F00801016040F200414E
:1031E0000068C4F2020100F00800009001F50064DC
:1031F00000984FF4407025900220269000202790E0
:10320000032028900720299025A92046FDF73CFBA4
:103210002AB0BDE8F0810000FEE7000000000000D9
:1032200070B5044600688369DB0603D400210022E0
:1032300069E000BF0E461021C161816989065ED434
:10324000711C52D0154636BBFDF7FEFB2068426864
:1032500094F8421083691B040CD512F4804209D102
:10326000202907D0416841F480414160FDF7ECFB23
:10327000054600BF20688169890605D4FDF7E4FB97
:10328000401B1A28F6D328E081698906DCD536E090
:103290008169890633D4FDF7D7FB401BB042206813
:1032A000F6D9426894F8421083691B040CD512F4D5
:1032B000804209D1202907D0416841F48041416012
:1032C000FDF7C2FB054600BF206881698906DFD48F
:1032D000FDF7BAFB401B1A28F6D32068012281694A
:1032E000242110E08169890609D48169890606D400
:1032F000816989065CBF81695FEA8161F2D520211D
:10330000C161012204218369DE0505D541F0010177
:103310004FF48072C26101225E0505D49B050AD478
:1033200072B9002070BD00BF41F008019A054FF44A
:103330008062C26104D541F002014FF40072C261A3
:103340008269920701D5002282628269D20703D185
:10335000826942F0010282614EF600034268CFF6B4
:1033600000631A404260606C08436064202084F867
:103370004100002084F8420084F84000012070BD24
:103380002DE9F0410446006880690840401AB0FA0F
:1033900080F04009904221D10D4616461F46581C28
:1033A000DDF8188027D0CFBB002120464246FFF72A
:1033B00037FF002853D1FDF747FB2068816929407A
:1033C000491BB1FA81F14909B1423CD080692840DA
:1033D000401BB0FA80F04009B042E5D00020BDE8C3
:1033E000F08100BF206880692840401BB0FA80F05F
:1033F0004009B042F2D14FF0FF3120464246FFF77C
:103400000FFF0028EED00120BDE8F0818069284040
:10341000401BB0FA80F04009B042DFD12046394667
:103420004246FFF7FDFED0B9FDF70EFBA0EB08000A
:10343000B8422068EAD981692940491BB1FA81F173
:103440004909B142E2D1606C40F020006064202064
:1034500084F84100002084F8420084F840000120F4
:10346000BDE8F0810000000070B504460068806986
:10347000800635D415460E4619B928E080698006C5
:103480002ED4204631462A46FFF7CAFE30BBFDF750
:10349000DBFA401BB0422068F0D981698906EDD47F
:1034A000606C40F020006064202084F8410000201F
:1034B00084F8420084F84000012070BDFDF7C4FA92
:1034C000206881698906EBD58069800608D40021CF
:1034D00020462A46FFF7A4FE0028EFD0012070BD49
:1034E000002070BD0000000070B5044600688069CF
:1034F000800714D415460E46481C17D01EBB00BFCB
:10350000002120462A46FFF78BFEB8BBFDF79CFA48
:1035100020688169890725D580698007F0D500205A
:1035200070BD00BF206880698007F8D44FF0FF317C
:1035300020462A46FFF774FE0028F3D0012070BD14
:1035400080698007EBD4204631462A46FFF768FEA3
:10355000A0B9FDF779FA401BB0422068F0D9816923
:103560008907EDD4606C40F020006064202084F86E
:103570004100002084F8420084F84000012070BD22
:10358000FEE7000000000000FEE700000000000071
:1035900070470000000000007047000000000000BD
:1035A00080B5FDF761FCBDE8804001F055BD00002D
:1035B00080B594B000200690CDE90B00CDE909005C
:1035C000CDE90400CDE90200FDF702FF43F640001B
:1035D000D822C4F20200016841F080510160006805
:1035E00000F08050019047F200000199C4F2000001
:1035F000016841F44041016000684FF4800100F42B
:10360000404001900198012007904FF4A0200890BD
:1036100002200D900E910421CDE91020CDE9121069
:1036200007A80F91FEF70CFB20B1EFF3108072B6E4
:10363000FEE700BFFDF790FE20B1EFF3108072B6F9
:10364000FEE700BF0F2002900220039000200490AC
:103650004FF4A05005904FF48050069002A8072127
:10366000FEF7A2F920B1EFF3108072B6FEE700BFBB
:1036700014B080BD000000004EF68850CEF200006D
:10368000016841F470010160704700000000000013
:1036900040F20070C2F20000FEF7FEBF0000000022
:1036A00040F20070C2F20000FEF7F6BF000000001A
:1036B00040F20070C2F20000FEF7EEBF0000000012
:1036C00010B540F6FF3E40F2004CC4F2000E036815
:1036D0007045C4F2010C27DCB0F1804F2CD040F2D1
:1036E0000042C4F20002904226D040F60002C4F22A
:1036F0000002904220D041F6FF72C4F200029042D4
:1037000024DC704536DCB0F1804F59D040F20042E5
:10371000C4F20002904253D040F60002C4F200020C
:1037200090424DD050E000BF40F60042C4F200028B
:10373000904218BF604563D123F070024B68134379
:1037400041F6FF72C4F200029042DADD43F6FF72E6
:10375000C4F20102904221DC42F20002C4F20002F3
:1037600090422DD00022C4F20102904228D0604540
:1037700026D029E040F60042C4F2000290421FD059
:1037800041F60002C4F20002904219D041F6004214
:10379000C4F20002904213D016E000BF44F20002CF
:1037A000C4F2010290420BD044F60002C4F20102BE
:1037B000904205D044F20042C4F20102904203D18B
:1037C00023F44072CB68134323F080024B69D1F895
:1037D00000E01A438C68026040F48062C462C0F862
:1037E00028E0624504BF0969016301214161016963
:1037F000C90708BF10BD016921F00101016110BDB9
:103800000022C4F20102904296D074E7000000004A
:10381000416A0A070CD4CA0715D18A071ED44A0781
:1038200027D4CA0630D48A0639D44A0642D454E092
:103830000268D0F834C0536823F4004343EA0C0311
:103840005360CA07E9D00268D0F828C0536823F44F
:10385000003343EA0C0353608A07E0D50268D0F8CE
:103860002CC0536823F4803343EA0C0353604A07A7
:10387000D7D50268D0F830C0536823F4802343EAD8
:103880000C035360CA06CED50268D0F838C09368DE
:1038900023F4805343EA0C0393608A06C5D502687B
:1038A000D0F83CC0936823F4005343EA0C039360C0
:1038B0004A0612D50268D0F840C05368BCF5801F94
:1038C00023F4801343EA0C03536006D1536823F4B6
:1038D000C00C436C43EA0C035360090658BF7047A1
:1038E0000168806C4A6822F40022104348607047E7
:1038F000B0B582B004460020C4F88400FDF7A4F8F7
:10390000216805460A68120737D54FF400110022D6
:103910006FF07E40009020462B4600F0C5F958B36A
:10392000206850E8000F216820F0800041E8000284
:10393000F2B1206850E8000F216820F0800041E8D3
:103940000002002A1FBF206850E8000F216820F005
:1039500080001CBF41E80002002A09D0206850E81E
:10396000000F216820F0800041E80002002AD7D132
:103970002020E06763E000BF21680868400765D544
:103980004FF4800100226FF07E40009020462B46CD
:1039900000F08AF9002859D0206850E8000F21680B
:1039A00020F4907041E80002F2B1206850E8000F66
:1039B000216820F4907041E80002002A1FBF2068AF
:1039C00050E8000F216820F490701CBF41E800020D
:1039D000002A09D0206850E8000F216820F4907078
:1039E00041E80002002AD7D1206850E8020F216880
:1039F00020F0010041E80202F2B1206850E8020F15
:103A0000216820F0010041E80202002A1FBF20685F
:103A100050E8020F216820F001001CBF41E80202BB
:103A2000002A09D0206850E8020F216820F0010028
:103A300041E80202002AD7D12020C4F880000320E8
:103A4000002184F8781002B0B0BD00BF2020E067EC
:103A5000C4F88000002020666066002184F8781099
:103A600002B0B0BD0000000070B506460168806875
:103A700046F6F315D6E9033202437069D6F81CC046
:103A80000C68CEF6FF75104304EA0502104340EAC5
:103A90000C000860486820F4405018434860B06942
:103AA00047F2FF73326AC4F2000310438A6822F4BB
:103AB0003062994240EA02004FF01002886019DC3F
:103AC00044F6FF30C4F2000081422DDC44F2004095
:103AD000C4F2000081424DD044F60000C4F2000060
:103AE000814271D143F69000C4F2020000680109DE
:103AF00056E000BF40F6FF70C4F20100814227DCAF
:103B000047F60000C4F2000081423BD047F6004077
:103B1000C4F20000814257D143F69000C4F2020083
:103B20000068810B3CE000BF44F60040C4F2000096
:103B300081422FD045F20000C4F20000814243D1FF
:103B400043F69000C4F202000068010A28E000BFBA
:103B500041F20040C4F20100814227D041F200004E
:103B6000C4F2010081422FD143F69000C4F202005A
:103B7000016821E043F69000C4F202000068810869
:103B80000EE000BF43F69000C4F202000068010B93
:103B900006E000BF43F69000C4F20200006881090D
:103BA00045F60042C0F600020AE000BF43F690006E
:103BB000C4F202000068810A45F6F032C0F6000245
:103BC00001F0030052F8202042F20040BCF5004F03
:103BD000C0F2F4000ED1082A4FF0010139D8DFE815
:103BE00002F0051923381D3838382100FDF7C8FFC9
:103BF000D0B94AE0082A4FF001012AD8DFE802F0E4
:103C0000062E382932292929360000BFFDF7B8FFD2
:103C100070BB3AE0FDF7C8FF30B936E0FDF7D8FFDA
:103C200010B932E04FF4004071684A0802EB4000DE
:103C30004FF6EF72B0FBF1F0A0F11001914207D8FE
:103C40004FF6F0710140C0F3420008441BE000BF92
:103C500001210020C6E91A00084670BDFDF7A4FF47
:103C600030B912E0FDF7B4FF10B90EE04FF4004098
:103C700071684FF6EF7200EB5100B0FBF1F0A0F16C
:103C80001001914208D83168C86000210020C6E9BF
:103C90001A00084670BD00BF01210020C6E91A00C5
:103CA000084670BD000000002DE9F0418046006824
:103CB0000D46C7693940491BB1FA81F14909914262
:103CC00025D1069C34B31646611C29D1C16929400F
:103CD000491BB1FA81F14909B14218D1C1692940A2
:103CE000491BB1FA81F14909B14201BFC1692940BB
:103CF000491BB1FA81F104BF4909B14207D1C16939
:103D00002940491BB1FA81F14909B142DED00020B6
:103D1000BDE8F081FCF798FE0320BDE8F08100BF0C
:103D20001F4607E0C0692840401BB0FA80F04009F8
:103D3000B042ECD1FCF788FEC01BA04200F2B68076
:103D4000D8F8000001684907ECD5402D18BF802D38
:103D5000E8D0C169090700F1AD80C1690905E1D565
:103D60004FF400610162D8F8000050E8000FD8F865
:103D7000001020F4907041E8000222B3D8F800004F
:103D800050E8000FD8F8001020F4907041E80002CD
:103D9000002A1FBFD8F8000050E8000FD8F8001024
:103DA00020F490701CBF41E80002002A0BD0D8F824
:103DB000000050E8000FD8F8001020F4907041E89F
:103DC0000002002ACFD1D8F8000050E8020FD8F83E
:103DD000001020F0010041E8020222B3D8F80000F0
:103DE00050E8020FD8F8001020F0010041E802026C
:103DF000002A1FBFD8F8000050E8020FD8F80010C2
:103E000020F001001CBF41E80202002A0BD0D8F8C4
:103E1000000050E8020FD8F8001020F0010041E83F
:103E20000202002ACFD1D8F8600001282FD1D8F89B
:103E3000000050E8000FD8F8001020F0100041E812
:103E4000000222B3D8F8000050E8000FD8F80010A4
:103E500020F0100041E80002002A1FBFD8F800003F
:103E600050E8000FD8F8001020F010001CBF41E807
:103E70000002002A0BD0D8F8000050E8000FD8F854
:103E8000001020F0100041E80002002ACFD12020CD
:103E9000C8F880000021C8F86010C8F86810C8F899
:103EA0008400032088F87810BDE8F0810320BDE885
:103EB000F08100BF08210162D8F8000050E8000F2F
:103EC000D8F8001020F4907041E8000222B3D8F82E
:103ED000000050E8000FD8F8001020F4907041E87E
:103EE0000002002A1FBFD8F8000050E8000FD8F8E1
:103EF000001020F490701CBF41E80002002A0BD093
:103F0000D8F8000050E8000FD8F8001020F49070A6
:103F100041E80002002ACFD1D8F8000050E8020F93
:103F2000D8F8001020F0010041E8020222B3D8F8CE
:103F3000000050E8020FD8F8001020F0010041E81E
:103F40000202002A1FBFD8F8000050E8020FD8F87C
:103F5000001020F001001CBF41E80202002A0BD033
:103F6000D8F8000050E8020FD8F8001020F0010047
:103F700041E80202002ACFD1D8F8600001282FD1F1
:103F8000D8F8000050E8000FD8F8001020F010001A
:103F900041E8000222B3D8F8000050E8000FD8F83A
:103FA000001020F0100041E80002002A1FBFD8F8DE
:103FB000000050E8000FD8F8001020F010001CBFDF
:103FC00041E80002002A0BD0D8F8000050E8000FAA
:103FD000D8F8001020F0100041E80002002ACFD1EC
:103FE0002020C8F880000020C8F86000C8F86800E9
:103FF0000821C8F8841088F878000120BDE8F08115
:1040000082B002F47F42B2F5807F7DD1836B4FF6A0
:10401000BF7223F480338363DDF808C0C368CFF632
:10402000BD721A40C2605FFA8CF2C368012A23F4A1
:104030004012C26003D1C26842F48012C260002202
:104040000092009A01320092009AB2F1706F00F271
:10405000BB800269002A21D4009A01320092009AA2
:10406000B2F1706F00F2B0800269002A16D4009A93
:1040700001320092009AB2F1706F00F2A5800269DD
:10408000002A0BD4009A01320092009AB2F1706FAC
:1040900000F29A800269B2F1FF3FD2DC0022009266
:1040A000026942F001020261009A01320092009A14
:1040B000B2F1706F00F288800269D2071DD0009AB9
:1040C00001320092009AB2F1706F7DD80269D20776
:1040D00013D0009A01320092009AB2F1706F73D837
:1040E0000269D20709D0009A01320092009AB2F117
:1040F000706F69D80269D207D6D1002201F47F011E
:10410000B1F5803F7AD171E0C26842F04002C260EE
:1041100000220192019A01320192019AB2F1706F6C
:104120005AD80269002A1ED4019A01320192019ADA
:10413000B2F1706F50D80269002A14D4019A01328A
:104140000192019AB2F1706F46D80269002A0AD42E
:10415000019A01320192019AB2F1706F3CD8026962
:10416000B2F1FF3FD6DC00220192026942F0010267
:104170000261019A01320192019AB2F1706F2BD85B
:104180000269D2071DD0019A01320192019AB2F15F
:10419000706F21D80269D20713D0019A01320192BF
:1041A000019AB2F1706F17D80269D20709D0019A4B
:1041B00001320192019AB2F1706F0DD80269D207F3
:1041C000D7D1002209E000BF032201F47F01B1F53D
:1041D000803F13D10AE000BF0322836B43F4803396
:1041E000836301F47F01B1F5803F07D1816841F01D
:1041F00006018160816841F020018160104602B0B3
:1042000070470000000000000146D0F8000E20F0CA
:104210000300C1F8000E0020D1F8042842F0020289
:10422000C1F80428704700002DE9F04F85B0C3F3B2
:1042300007489146B8F1000F8A464FF00007C0F8D2
:104240000471C0F80871C0F80C71C0F81071C0F8A2
:104250001471C0F81871C0F81C71C0F82071C0F852
:104260002471C0F82871C0F82C71C0F83071C0F802
:104270003471C0F83871C0F83C7105D000F13802D3
:104280004FF4001310E000BFD0F80428802342F060
:104290000202C0F80428826B22F4001282630268D2
:1042A00042F040020260024617683B4309F47F4730
:1042B0001360B7F5807F4FF00002C0F8002E07D1E1
:1042C000B2EB1A6FD0F8002806D042F0010203E0EA
:1042D000D0F8002842F00302C0F800280022039220
:1042E000039A01320392039AB2F1706F50D80269B7
:1042F000002A1ED4039A01320392039AB2F1706F1E
:1043000046D80269002A14D4039A01320392039A10
:10431000B2F1706F3CD80269002A0AD4039A0132C4
:104320000392039AB2F1706F32D80269B2F1FF3F83
:10433000D6DC002203924FF484620261039A0132B8
:104340000392039AB2F1706F22D8026992061DD5CA
:10435000039A01320392039AB2F1706F18D802697E
:10436000920613D5039A01320392039AB2F1706F49
:104370000ED80269920609D5039A01320392039A74
:10438000B2F1706F04D802699206D7D4002600E01B
:10439000012600220492049A01320492049AB2F196
:1043A000706F4FD80269002A1ED4049A0132049219
:1043B000049AB2F1706F45D80269002A14D4049AA5
:1043C00001320492049AB2F1706F3BD80269002A5C
:1043D0000AD4049A01320492049AB2F1706F31D86F
:1043E0000269B2F1FF3FD6DC002204921022026182
:1043F000049A01320492049AB2F1706F22D80269D1
:10440000D20620D5049A01320492049AB2F1706F58
:1044100018D80269D20616D5049A01320492049A79
:10442000B2F1706F0ED80269D2060CD5049A01322F
:104430000492049AB2F1706F04D80269D206D7D4FC
:1044400001E000BF01265FFA8AF44FF0000B002C58
:10445000C0F810B8C0F814B8C0F81CB800F0058156
:10446000D0F800294FF00065B4F1010E4FF67F310E
:1044700005EA1212C0F80029C0F810B9C0F80819EE
:1044800078D0A21E5146032A0EF0030A029605D2E6
:104490000122BAF1000F3FD166E000BFCDE90089EB
:1044A0002EF0030700F5186600234FF0904C4FF6EE
:1044B0007F38002256F8609C04320CEAE97546F811
:1044C000605C46F8503C974246F8588C56F8405C81
:1044D0000CEAE57546F8405C46F8303C46F8388C06
:1044E00056F8205C0CEAE57546F8205C46F8103C6E
:1044F00046F8188C35680CEAE57535603361C6F806
:10450000088006F18006D5D101324FF00065DDE963
:104510000089BAF1000F27D000F51067560107EBAC
:1045200042124FF0904CBB59BAF1010F0CEAE37301
:10453000BB514FF000074FF67F361761966013D0DE
:10454000136ABAF1020F0CEAE373136217639662FF
:104550000AD0136C4FF0904707EAE373136400230B
:1045600013654FF67F339364002C8A46029E4FF604
:104570007F317AD0D0F8002BBEF1000F05EA12127D
:10458000C0F8002B4FF00002C0F8102BC0F8081B39
:104590006BD0A21E0EF0030C032A05D20122BCF13F
:1045A000000F3BD161E000BF02962EF0030500F53D
:1045B000386600234FF090474FF67F32002400BF4B
:1045C00056F8601C043407EAE17146F8601C46F8AE
:1045D000503CA54246F8582C56F8401C07EAE171B9
:1045E00046F8401C46F8303C46F8382C56F8201C5B
:1045F00007EAE17146F8201C46F8103C46F8182CF2
:10460000316807EAE17131603361B26006F180061A
:10461000D6D1621C029EBCF1000F26D000F530619D
:10462000570101EB42123546CE594FF0904303EA51
:10463000E676CE512E460024BCF1010F4FF67F35B1
:104640001461956011D0116ABCF1020F03EAE171A7
:1046500011621463956208D0116C03EAE171116470
:10466000002111654FF67F319164D0F810181AF4CB
:104670007F0F21F48071C0F81018C0F818B06FF0E7
:104680008041416103D1816941F01001816143F6AC
:1046900000028169C8F23C0219F47F0F41EA02016D
:1046A000816103D0816941F008018161B8F1010F96
:1046B00005D1816941F0804141F0040181613046BA
:1046C00005B0BDE8F08F000001468268002022F0AE
:1046D00001028A6070470000B0B50446C068002936
:1046E00020F0C040E06000F09980012940F0B080E7
:1046F000E0680A2540F00050E0600A20FCF7B0F8BE
:1047000054F8140FC00740F09C800A20FCF7A8F86A
:104710002068C00740F09E800A20FCF7A1F82068BE
:10472000C00740F0A5800A20FCF79AF82068C0076F
:1047300040F0AC800A20FCF793F82068C00740F0F6
:10474000B3800A20FCF78CF82068C00740F0BA80DC
:104750000A20FCF785F82068C00740F0C1800A20D5
:10476000FCF77EF82068C00740F0C8800A20FCF7FC
:1047700077F82068C00740F0CF800A20FCF770F877
:104780002068C00740F0D6800A20FCF769F820684E
:10479000C00740F0DD800A20FCF762F82068C007FF
:1047A00040F0E4800A20FCF75BF82068C00740F086
:1047B000EB800A20FCF754F82068C00740F0F28034
:1047C0000A20FCF74DF82068C00740F0F9800A2065
:1047D000FCF746F82068C00740F000810A20FCF78B
:1047E0003FF82068C00740F007810A20FCF738F83E
:1047F0002068C00740F00E810A20FCF731F82068DD
:10480000C00740F016810A20FCF72AF8C825206866
:10481000A5F1C800B0FA80F04009B0BDE0680A25F3
:1048200040F08040E0600A20FCF71AF854F8140FBA
:10483000C00706D00A20FCF713F82068C00711D182
:104840001425A5F1C800B0FA80F04009B0BD00BF42
:104850000120B0BD1425A5F1C800B0FA80F04009D0
:10486000B0BD00BF0A20FBF7FBFF2068C00707D1DF
:104870001E25A5F1C800B0FA80F04009B0BD00BF08
:104880000A20FBF7EDFF2068C00707D12825A5F116
:10489000C800B0FA80F04009B0BD00BF0A20FBF7A5
:1048A000DFFF2068C00707D13225A5F1C800B0FAA4
:1048B00080F04009B0BD00BF0A20FBF7D1FF20689F
:1048C000C00707D13C25A5F1C800B0FA80F0400927
:1048D000B0BD00BF0A20FBF7C3FF2068C00707D1A7
:1048E0004625A5F1C800B0FA80F04009B0BD00BF70
:1048F0000A20FBF7B5FF2068C00707D15025A5F1B6
:10490000C800B0FA80F04009B0BD00BF0A20FBF734
:10491000A7FF2068C00707D15A25A5F1C800B0FA43
:1049200080F04009B0BD00BF0A20FBF799FF206866
:10493000C00707D16425A5F1C800B0FA80F040098E
:10494000B0BD00BF0A20FBF78BFF2068C00707D16E
:104950006E25A5F1C800B0FA80F04009B0BD00BFD7
:104960000A20FBF77DFF2068C00707D17825A5F155
:10497000C800B0FA80F04009B0BD00BF0A20FBF7C4
:104980006FFF2068C00707D18225A5F1C800B0FAE3
:1049900080F04009B0BD00BF0A20FBF761FF20682E
:1049A000C00707D18C25A5F1C800B0FA80F04009F6
:1049B000B0BD00BF0A20FBF753FF2068C00707D136
:1049C0009625A5F1C800B0FA80F04009B0BD00BF3F
:1049D0000A20FBF745FF2068C00707D1A025A5F1F5
:1049E000C800B0FA80F04009B0BD00BF0A20FBF754
:1049F00037FF2068C00707D1AA25A5F1C800B0FA83
:104A000080F04009B0BD00BF0A20FBF729FF2068F5
:104A1000C00707D1B425A5F1C800B0FA80F040095D
:104A2000B0BD00BF0A20FBF71BFF2068C0077FF462
:104A3000EAAEBE25A5F1C800B0FA80F04009B0BDCD
:104A4000FEE70000000000009AB040F60009C4F242
:104A50000209FCF719FAFEF7ABFD43F6300000241B
:104A6000C4F20200A9F58067CDE904440168002280
:104A700041F004010160016801F004010C910C99FE
:104A8000016841F080010160016801F080010C9132
:104A90000C99016841F001010160016801F0010118
:104AA0000C910C99016841F002010160016801F06C
:104AB00002010C910C99016841F008010160016844
:104AC00001F008010C910C99016841F0400101606E
:104AD000006844F2810100F040000C900C983846C8
:104AE000FBF7AAFF09F58055402100222846FBF775
:104AF000A3FF01AE4FF4005001904FF48810CDE9B0
:104B0000020448463146FBF7BFFE322001900220E6
:104B10003146CDE9020448464FF0030ACDF810A013
:104B20004FF00B0BCDF814B0FBF7AEFE0820019050
:104B3000484631464FF00108CDF810A0CDE9028873
:104B4000FBF7A2FE082101224846FBF775FF02A9E8
:104B500086200190022081E8110CA9F50060314601
:104B6000FBF792FE44F281003146CDE90108384658
:104B7000CDE90344FBF788FE02A94FF400500190F1
:104B8000022081E8110C38463146FBF77DFE4020BB
:104B90003146CDE901082846CDE90344FBF774FE10
:104BA00080203146CDE9010428460394FBF76CFED2
:104BB00002A94FF420500190022081E8110C2846F0
:104BC0003146FBF761FE00F0C7FA01A82C211994C9
:104BD000CDE917441294CDE91044CDE90E44CDE956
:104BE0000C44FBF75DFB40F20070A9F58431C2F282
:104BF0000000016040F66F01C0E9011440F2E731A6
:104C0000C0E90314C0E90544FDF7A2FB20B1EFF3AE
:104C1000108072B6FEE700BF4FF48050169040F24D
:104C2000007016A9C2F20000FDF762FC20B1EFF39C
:104C3000108072B6FEE700BF40F20070C2F20000C2
:104C4000FEF732F920B1EFF3108072B6FEE700BF35
:104C500040F2007013A9C2F200000024CDE9134411
:104C60001594FDF70DFB28B1EFF3108072B600BF6D
:104C7000FEE700BF60200CA9CDE90C0440F20070F3
:104C80001022C2F200000E94CDE91044FDF77CFF23
:104C900020B1EFF3108072B6FEE700BF00244FF49E
:104CA0000050CDE906044FF0007001A9CDE90904D8
:104CB00040F200700594C2F200000894CDE903446C
:104CC000CDE901440B94FDF78BFA28B1EFF3108086
:104CD00072B600BFFEE700BF40F20070C2F20000F3
:104CE000FDF7AAFB40F29870A9F57841C2F20000E6
:104CF0004FF4E1350C260160C0E90154C0E90344DA
:104D0000C0E90564C0E907444462FEF7C9F928B167
:104D1000EFF3108072B600BFFEE700BF40F6200040
:104D2000A9F5E031C2F20000C0E900150021C0E998
:104D30000211C0E90416C0E90611C0E90811FEF726
:104D4000AFF928B1EFF3108072B600BFFEE700BFE5
:104D500040F2BC104FF0A041C2F2000001260160F9
:104D6000062101714FF40071C1804FF48171C0F8C8
:104D70000910C681FCF738F920B1EFF3108072B644
:104D8000FEE700BF40F28004A9F56841C2F20004CA
:104D900000252046049540F8041F012180F820508A
:104DA000C0F60071C0E90A1580F830504FF4803128
:104DB000C0E90115C0E90356C0E905650326C661CF
:104DC000FBF76EFC20B1EFF3108072B6FEE700BF78
:104DD000012001A9CDE90205251D01962846FBF712
:104DE00083FB18B1EFF3108072B6FEE70220029049
:104DF00001A92846FBF778FB20B1EFF3108072B6CB
:104E0000FEE700BF0320029001A92846FBF76CFBD8
:104E100020B1EFF3108072B6FEE700BF40F29C6055
:104E2000A9F5E831C2F200004FF4706201604FF45E
:104E30008271416000218160C0E9032141614FF42A
:104E4000007282612022C0E90721C0E9091107220E
:104E5000C0E90B2108214163FDF7DEF820B1EFF333
:104E6000108072B6FEE700BF00F0AAF9FBF70CFB5A
:104E70000A2084ED000AFBF7F3FCF7E700000000CE
:104E800080B52DED068B40F26010B0EE408AC2F284
:104E900000009FED6B9B90ED002A32EE011AB7EEF9
:104EA000C11AB0EE410BB0EE491B00F07DFAB7EE2F
:104EB000C00BB1EE482AB7EEC01AB5EE400AF1EECB
:104EC00010FAB7EEC2AA31EE091BB7EEC11BB8BF8C
:104ED000B0EE410AB7EEC09AB0EE490B00F0E4FA2A
:104EE00020EE0A0BB7EEC88AB7EEC0ABB0EE490BA6
:104EF00000F002FA20EE080B40F20C00C2F20000B3
:104F0000B6EE002A9FED505B90ED003A40F27C0037
:104F1000B7EEC01BC2F20000B7EECA0ADFED4C3A92
:104F200023EE022A40F2CC01B7EEC14AC2F20001E0
:104F3000B0EE406B342232EE0A7AC4F20002A4EEE4
:104F4000050B94EE056BB5EE407AB7EEC24A90EDD4
:104F5000005AB6EE001B40F27800C5FE472AC2F2A6
:104F60000000B0EE448BF1EE10FAB8BFF0EE632A09
:104F700006EE018B82EE836AF7EE002A00EE414BCB
:104F800090ED001A86FE626AF7EEC85BB8EEC11AB1
:104F900086FE230AB7EEC44BF5EE405AF1EE10FA46
:104FA00020EE010A85FE651AB5EE404A85FE445A98
:104FB000B8BFB0EE631AF1EE10FAB8BFB0EE635AA4
:104FC000B8FE400A85EE035A37EE426A35EEC27AE1
:104FD00081ED086A34EE422A81ED097A81ED0A2AD0
:104FE00085FE622ABCEEC00A82ED000A81EE031A39
:104FF00082FE230A90ED002AB8EEC22A81FE621AD0
:1050000020EE020AB8FE400ABCEEC00A82ED020A97
:1050100081FE230A90ED001AB8EEC11A20EE010AB3
:10502000B8FE400ABCEEC00A82ED030A106848616F
:10503000D06888619068C861BDEC068B80BD00BFF8
:10504000182D4454FB211940AA4C58E87AB6FB3F6E
:10505000000000000000000070B52DED028B40F252
:10506000CC0442F22221C2F20004C0F22221606884
:10507000451C4EF6EF60CEF6EE60656068434FEA81
:10508000F000884202D9BDEC028B70BD206940F669
:10509000A806281AC2F2000600EE100A96ED002AB1
:1050A0009FED2B8BB8EE401AB0EE000AA1EE002A5D
:1050B000BCEEC11A84ED031AB0EE481BB7EEC20A6B
:1050C00000F072F940F2100040F27401B7EEC01B1C
:1050D000C2F20000C2F2000100680968B7EEC10A1E
:1050E000B5EE401A484330EE080B02EE100A40F2CB
:1050F0006010C2F20000B7EEC00BB8EEC22AF1EEAB
:1051000010FAB8BFB0EE401A90ED000A92EE010A14
:1051100086ED001AB0EE481BB7EEC00A00F044F965
:10512000B7EEC01BB7EEC10AB5EE401AF1EE10FAA9
:1051300030EE080BB7EEC00BB8BFB0EE401AB1EEC0
:10514000040AFFF79DFE2561BDEC028B70BD00BF18
:10515000182D4454FB21194010B540F2F80445F2D3
:105160000041C2F20004C4F200012046012240F8CE
:10517000101F44F26871C2F2400141600021816059
:10518000C0E90321C0E90511C0E90711FBF7B0FC34
:1051900008B1FBF771F9103400212046FBF75CFCE5
:1051A00008B1FBF769F900212046FBF77DFC0028D8
:1051B00008BF10BDBDE81040FBF75EB9000000005D
:1051C00010B58EB040F24C700021C2F200000D917B
:1051D000CDE90B11CDE90811CDE90611CDE9041196
:1051E000CDE90211CDE900114FF080428160C0E9A4
:1051F000002140F65F12C0E9032180218161FDF7A3
:10520000A7F808B1FBF738F94FF480500A9040F244
:105210004C700AA9C2F20000FDF76AF908B1FBF769
:105220002BF940F24C70C2F20000FDF779FC08B196
:10523000FBF722F940F24C7007A9C2F200000024EB
:1052400007940994FDF71CF808B1FBF715F96020E5
:105250006946CDE9000440F24C700022C2F2000021
:1052600002940494FDF710FB08B1FBF705F940F236
:105270004C706946C2F200000822FDF705FB08B138
:10528000FBF7FAF840F24C706946C2F200000C22BB
:10529000FDF7FAFA08B1FBF7EFF840F24C74C2F2EE
:1052A00000042046FDF7B0FA00212046FDF734FE49
:1052B00008212046FDF730FE0C212046FDF72CFE8C
:1052C0000EB010BD03B401984100009850EAC1200F
:1052D00018BF04204A0D18BF40F0010040F2FF72D1
:1052E000B2EB515F08BF40F00200012808BF052063
:1052F00002B070470000000010B529499FED261B41
:105300002DED020B84B0059820F000408842D8BFF4
:105310009DED040B2DDD2349884209D1049840B945
:105320004FF0010000F0B0FB00F086FB06B010BDAE
:1053300005DB9DED040B30EE000B06B010BD68469A
:105340009DED040B00F008F910F0030004BF9DED83
:10535000021B9DED000B0CD001280ED09DED021B11
:105360009DED000B022810D0012000F015FB06B0C7
:1053700010BD00F075FA06B010BD9DED021B9DED4D
:10538000000B012000F008FB01E000F069FAB1EE2B
:10539000400B06B010BD000000000000000000003F
:1053A000FB21E93F0000F07F10B52DED040B86B026
:1053B0009DED060B10EE101A10EE900A8DED000B0D
:1053C000002918BF0121084320F00040C0F17F6090
:1053D00000F1E040C00F21D19DED080B10EE101A36
:1053E00010EE900A8DED000B002918BF0121084333
:1053F00020F00040C0F17F6000F1E040C00F0DD10F
:1054000027490798B1EB400F04BF069800283ED00B
:105410000998400004BF0898002838D09DED080B7B
:1054200053EC102B9DED060B51EC100BFAF762FFBD
:10543000CDE902019DED020B40F2FF7110EE900AE2
:105440008DED000B31EA10501DD00798039900F044
:10545000004001F00041884215D09DED080B8DED14
:10546000040B9DED020B8DED000B10EE900A0599DB
:1054700061F31E0005909DED040B9DED021B31EEC6
:10548000400B8DED020B9DED020B0AB010BD01200B
:1054900000F0FAFA0AB0BDE8104000F0CDBA000002
:1054A0000000E0FF0000000010B529499FED261B19
:1054B0002DED020B84B0059820F000408842DCBF3F
:1054C00000209DED040B2EDD2249884209D104986D
:1054D00040B94FF0010000F0D7FA00F0ADFA06B085
:1054E00010BD05DB9DED040B30EE000B06B010BDCA
:1054F00068469DED040B00F02FF810F003000DD06E
:10550000012814D09DED021B9DED000B022816D042
:1055100000F0A6F9B1EE400B06B010BD9DED021BE8
:105520009DED000B012000F037FA06B010BD9DED97
:10553000021B9DED000B00F093F906B010BD012099
:1055400000F02AFAE6E7000000000000000000007A
:10555000FB21E93F0000F07F2DE9F14F04462DEDDE
:10556000020B2DED048B94B09FED9D0B80ED020B93
:10557000199E9D4826F0004585420ADC9DED180BDA
:10558000002084ED000B14B0BDEC048B03B0BDE82B
:10559000F08F96489FED969B9FED978BA84225DD57
:1055A00097489FED991B9FED9A2B9DED180B002EB0
:1055B0000DDD30EE490B854212BF30EE480B30EE68
:1055C000410B30EE420B84ED000B0120DBE730EEA7
:1055D000090B854212BF30EE080B30EE010B30EEA6
:1055E000020B84ED000B4FF0FF30CCE78A48A84255
:1055F00053DB9DED180B51EC100B00F04BFA41EC16
:10560000100BB0EE401B9FED862BB6EE000B01EEAB
:10561000020BFDEEC00B10EE903A00EE903AB8EEA1
:10562000E02BB0EE410B02EE490B22EE081BDFF837
:10563000F8C1290D0120FC4430EE411B84ED001B14
:1056400003281DD011EE902A00EB4015113DC2F346
:105650000A528A1A954213DAB0EE403B0CEB001264
:1056600092ED000B20EE021B33EE410B33EE403B7C
:1056700033EE411B92ED023B12EE031B401CDBE7B5
:10568000002EA8BF1846BFF67EAF94ED000BB1EE1A
:10569000400B84ED000B584275E7C6F3130040F44D
:1056A000801EC6F30A50A0F2F530471100F01F0526
:1056B000C5F12000DDF860B013900020089009903B
:1056C00005200DF1080C5949002D07EB0002794423
:1056D00008BF51F8221009D051F8223001EB8201A5
:1056E000AB404A68139922FA01F11943A1FB0E2637
:1056F000A1FB0B131A449A4234BF0123002303EB8E
:1057000006080CEB8003D3E901A60E448E4234BF99
:105710000121002192448A4411B1924502D903E04B
:10572000924501D2012100E00021C3E901A64144D4
:105730004CF82010011EA0F10100C4DC04989DED7E
:10574000050A00F10050810F0498DDED060A800083
:105750009DED072A01EE100AB8EEC13BB8EE401BE2
:105760009FED334B21EE041BB8EE600B9FED324BE7
:1057700020EE040BB8EE422B9FED314B22EE042BB2
:1057800030EE024B34EE014B34EE034B8DED004B0B
:10579000002000909DED004B34EE433B33EE411B67
:1057A00031EE400B32EE401B9DED000B9FED262BA2
:1057B00020EE020B9FED262B01EE020B9DED001B50
:1057C0009FED252B01EE020B199810F0004F1CBF26
:1057D0004942B1EE400B84ED000B0846D3E60000D1
:1057E0000000000000000000FB21E93F7CD90240DE
:1057F00000004054FB21F93F3163621A61B4D03D8F
:10580000FB21F93F000000000000601A61B4D03DA8
:105810007370032E8A19A33BFB213941000000005D
:1058200083C8C96D305FE43FA60400003E04000059
:10583000000000000000103E000000000000103CCE
:10584000000000000000103A3326A611460B113C60
:10585000182D4454FB21F93D00000054FB21F93D73
:1058600010B52DED040B2DED048B82B0B0EE419BF5
:10587000079820F00044B4F1795F0FDA9DED060B34
:10588000BDEEC00B10EE100A002801BFB7EE000BF2
:1058900002B0BDEC048B04B008BF10BD9DED060B3B
:1058A00020EE008BB0EE480B1B480621784400F038
:1058B00039F820EE080B28EE000B9DED061B01EEDB
:1058C000490BB6EE001B28EE011B1448B7EE002B67
:1058D0008442BCBF31EE400B32EE400B16DB104869
:1058E000A042BCBFB5EE023B8DED003B06DBA4F54C
:1058F00000100190002000909DED003B31EE431B15
:1059000032EE432B31EE400B32EE400B02B0BDECD9
:10591000048B04B010BD0000000200003333D33FFD
:105920000000E93FB0EE401B491E00EBC10292EDC2
:10593000000B31F006020DD0491E00EBC10292EDC2
:10594000002BB0EE403BB0EE420B03EE010B31F00A
:105950000602F1D1022914D004290AD0062918BF61
:10596000704790ED0A2B00EE012B90ED080B02EE34
:10597000010B90ED062B00EE012B90ED040B02EED7
:10598000010B90ED022B00EE012B90ED000B02EECF
:10599000010B70470000000031B504462DED040BEB
:1059A0002DED068BB0EE419B07989DED060B20F088
:1059B0000040B0F1795F0DDA51EC100BFFF782FC7B
:1059C000042808BF00F044F89DED060BBDEC068BE3
:1059D00005B030BD20EE008B28EE00ABB0EE480BDA
:1059E000114805217844FFF79DFF9FED111B8CB1F5
:1059F000B6EE002B29EE022B0AEE402B18EE029B8E
:105A00000AEE419B9DED060B30EE490BBDEC068B7B
:105A100005B030BD08EE001B9DED060B0AEE010B34
:105A2000BDEC068B05B030BDC801000000000000D1
:105A3000495555555555C5BF9FED031B81EE010BCB
:105A4000704700000000000000000000000000009F
:105A50009FED030B20EE000B7047000000000000DC
:105A6000000000000000001002E008C8121F08C17A
:105A7000002AFAD170477047002001E001C1121FCF
:105A8000002AFBD170470000014908607047000000
:105A90000000002082B0CDE9000121F0004001901B
:105AA0009DED000B02B051EC100B704700000000A0
:105AB0004C5555555555A53F7751C1166CC156BF2C
:105AC0009015CB19A001FA3EAD529C804F7E92BE3C
:105AD000C4B1B4BD9EEE213ED43888BEE9FAA8BD5B
