:020000040800F2
:1000000008150020C9020008014100085134000809
:10001000F9400008110500088156000800000000A2
:100020000000000000000000000000001141000876
:10003000190500080000000009410008E14100081E
:10004000E3020008E3020008E3020008E3020008FC
:10005000E3020008E3020008E3020008E3020008EC
:10006000E3020008E3020008E3020008E3020008DC
:10007000E3020008E3020008E3020008E3020008CC
:10008000E3020008E3020008E3020008E3020008BC
:10009000E3020008E3020008E3020008E3020008AC
:1000A000D1420008F1420008E1420008E3020008E2
:1000B000E3020008E3020008E302000869340008D4
:1000C00059340008E3020008E3020008E3020008D4
:1000D000E3020008E3020008E3020008E30200086C
:1000E000E3020008E3020008E3020008E30200085C
:1000F000E3020008E3020008E3020008E30200084C
:10010000E3020008E3020008E3020008E30200083B
:10011000E3020008E3020008E3020008E30200082B
:10012000E3020008E3020008E3020008E30200081B
:10013000E3020008E3020008E3020008E30200080B
:10014000E3020008E3020008E3020008E3020008FB
:10015000E3020008E3020008E3020008E3020008EB
:10016000E3020008E3020008E3020008E3020008DB
:10017000E3020008E3020008E302000800000000B8
:10018000E3020008E3020008E3020008E3020008BB
:10019000E3020008E3020008E3020008E3020008AB
:1001A000E3020008E3020008E3020008E30200089B
:1001B000E3020008E3020008E3020008E30200088B
:1001C000E3020008E302000800000000E302000868
:1001D000E3020008E3020008E3020008E30200086B
:1001E000E3020008E3020008E3020008E30200085B
:1001F000E3020008E302000800F002F800F054F8FF
:1002000014A696E8000CB244B344DA4501D100F0DC
:100210004BF8BAE80F000FA696E83000A5EB0405EE
:1002200004EB0607AAEB0704A7F101074FEA15152F
:100230004FEA3414A4F10104AC4201D300F034F8C5
:1002400013F0010F18BFFB1A43F0010300F001F88F
:10025000DBE71847E065000000660000103A24BFA5
:1002600078C878C1FAD8520724BF30C830C144BF1B
:1002700004680C60704700007047000000230024F1
:1002800000250026103A28BF78C1FBD8520728BFA6
:1002900030C148BF0B6070471FB506F091FA00F0FF
:1002A000D5F81FBD10B510BD00F0FAF81146FFF7E4
:1002B000F3FF05F025FA00F018F903B4FFF7F2FF99
:1002C00003BC00F01BF900000948804709480047BB
:1002D000FEE7FEE7FEE7FEE7FEE7FEE7FEE7FEE7F6
:1002E000FEE7FEE704480549054A064B7047000053
:1002F000B9420008F901000808090020081500208B
:10030000080D0020080D002053EA020C00F069805F
:100310002DE9F04B4FF00006002B1FBFB3FA83F519
:1003200003FA05F424FA05F65E4012BF1643B2FA4A
:1003300082F502FA05F4C5F120051EBF22FA05FC7C
:1003400044EA0C04203556EA044C4FEA144418BF22
:10035000641C4FF000084FF00009904271EB030C51
:1003600039D3002919BFB1FA81F701FA07F6B0FABB
:1003700080F700FA07F6C7F120071EBF20FA07FC36
:1003800046EA0C062037B6FBF4FCA7EB0507103F46
:1003900007F01F0BCBF120062CFA06F60CFA0BFB2C
:1003A00044BFB3460026202FA4BF5E464FF0000B8B
:1003B0005BEA060C08BF4FF0010B19EB0B0948EB89
:1003C0000608ABFB027C06FB02CC0BFB03CCC01B7C
:1003D00071EB0C01C1E70B46024641464846BDE8B9
:1003E000F08B13B5084318BF4FF0FF300146AFF351
:1003F0000080BDE81C4070474FF0000200B5134676
:1004000094469646203922BFA0E80C50A0E80C5034
:10041000B1F12001BFF4F7AF090728BFA0E80C50E5
:1004200048BF0CC05DF804EB890028BF40F8042BDE
:1004300008BF704748BF20F8022B11F0804F18BF4B
:1004400000F8012B704770477047704708487CB52B
:100450007844009007487844009C0546019004E0E9
:100460002046016808448047241DAC42F8D17CBD79
:1004700000640000FE63000010B500F009F8006899
:1004800010BD10B5044600F003F8046010BD000074
:1004900000487047180000200048704718000020EE
:1004A0007546FFF7F9FFAE4605006946534620F052
:1004B0000700854618B020B5FFF714FFBDE82040BF
:1004C0004FF000064FF000074FF000084FF0000B10
:1004D000AC46ACE8C009ACE8C009ACE8C009ACE87F
:1004E000C00921F007018D46704710B50446AFF3EF
:1004F00000802046BDE81040FFF7DFBE014918200C
:10050000ABBEFEE7260002007047000000000000BE
:10051000FEE700000000000070470000000000003F
:10052000EFF3108072B600BFFEE70000000000008D
:10053000B0B581B00022009290F83C20012A03D18E
:100540000221084601B0B0BDD1F800E001221FFA37
:100550008EFC80F83C204FEA4C02BEF10A0F12FAE2
:100560008EF319D3BEF1004F16D002681E3B07244C
:100570009C40D56825EA04041225C1F20005D46028
:10058000AE458D68D46821D144EA0563D3604968DB
:10059000062911D921E000BF026807249C40156993
:1005A00025EA040414618C6804FA03F314692343F4
:1005B00013614968062910D801EB81011F23053911
:1005C00003FA01F4134653F8345F1AE005FA03F313
:1005D0002343D36049680629EED90C2901EB810138
:1005E00008D823391F2303FA01F4134653F8305F68
:1005F00007E000BF41391F2303FA01F4134653F803
:100600002C5F0CFA01F142F2043CC4F2010C25EA21
:1006100004041C60ACF541741D68A24241EA050166
:10062000196058D1BEF1004F06D1DCF8001021F45A
:100630004001CCF800104EE0BEF1110F12D0122193
:10064000C1F200018E450DD0BEF1120F43D1DCF88E
:10065000001021F40001CCF80010DCF8001041F487
:100660008001E6E7DCF8001021F48001CCF80010EE
:100670001221C1F200018E45DCF8001041F40001A6
:10068000CCF8001027D140F210014DF68362C2F27F
:100690000001C4F21B320968A1FB0212910C01EBAC
:1006A0008101490002E000BF0099013900910099E1
:1006B00089B1009901390091009961B1009901391E
:1006C0000091009900291FBF0099013900910099FC
:1006D00018BF0029E8D1002180F83C10084601B07D
:1006E000B0BD000000000000002843D010B5044653
:1006F000006C002840D0206CC00647D4206C41F22A
:100700000211884342F20431C4F201010230206434
:10071000086820F4403008600A68D4F810E094E8D3
:1007200009101A430A604168012321F48071416075
:100730004168C0F6007341EA0E214160416821F032
:1007400040714160416841EA0C014160816821F4D7
:1007500000618160E168826811438160A16A8268FA
:1007600022F0706282609942826815D122F0405175
:100770001BE000BF01207047204600F065F8002014
:10078000606484F83C00206CC006B7D501200021CD
:1007900084F83C1010BD00BF11438160816821F0D6
:1007A00040518160E16A826811438160816821F073
:1007B00002018160A169826842EA4101816094F886
:1007C00020100029416811D041F400614160416866
:1007D0004EF2000221F460414160616ACFF6FF727F
:1007E00002EB41314268114302E000BF21F4006195
:1007F00041600023C16ACFF6F07321F47001C16239
:10080000E169626903EB0151C36A1943C1628168FE
:1008100021F40071816094F83010836843EA41212B
:100820008160816821F480618160816841EA822170
:10083000816000206064216C012262F30101216467
:10084000002184F83C1010BD80B586B042F2000152
:100850000068C4F20101002288420592049201D08E
:1008600006B080BD43F63000C4F20200436943F491
:1008700080734361436903F480730093009B0368B2
:1008800043F001030360006800F00100009000984D
:10089000382001900320CDE9020201F5604001A952
:1008A00000F02EF806B080BD90F83510022909D16D
:1008B000052180F835100068016821F00101016010
:1008C0000020704780214165012070470000000032
:1008D00090F8350070470000B0B5044600F0F0F81D
:1008E00040F200010546C2F20001621C097818BFFF
:1008F0000C4400BF00F0E4F8401BA042FAD3B0BDA6
:100900002DE9F04F82B000F13E4342F2004603F180
:10091000FF738705C4F202060A22B04247EA932712
:1009200008BF0922092F4FF0000E38BF3A460124B4
:1009300000270026009206E001360237102E0EF145
:10094000040E00F0AF8004FA06FB0D6815EA0B08F0
:10095000F2D0D1F804A003220AF0030CBA40ACF1A3
:1009600001056FEA0209012D10D88268CD6802EAFC
:100970000902BD402A438260CAF30015426822EA98
:100980000B02B5402A43426006E000BFBCF1030FF2
:1009900002D14FF0030C22E0C2688D6802EA09021E
:1009A000BD40BCF1020F42EA0502C26017D16FF0F0
:1009B00003020EF01C0302EA56020F25024405FA58
:1009C00003FAD2F820C00D692CEA0A0C05FA03F3E9
:1009D00043EA0C031362D1F804A00AF0030C026886
:1009E0000CFA07F302EA09021AF4403F42EA030252
:1009F0000260A1D043F6440343F60049C4F2020367
:100A0000C4F201094FF6084A0F241A68CFF6FF7A9C
:100A100042F480421A601A6826F0030302F480420E
:100A2000019209EB0302019B0EF00C0352F80AC07D
:100A300004FA03F5009C2CEA050504FA03F32B43A2
:100A400042F80A30D9F808C04B684CEA0805DA02C7
:100A500058BF2CEA080543F60C4C9C02C4F2010C6A
:100A6000C9F80850DCF8002042EA080558BF22EA1D
:100A700008059C034FF00104CCF80050D9F804207D
:100A800042EA080558BF22EA0805DB03C9F804500A
:100A9000D9F8002042EA080558BF22EA0805C9F83B
:100AA000005049E702B0BDE8F08F000000000000F0
:100AB000002A08BF0904816170470000000000009F
:100AC00040F60010C2F2000000687047000000000D
:100AD00090F84120202A03D190F84020012A01D12A
:100AE00002207047242280F841200268136823F016
:100AF00001031360136823F48053136013681943D0
:100B00001160116841F001011160202180F841104D
:100B1000002180F8401008467047000000000000E7
:100B200090F84120202A03D190F84020012A01D1D9
:100B300002207047242280F841200268136823F0C5
:100B400001031360136823F4706343EA0121116009
:100B5000116841F001011160202180F8411000214D
:100B600080F8401008467047704700000000000001
:100B70007047000000000000D0F800C0DCF818301A
:100B8000DCF80020D90502F0800208D53AB1416CAA
:100B900041F0010141644FF48071CCF81C105905FB
:100BA00008D53AB1416C41F0080141644FF48061CD
:100BB000CCF81C10990508D53AB1416C41F00201FE
:100BC00041644FF40071CCF81C10416C11F00B0F14
:100BD00008BF704702F0C4BC0268436B002B9169E8
:100BE000126808BF704718477047000000000000F7
:100BF00010B310B5044690F8410028B9002084F8DD
:100C00004000204600F070F9242084F8410094E868
:100C10000910E2680168012A21F00101016023F056
:100C200070610161816821F40041816006D14CF45A
:100C3000004181600CE000BF01207047022A4CF4A3
:100C40000441816004D1416841F4006103E000BFC8
:100C5000416821F40061416004F1100C416841F0E9
:100C6000007141F400414160C16821F40041C1605C
:100C70009CE80E10114341EA0321C160216A41EA58
:100C80000C010160016841F0010101600020606415
:100C9000202184F84110206384F8420010BD000038
:100CA00070470000000000002DE9F04F81B00446BD
:100CB00090F8410020280DD1DDF82880B8F1000F10
:100CC0000CD0DDF82CA0BAF1000F07D094F840004A
:100CD00001280BD1022001B0BDE8F08F4FF4007065
:100CE0006064012001B0BDE8F08F00BF1D461746CB
:100CF0008946012084F84000FFF7E2FE216806469D
:100D00008A69120447D4222084F84100402084F8E4
:100D10004200E8B24FF0000B6FF39F29C4F844B0D3
:100D2000C4F8248049EA0040A4F82AA049F6000A41
:100D3000C4F834B0CFF6004A4A68DDF8308002EAE1
:100D40000A021044324600F50050486020464146F1
:100D500003F086F9A8B9012D206808D0390A81620C
:100D600020464146324603F07BF950B92068F9B27B
:100D700081624021002220464346009603F0BCF8E1
:100D800050B384F840B0012001B0BDE8F08F00BF3F
:100D900088690004B7D519212046324602F0D8FEF2
:100DA00000289ED1FFF78CFE801B21681A28EFD304
:100DB00088690004ECD5606C40F02000606420205D
:100DC00084F84100002084F8420084F840000120AB
:100DD00001B0BDE8F08F00BF608D40F2000BC0F2A3
:100DE000011BB0F5807F09D320680BF5105350F834
:100DF000041F01EA0A0201210DE000BF618D206895
:100E0000CAB250F8043F03EA0A0343EA024242F23C
:100E10000043C0F200231A4301270AF5806542EA25
:100E200009020260218510E0618D20682185C9B228
:100E300050F8042F2A4042EA01414FF0007211435A
:100E400041EA09010160608D80B30421002220463F
:100E50004346009603F050F800287FF442AF206824
:100E6000616A406A0870218D606A01306062481EC4
:100E70002085618D01396185618D0029E3D00004F1
:100E8000E1D18021002220464346009603F034F849
:100E900000287FF426AF608DB0F5807FC4D3206832
:100EA00027855A4650F8041F2940C8E72046414686
:100EB000324603F095F800287FF413AF2068202114
:100EC0004EF60003C161CFF6006342681A404260EB
:100ED00084F84110002084F8420084F8400001B0FA
:100EE000BDE8F08F0000000010B5AAB00021044654
:100EF000CDE92811CDE92611259101A89021FFF710
:100F00007BFA45F600012068C4F20001884235D022
:100F100045F20041C4F20001884260D14FF48040A4
:100F2000019001A800F028FB08B1FFF7F9FA43F699
:100F3000300425A9C4F20204206840F002002060B9
:100F4000206800F00200009000984FF44070259057
:100F50001220269001202790032028900420299019
:100F600040F20040C4F20200FFF7CAFC206940F4DE
:100F700000102061206900F400102EE04FF40040C2
:100F8000019001A800F0F8FA08B1FFF7C9FA43F69A
:100F900030041221C4F20204206840F020002060D6
:100FA000206800F020000090009803202691012185
:100FB000CDE9271040F200412590C4F2020104203F
:100FC000299001F5805025A9FFF79AFC206940F48B
:100FD00080002061206900F48000009000982AB011
:100FE00010BD00000000000070470000000000007D
:100FF000704700000000000040F2000040F60011C1
:10100000C2F20000C2F2000100780A6810440860D1
:10101000704700000000000080B5032000F088F851
:101020000F2000F005F800F027F8002080BD000038
:1010300070B540F2000640F21001C2F20006C2F2A2
:1010400000014FF47A73044632780968B3FBF2F278
:10105000B1FBF2F1084601F067F90F2C4FF00105E2
:1010600008D838B94FF0FF3000222146002500F0A3
:101070002FF87460284670BD82B043F64000C4F279
:101080000200016841F080510160016801F0805167
:1010900001910199416841F480414160406800F448
:1010A00080400090009802B07047000000000000EF
:1010B000002848BF70471C214EF2001300F01F02A9
:1010C00001EAD000CEF2000301219140C1507047E7
:1010D00070B54EF60C5C4FF0FF36CEF2000C00F10E
:1010E000604505F56445DCF80030C3F3022E8EF050
:1010F0000703042B28BF0423BEF1030406FA03F3FD
:1011000021EA030100F00F0338BF0024043B00284C
:10111000634406FA04F048BF03F10C05A14022EA3B
:10112000000008430001287070BD000000000000AE
:101130004EF60C514FF6FF03CEF200010A681A403A
:1011400060F30A2242F0806040F0FD700860704752
:1011500001680122C0F8D824002280F8CC248869D4
:1011600040F000608861486D40F08052002042F0FD
:1011700003024A6570470000002800F02D81F0B599
:1011800081B00446056890F89504002800F0268197
:10119000B5F1A04F4FF0030084F8950400F02C81C6
:1011A000206804F0B1F8D4E90001267CD4E90223D8
:1011B000009603F045FD002840F0088120680021DA
:1011C00004F0AAF8002840F0018194F804E0BEF190
:1011D000000F00F0F280BEF1040F0EF0030C4FF090
:1011E000000241D30EF0FC03A4F19000032101257D
:1011F000CE1E80F8A460A0F8BE608E1E80F8C86085
:101200004F1CA0F8E2604E1E80F8EC609F42A0F8F0
:10121000066101F1040680F8A55080F8A820C0E915
:101220002B22C0F8B42080F8C95080F8CC20C0E947
:101230003422C0F8D82080F8ED5080F8F020C0E9C2
:101240003D22C0F8FC2080F8115180F81011A0F860
:101250002A11314680F81421C0E94622C0F8202125
:1012600000F19000C4D1F21EBCF1000F2DD002EBB2
:10127000C2000121BCF1010F04EB80034FF000001C
:1012800059751A75DA851876C3E9070058621CD0BB
:10129000531CBCF1020F03EBC30504EB8505697514
:1012A0002B75EB852876C5E9070068620DD0901C88
:1012B000012200EBC00104EB81014A750875C88565
:1012C00000200876C1E907004862BEF1000F74D023
:1012D000BEF1040F4FF0000237D30EF0FC000321E3
:1012E000234600BFCF1E83F854728F1E83F8787296
:1012F0004F1E83F89C724F1C0D1D83F855228742A8
:1013000083F85822C3E99722C3F8642283F879222C
:1013100083F87C22C3E9A022C3F8882283F89D22A7
:1013200083F8A022C3E9A922C3F8AC2283F8C12222
:1013300083F8C012294683F8C422C3E9B222C3F855
:10134000D02203F19003CDD1EA1EBCF1000F34D0BE
:1013500002EBC200BCF1010F04EB80014FF0000072
:1013600081F8550281F8542281F85802C1E99700AA
:10137000C1F8640221D0511CBCF1020F01EBC10382
:1013800004EB830383F8550283F8541283F8580260
:10139000C3E99700C3F864020FD0901C002200EB51
:1013A000C00104EB810181F8552281F8540281F8D3
:1013B0005822C1E99722C1F86422D4E90001277CB0
:1013C000D4E90223009703F04FFDC8B1022084F84E
:1013D0009504012001B0F0BD01207047002084F881
:1013E0009404204600F020F8B5F1A04F4FF0030020
:1013F00084F895047FF4D4AE0020A071D0E600BF3D
:1014000000206074012084F89504207B012802D11B
:101410002046FFF79DFE206803F016FD002001B076
:10142000F0BD000000000000F0B5ABB002A904461A
:10143000081D8C21FEF7E0FF2068B0F1A04F01D01D
:101440002BB0F0BD4FF400100290602007900120F7
:101450000A900C904FF00060219002A80224CDE980
:10146000084400F089F808B1FFF75AF843F630064F
:1014700026ADC4F2020629460027306840F001007C
:101480003060306800F00100269026984FF4E85054
:10149000CDE9260400240320C4F2020429900A2086
:1014A0002A9020462897FFF72BFA4FF40070294620
:1014B000CDE9260720462897FFF722FA706840F00A
:1014C00080007060706800F0800001900198706981
:1014D00040F480407061706900F480400090009892
:1014E0002BB0F0BD00000000B0B582B043F6400064
:1014F00047F20005C4F20200C4F20005016841F0A1
:1015000080510160006800F08050019001982868C7
:1015100040F480302860FFF7D3FA04466868C003BF
:1015200006D4FFF7CDFA001BB0F57A7FF6D910E0AC
:10153000286840F400302860FFF7C2FA044600BF74
:101540006868800308D4FFF7BBFA001BB0F57A7F08
:10155000F6D9032002B0B0BD002002B0B0BD00003B
:1015600047F20000C4F20000016841F4807101609C
:1015700070470000000000002DE9F04782B0D0F86D
:1015800000A043F6900604465FEACA70C4F2020661
:101590001AD14FF000095FEA0A3028D556F8040C3A
:1015A000E16B20F44010B1F5801F40EA010046F8DD
:1015B000040CB1FA81F04FEA501808BF4FF001094E
:1015C0005FEACA2018D429E056F8880C20F40000FD
:1015D00046F8880C606B56F8881C014346F8881C56
:1015E000B0FA80F04FEA50195FEA0A30D6D44FF0D3
:1015F00000085FEACA2011D556F8040C216C20F4CB
:101600004000B1F5800F40EA010008BF4FF001092A
:10161000002908BF4FF0010846F8040C5FEA8A6011
:1016200057465CD556F8500C47F2000740F0805002
:1016300046F8500CC4F2000756F8500C00F08050E9
:1016400001900198386840F480703860FFF738FAEC
:10165000054600BF3868C00506D4FFF731FA401BC5
:101660006428F7D962E200BF56F8200C10F44070ED
:101670001BD0216B01F44071884216D056F8200C23
:1016800056F8201C41F4803146F8201C56F8201CE6
:1016900020F4407021F4803146F8201C46F8200CDC
:1016A00056F8200CC00740F0C3814FF6FF4327686F
:1016B000206B56F8882CC0F6FF7300F4407122F4BA
:1016C000F81203406FF31F30B1F5407F08BF1A4393
:1016D00046F8882C56F8201C084346F8200CF806DB
:1016E00032D478043ED4380444D4F8034AD4B8033E
:1016F00050D4780656D438065CD4F80562D4B805C0
:1017000068D478056ED4380575D4F8047CD4B80450
:1017100000F18380780200F18980B80200F18F80A7
:10172000780300F19B80380200F1A180780100F17C
:10173000A880380100F1AF80F80000F1B8805FEABE
:10174000CA1040F1C080CDE056F8040C20F0807043
:1017500046F8040CA06B56F8041C084346F8040C29
:101760007804C0D53068616E20F4403008433060A2
:101770003804BAD53068A16E20F4402008433060A8
:10178000F803B4D53068E16E20F4401008433060AF
:10179000B803AED53068216F20F4400008433060B4
:1017A0007806A8D53068616C20F0030008433060EB
:1017B0003806A2D53068A16C20F00C0008433060D8
:1017C000F8059CD53068E16C20F0300008433060AB
:1017D000B80596D53068216D20F0C0000843306010
:1017E000780590D53068616D20F440700843306012
:1017F00038057FF58AAF3068A16D20F4406008435A
:101800003060F8047FF583AF3068E16D20F440501C
:1018100008433060B8047FF57DAF3068216E20F456
:1018200040400843306078027FF577AF3068A16FA1
:1018300020F0806008433060B8027FF571AF3068F7
:10184000E16F20F00060B1F1006F40EA010008BFD5
:101850004FF00108306078037FF565AF3068616F45
:1018600020F040700843306038027FF55FAF306889
:10187000D4F8801020F080500843306078017FF564
:1018800058AF3068D4F8841020F00050084330601E
:1018900038017FF551AF56F8040CD4F8881020F0C9
:1018A0000070084346F8040CF8007FF548AF56F87E
:1018B000040CD4F88C1020F08060084346F8040C27
:1018C0005FEACA100ED4B9F1000F08BF17F000701C
:1018D00008D138071AD4B8F1000F17D1002002B090
:1018E000BDE8F08756F8900C20F0806046F8900C28
:1018F000FFF7E6F8054600BF56F8900C000119D531
:10190000FFF7DEF8401B6428F6D90FE156F8900C7B
:1019100020F0805046F8900CFFF7D2F8054600BF43
:1019200056F8900C800015D5FFF7CAF8401B6428C4
:10193000F6D9FBE02068C10703D0616B002900F0F5
:101940008B80010340F19C80E16BB1F5801F40F07A
:1019500097809BE02068010301D5E16B19B1C102BA
:101960001ED5216CE1B956F8081C56F8082C01F474
:10197000403102F0E042D4E905371144A26A41EA5D
:1019800083116FF0FF0341EA076146F8081C56F81F
:10199000041C03EB022221F4F851114346F8041C05
:1019A000810214D5E16FB1F1006F10D156F8081C17
:1019B00056F8082C01F0706102F0E0426369276A72
:1019C000114441EA831141EA074146F8081C000727
:1019D00018D556F8080C56F8081C00F0706001F491
:1019E000403162690844E16940EA8210E36A40EAF2
:1019F000017046F8080C56F8040C20F440301843E7
:101A000046F8040C56F8900C40F0805046F8900CC4
:101A1000FFF756F8044600BF56F8900C80003FF5DB
:101A20005DAFFFF74DF8001B6528F5D37EE000BFE2
:101A3000FFF746F8054641F2883700BF56F8200CFC
:101A400080073FF532AEFFF73BF8401BB8424FF03E
:101A50000300F3D96BE000BF56F80C1C56F80C2CB1
:101A600001F4403102F07062D4E90135114441EAD9
:101A7000831141EA057146F80C1C01033FF564AF80
:101A8000C1021DD5216CB1F5800F19D156F80C1C7F
:101A900056F80C2C01F4403102F0E0426368114426
:101AA000E26841EA8311656A41EA026146F80C1C6A
:101AB00056F8041C6A1E21F01F01114346F8041C4D
:101AC000C10110D556F80C1C56F80C2C01F07061B1
:101AD00002F0E04263682569114441EA831141EA5A
:101AE000054146F80C1C80010CD56068A368D4E958
:101AF0000321090441EA801040EA026040EA0370D1
:101B000046F80C0C56F8900C40F0806046F8900CAB
:101B1000FEF7D6FF054600BF56F8900C00013FF5D2
:101B2000D8AEFEF7CDFF401B6428F5D9032002B0E4
:101B3000BDE8F08700000000002871D02DE9F041D9
:101B400043F608080446C4F202080D46D8F8F80324
:101B500000F00F0088420CD2D8F8F80320F00F00F4
:101B60002843C8F8F803D8F8F80300F00F00A8429B
:101B700070D12068810717D5410705D5D8F8001026
:101B800041F4E051C8F80010010705D5D8F800105D
:101B900041F46041C8F80010D8F80010A26821F0A4
:101BA000F0011143C8F80010C0073BD1D8F8F80382
:101BB00000F00F00A8420CD9D8F8F80320F00F006D
:101BC0002843C8F8F803D8F8F80300F00F00A8423B
:101BD00040D12068410707D5D8F80010E26821F409
:101BE000E0511143C8F80010000708D5D8F80000EC
:101BF000216920F4604040EAC100C8F80000D8F82C
:101C0000000000F00C0142F200400829C0F2F4008C
:101C100040D0042960D141F20020C0F27A005BE09C
:101C2000012070476068022808D001280ED158F8BA
:101C3000081C890312D40120BDE8F08158F8081C63
:101C400089010BD40120BDE8F08100BF58F8081CC1
:101C5000890703D40120BDE8F08100BFD8F8001047
:101C600021F003010843C8F80000FEF729FF0646EB
:101C700041F28837D8F80000616800F00C00B0EB42
:101C8000810F93D0FEF71CFF801BB842F2D90320CE
:101C9000BDE8F08158F8041C58F8043C58F8047C5E
:101CA00001F03F025902C7F3881105D4A1FB0001DE
:101CB0000023FEF729FB06E041F20020C0F27A0083
:101CC0004843B0FBF2F058F8041C0222C1F3014172
:101CD00002EB4101B0FBF1F0D8F8001046F2FC72C3
:101CE000C0F60002C1F30311515C40F20402C2F2DB
:101CF0000002C84040F21001C2F200010860106802
:101D0000FFF796F90020BDE8F08100000000000018
:101D100040F2100043F60801C2F20000C4F20201D2
:101D200046F60C0200680968C0F60002C1F3822181
:101D3000515CC8407047000040F2100043F60801B3
:101D4000C2F20000C4F2020146F60C020068096803
:101D5000C0F60002C1F34231515CC8407047000038
:101D600010B543F60404C4F20204606800F00C01EC
:101D700042F200400829C0F2F40007D0042918BF3D
:101D800010BD41F20020C0F27A0010BD2268236825
:101D9000216802F03F025B02C1F3881106D4A1FB67
:101DA00000010023FEF7B0FA07E000BF41F2002077
:101DB000C0F27A004843B0FBF2F021680222C1F37E
:101DC000014102EB4101B0FBF1F010BD0000000049
:101DD00000284FD02DE9F04182B00446007843F648
:101DE0000006C007C4F202060CD0B06800F00C0078
:101DF000042840F081803068800303D560680028A3
:101E000000F03881207880071BD5B06810F00C0FE7
:101E100009D0B06800F00C00082840F08B80706892
:101E2000400200F187803068800703D5E068012810
:101E300040F020813068216920F0F80040EAC100BC
:101E400030602078000717D4207840072CD4A5698B
:101E5000002D00F00B81B06800F00C00082840F065
:101E6000A780012D706840F0D980012002B0BDE844
:101E7000F08100BF0120704760690028706F00F09A
:101E8000838040F001007067FEF71AFE054600BF30
:101E9000706F8007D8D4FEF713FE401B0228F7D9D5
:101EA000032002B0BDE8F081306C5FEAC00808D4BE
:101EB000306C40F080503064306C00F08050019005
:101EC000019847F20007C4F200073868C00549D4FA
:101ED000386840F480703860FEF7F2FD054600BFB8
:101EE0003868C0053ED4FEF7EBFD401B6428F7D9E7
:101EF000032002B0BDE8F081B06800F00C000828B3
:101F000003D1706840023FF576AF6068002800F0AA
:101F1000F380B0F5A02F00F00781B0F5803F00F00E
:101F20000781306820F480303060306820F48020F1
:101F300001E100BFE068002830685BD040F001009C
:101F40003060FEF7BDFD0546306880073FF572AF93
:101F5000FEF7B6FD401B0228F6D9032002B0BDE80B
:101F6000F08100BFA068002800F08880052800F0FC
:101F70009F80012800F0A080306F20F001003067C2
:101F8000306F20F004009AE020F001007067FEF747
:101F900097FD0546706F80077FF556AFFEF790FD01
:101FA000401B0228F6D9032002B0BDE8F08100BF33
:101FB000306820F080703060FEF782FD022D05460B
:101FC0000CD100BF3068800140F1C880FEF778FD79
:101FD000401B02284FF00300F4D91CE03068800158
:101FE00044D5FEF76DFD401B02284FF00300F5D9E4
:101FF00011E000BF20F001003060FEF761FD0546F2
:10200000306880077FF51DAFFEF75AFD401B0228A0
:102010004FF00300F4D902B0BDE8F08100F4800174
:10202000E269914226D100F03F01226A914221D11A
:1020300047F6C071626A0140B1EB821F1AD1A16AF2
:102040004FF6FF72C903914300F44032A1F580318D
:102050008A420FD1E16A00F07062B2EB016F09D1E0
:10206000216B00F0E040B0EB017F03D1002002B013
:10207000BDE8F081012002B0BDE8F081306F20F0B2
:1020800001003067306F20F004003067FEF718FD64
:10209000054641F2883700BF306F800722D5FEF732
:1020A0000FFD401BB8424FF00300F5D9B3E700BF66
:1020B000306F40F004003067306F40F0010030674F
:1020C000FEF7FEFC054641F2883700BF306F8007FF
:1020D00008D4FEF7F5FC401BB842F7D9032002B044
:1020E000BDE8F081B8F1000F3FF5B1AE306C20F0E3
:1020F00080503064ABE600BF306820F48030306040
:10210000306820F480203060FEF7DAFC054600BF1E
:10211000306880037FF576AEFEF7D2FC401B642862
:102120004FF00300F4D976E7306840F48020306047
:10213000306840F480303060FEF7C2FC054600BFD6
:10214000306880033FF55EAEFEF7BAFC401B6428A2
:10215000F6D9032002B0BDE8F08100BF04F11C07EE
:10216000256B8FCF0843D9034FF6FF7340EA8210E7
:10217000994340EA0760A1F58031084340EA0570C1
:102180007060306840F080703060FEF799FC044663
:10219000306880013FF56AAFFEF792FC001B022811
:1021A0004FF00300F4D936E740B1B0B50446406AB9
:1021B00030B10020206104F1140007E001207047D5
:1021C0006068B0F5827F03D004F11C00002101603B
:1021D0000025A56294F85D0020B9204684F85C5083
:1021E00000F052F8022084F85D002068D4F80CE07A
:1021F000BEF5E06F4EF40063026898BF0125B3F5A9
:10220000706F22F040024FEA053C026001D00023CB
:10221000A362D4E90135D4E9042103F4827305F4FF
:1022200004452B4402F002021A4401F0010111445A
:10223000A26902F40073E569194405F038031944F2
:10224000236A03F08003A56A194405F40053194377
:102250000423016003EA12410EF47063626A43EAE8
:102260000C0302F01002656B194305F008031143DB
:1022700019434160C16921F40061C16100202066F9
:10228000012184F85D10B0BD2DE9F04385B043F61F
:1022900000050068C4F20005A84203D005B0BDE8FF
:1022A000F08300BF43F630006C46C4F202004FF0EA
:1022B00002084FF0000903260169052741F4804117
:1022C0000161016901F4804100910099016841F0C8
:1022D00004010160016801F00401009100990168A6
:1022E00041F0080101600068214600F008000090FC
:1022F00000980C20009005F5E830CDF80480CDF86A
:10230000089003960497FEF7FBFA082021468DE813
:10231000010305F5EA30CDE90367FEF7F1FA05B0F0
:10232000BDE8F08300000000411E0020B0EB116FFB
:1023300002D00120704700BF4EF21002F023CEF20F
:10234000000251604EF62351CEF200010B700721BE
:1023500090601160704700007047000000000000AE
:1023600070470000000000007047000000000000FF
:1023700090F83C20012A01D102207047B0B5CB680B
:1023800048F2FF7ED1E901C223F47C5322F470525B
:10239000CFF6F07E1A430CEA0E03D1F800C042EAF1
:1023A000030E2CF477230A6943EA0E0322F4762203
:1023B000D0F800E01A434B691A438B6A22F4742C5C
:1023C00023F470238A6940F200454EF48064C4F21D
:1023D000010543EA0C03AC4243EA02430FD1002556
:1023E00023F07C724B6ACFF6F045CC6905EA0353C3
:1023F0001A4324F00073096A1A4342EA0103CEF833
:102400004430002180F83C10BDE8B04008467047D9
:1024100090F83C20012A4FF002025ED0B0B580F85F
:102420003D2040F2004C0268C4F2010C42F480638B
:1024300063455368D2F808E002BF23F470034C6888
:10244000234341F2FF740D68C4F2000423F07003CB
:10245000A24243EA050353600CDC40F2FF73C4F26E
:1024600000039A4216DCB2F1804F29D040F20043BB
:1024700018E000BF40F2FF33C4F201039A4217DCB8
:1024800041F60003C4F200039A4219D00023C4F2BB
:10249000010309E040F60003C4F200039A420FD0A2
:1024A00040F60043C4F200039A4209D00DE000BF99
:1024B00044F20003C4F201039A4201D0624504D100
:1024C0002EF080038968194391600022012180F871
:1024D0003D1080F83C20BDE8B04010467047000039
:1024E00060B310B5044690F83D0028B9002084F888
:1024F0003C00204600F024F8022084F83D002068CB
:10250000211D01F0FDFE012084F8480084F83E0002
:1025100084F83F0084F8400084F8410084F84200C9
:1025200084F8430084F8440084F8450084F84600A9
:1025300084F8470084F83D00002010BD012070475A
:1025400080B582B00068B0F1804F2DD00021C4F278
:102550000101884235D143F640000022C4F2020056
:10256000416841F0010141604068002100F0010034
:10257000019001981820FEF7ABFD1820FEF798FD9A
:10258000192000210022FEF7A3FD1920FEF790FD7F
:102590001A2000210022FEF79BFD1A2002B0BDE8A0
:1025A0008040FEF785BD00BF43F64000C4F2020044
:1025B000016841F001010160006800F00100009035
:1025C000009802B080BD000090F83D1001291BD199
:1025D000022180F83D10016841F2FF70C4F2000052
:1025E0008142C86840F00100C8600FDC40F2FF7013
:1025F000C4F20000814217DCB1F1804F2CD040F2D0
:102600000040C4F2000025E00120704740F2FF3096
:10261000C4F20100814213DC41F60000C4F2000064
:10262000814219D0002013E040F60000C4F20000FF
:10263000814211D040F60040C4F200000AE000BF21
:1026400044F20000C4F20100814205D040F2004093
:10265000C4F2010081420BD107228868C0F2010256
:1026600002400020062A18BFB2F5803F00D1704713
:10267000086840F00100086000207047000000007A
:1026800090F83C20012A4FF002026CD080B580F80F
:102690003D208822D0F800C0CFF6FE72DCF808306A
:1026A0001A40CCF808200B684F2B29DC1F2B45DD86
:1026B000202B18BF302B44D0402B40F0AF80D1F8F6
:1026C00004E0C968DCF82030DCF8202022F00102A8
:1026D000CCF82020DCF8182022F0F00242EA0111A8
:1026E00023F00A02CCF8181042EA0E01CCF82010B0
:1026F000DCF8081041F0470121F0300128E000BF6C
:102700006F2B33DDB3F5005F54D0B3F5805F21D07C
:10271000702B40F08380D1E901E3C968DCF8082020
:1027200043EA0E0322F47F4243EA01211143CCF82D
:102730000810DCF8081041F0770109E00BB1102B0C
:102740006CD1DCF8081021F07001194341F0070149
:10275000CCF808100022012180F83D10002180F8FB
:102760003C10BDE880401046704700BF502B35D06C
:10277000602B53D1D1F804E0C968DCF82030DCF8D4
:10278000202022F01002CCF82020DCF8182022F4BF
:10279000704242EA013123F0A002CCF8181042EA5C
:1027A0000E11CCF82010DCF8081041F0670121F080
:1027B0001001CDE7D1E901E3C968DCF8082043EA5C
:1027C0000E0322F47F4243EA01211143CCF80810A2
:1027D000DCF8081041F48041BAE700BFD1F804E00A
:1027E000C968DCF82030DCF8202022F00102CCF8A7
:1027F0002020DCF8182022F0F00242EA011123F038
:102800000A02CCF8181042EA0E01CCF82010DCF8CD
:10281000081041F0570121F0200199E701229AE7C1
:102820007047000000000000F0B581B00446006869
:10283000C5680669B10717D515F0020114D06FF00D
:1028400002010161012121778069800704D02046BF
:10285000FFF7E6FF06E000BF204600F025FA20461D
:1028600000F01EFC00202077700719D515F0040039
:1028700016D020686FF00401016102212177806980
:1028800010F4407F04D02046FFF7CAFF06E000BFE7
:10289000204600F009FA204600F002FC00202077D4
:1028A000300717D515F0080014D020686FF0080124
:1028B000016104212177C069800703D02046FFF71A
:1028C000AFFF05E0204600F0EFF9204600F0E8FBFE
:1028D00000202077F00619D515F0100016D02068DA
:1028E0006FF01001016108212177C06910F4407F69
:1028F00004D02046FFF794FF06E000BF204600F01A
:10290000D3F9204600F0CCFB00202077F00718BF59
:1029100015F0010006D020686FF00101016120462A
:1029200000F07EFC05F0800716F4025F18BF002F50
:1029300002D1F00509D410E020686FF40251016162
:102940002046FFF70DFDF00507D537B120686FF47D
:10295000807101612046FFF7FFFC700609D515F074
:10296000400006D020686FF040010161204600F071
:10297000AFFCB0060CD515F0200009D020686FF030
:1029800020010161204601B0BDE8F040FFF7ECBC3A
:1029900001B0F0BD000000000068B0F1804F18BF2A
:1029A00070472DE9F04186B043F630000024C4F2B0
:1029B0000200C4F2020401AD012601684FF00208D2
:1029C00041F0010101600168002701F0010101915E
:1029D0000199016841F0020101600068294600F098
:1029E00002000190019820460196CDF80880CDE9BB
:1029F00003770596FDF784FF4FF440602946CDE943
:102A0000010804F580600596CDE90377FDF778FFAE
:102A100006B0BDE8F041704790F83C30012B01D181
:102A2000022070474FEAB202052A00F20181F0B598
:102A3000DFE812F006003A007200AA00D400040198
:102A4000026842F48064136A156A23F0020325F0D9
:102A500001051562D2F804E0D2F818C08E6840F281
:102A60000045C4F201053343AC4201BFCE6823F0F8
:102A70000C0326F004063343AC420C6801BF2EF46D
:102A80004076D1E9055E35434EEA050E4FF68C756A
:102A9000CFF6FE75C2F804E00CEA050626439661FF
:102AA000496851631362F4E0026840F2004542F461
:102AB0008064C4F20105136AAC42166A23F0200355
:102AC00026F010061662D2F804E0D2F818C08E681C
:102AD00043EA061307D1CE686FF0400723F0C00326
:102AE00007EA06163343AC420C6801BFD1E905562C
:102AF00035432EF4406747EA850E48F6FF45CFF68A
:102B0000FF65C2F804E00CEA050747EA042797616D
:102B1000496891631362BCE0026840F2004542F4E8
:102B20008064C4F20105136AAC42176A23F400738F
:102B300027F480771762D2F804E0D2F81CC08E68C0
:102B400043EA062307D1CE6840F2FF47360223F45A
:102B50004063BE433343AC420C6801BFD1E9055624
:102B600035432EF4405747EA051E4FF68C75CFF6D5
:102B7000FE75C2F804E00CEA05072743D7614968EF
:102B8000D163136285E000BF026840F2004642F460
:102B90008067C4F20106D2F820C0B742136A2CF451
:102BA000005723F4805313625368D469D1F800E0CE
:102BB0008D6802BF4E6923F4804343EA861348F6CA
:102BC000FF4647EA0537CFF6FF665360264046EAE0
:102BD0000E23D361496811645AE000BF026840F2D5
:102BE000004642F48067C4F20106D2F820C0B74222
:102BF000136A2CF4003723F4803313625368556D45
:102C0000D1F800E08C6802BF4E6923F4803343EAB8
:102C100006234FF68C7647EA0447CFF6FE765360DC
:102C200003362E4046EA0E035365496891652FE04E
:102C30000121002280F83C2008467047026840F2DB
:102C4000004642F48067C4F20106D2F820C0B742C1
:102C5000136A2CF4001723F4801313625368556D24
:102C6000D1F800E08C6802BF4E6923F4802343EA68
:102C7000862348F6FF4647EA0457CFF6FF665360BF
:102C800006F540762E4046EA0E2353654968D16525
:102C900017620021BDE8F040002280F83C20084681
:102CA00070470000000000007047000000000000B6
:102CB00060B310B5044690F83D0028B9002084F8B0
:102CC0003C00204600F024F8022084F83D002068F3
:102CD000211D01F015FB012084F8480084F83E0016
:102CE00084F83F0084F8400084F8410084F84200F2
:102CF00084F8430084F8440084F8450084F84600D2
:102D000084F8470084F83D00002010BD0120704782
:102D1000704700000000000090F83C30012B01D10A
:102D2000022070474FEAB202052A00F23B812DE9EA
:102D3000F041DFE812F0070047008900CB000101F5
:102D40003D0100BF036840F2004643F48065C4F2D1
:102D500001061C6AB5421A6A24F0020422F001023C
:102D60001A621A46D3F804C052F818EF8F6844EA82
:102D7000070401BFCF6824F00C0427F004073C438C
:102D8000B5420D6801BF2CF44077D1E9056C3E4394
:102D90004CEA060C4FF68C76CFF6FE76C3F804C0EC
:102DA0000EEA06072F439F614F6809695F631C6243
:102DB0009F6947F008079F619F6927F004079F619B
:102DC0002DE100BF036840F2004643F48065C4F281
:102DD00001061C6AB5421A6A24F0200422F010028F
:102DE0001A621A46D3F804C052F818EF8F6844EA02
:102DF000071407D1CF686FF0400824F0C00408EA38
:102E000007173C43B5420D6801BFD1E905673E4352
:102E10002CF4406747EA860C48F6FF46CFF6FF667B
:102E2000C3F804C00EEA060747EA05279F614F680A
:102E300009699F631C629F6947F400679F619F69EE
:102E400027F480679F61E9E0036840F2004643F49D
:102E50008065C4F201061C6AB5421A6A24F4007443
:102E600022F480721A621A46D3F804C052F81CEF9A
:102E70008F6844EA072408D1CF6840F2FF483F0238
:102E800024F4406427EA08073C43B5420D6801BFBB
:102E9000D1E905673E432CF4405747EA061C4FF63C
:102EA0008C76CFF6FE76C3F804C00EEA06072F43F1
:102EB000DF614F680969DF631C62DF6947F008075B
:102EC000DF61DF6927F00407DF61A8E0036840F2F3
:102ED000004543F48067C4F20105D3F820C0AF4237
:102EE0001A6A22F480521A621A465C6852F81C6F01
:102EF0000D68D1F808E002BF4F6924F4804444EA29
:102F0000871448F6FF47CFF6FF675C603E402CF41D
:102F1000005746EA0524DC614E6809691E6447EAE9
:102F20000E371F62DF6947F40067DF61DF6927F44E
:102F30008067DF6172E000BF036840F2004543F440
:102F40008067C4F20105D3F820C0AF421A6A22F4A8
:102F500080321A621A465C6852F8546F0D68D1F8D4
:102F600008E002BF4F6924F4803444EA07244FF696
:102F70008C77CFF6FE775C6003373E402CF4003749
:102F800046EA05045C654E6809699E6547EA0E4796
:102F90001F625F6D47F008075F655F6D27F00407EC
:102FA0005F653CE00121002280F83C200846704724
:102FB000036840F2004543F48067C4F20105D3F88A
:102FC00020C0AF421A6A22F480121A621A465C6864
:102FD00052F8546F0D68D1F808E002BF4F6924F42D
:102FE000802444EA872448F6FF47CFF6FF675C60F9
:102FF00007F540773E402CF4001746EA05245C654F
:103000004E680969DE6547EA0E571F625F6D47F437
:1030100000675F655F6D27F480675F65090213686D
:10302000194311600021BDE8F041002280F83C20E6
:10303000084670470000000060B310B5044690F8E1
:103040003D0028B9002084F83C00204600F024F818
:10305000022084F83D002068211D01F051F9012073
:1030600084F8480084F83E0084F83F0084F840006B
:1030700084F8410084F8420084F8430084F8440056
:1030800084F8450084F8460084F8470084F83D0041
:10309000002010BD012070477047000000000000B4
:1030A000704700000000000081B10A1F8B0743EA4F
:1030B0009202032A30D8DFE802F00311192900BF79
:1030C00000F13F031B78012B15D00CE090F83E2057
:1030D000012A08D1022280F83E2032E000F14003AC
:1030E0001B78012B07D00120704700BF00F141037E
:1030F0001B78012BF7D1032A14D8DFE802F003175D
:103100001B1F00BF022280F83F201AE000F142039B
:103110001B78012BE7D1EEE700F143031B78012B6D
:10312000E9D0E0E7022280F843200AE0022280F89A
:10313000402006E0022280F8412002E0022280F8CE
:103140004220026801F01F00012101FA00F0116A1B
:103150008143116241F2FF71C4F200018A42116A97
:1031600040EA010010620FDC40F2FF70C4F2000080
:1031700082421BDCB2F1804F3ED040F20040C4F2EC
:103180000000824238D043E040F2FF30C4F2010038
:10319000824219DC41F60000C4F2000082422BD0CA
:1031A0000020C4F2010082421AD031E040F6000053
:1031B000C4F2000082421FD040F60040C4F200007A
:1031C000824219D024E000BF44F20000C4F20100A2
:1031D000824211D040F20040C4F20100824217D175
:1031E00040F2004142F48060C4F20101536C884215
:1031F00043F4004050640BD107219068C0F20101F4
:1032000001400020062918BFB1F5803F00D170476A
:10321000106840F0010010600020704700000000BE
:1032200080B52DED048B02F047FAB0EE001AB9EE2E
:10323000088A31EE400A9FED221A20EE010A9FED26
:10324000211A20EE010A9FED201A80EE010AB4EE49
:10325000480AF1EE10FA08DBB1EE088AB4EE480A2B
:10326000F1EE10FA01DCB0EE408A02F041FAB1EE64
:103270000C1A9FED119B20EE010AB0EE491BB7EE30
:10328000C00A02F097FFB7EEC01BB7EEC10AB5EE59
:10329000401AF1EE10FA30EE090BB7EEC00BB8BFD2
:1032A000B0EE401AB0EE480ABDEC048BBDE8804099
:1032B00002F01EBD00BF00BF182D4454FB21194071
:1032C0002731083E00003443DB0F49400000000076
:1032D000704700000000000010B5C8B10446C06F80
:1032E00028B9002084F87800204600F025F8242032
:1032F000E0672068616A0029026822F0010101602C
:1033000002D0204601F0A4F8204601F0CDF908B122
:10331000012010BD2068416821F49041416081681E
:1033200021F02A018160016841F00101016020461D
:10333000BDE8104001F0FCB82DE9F041AAB0002131
:103340000446CDE92811CDE92611259101A8902147
:10335000FDF752F844F600012068C4F200018842EB
:103360003ED041F20001C4F2010188426CD101A8B3
:103370004FF04008CDF80480FEF7FEF808B1FDF7E5
:10338000CFF843F6300040F20044C4F20200C4F229
:103390000204022600274169032541F01001416122
:1033A000416901F0100100910099016841F00201AA
:1033B0000160006825A900F00200009000984FF419
:1033C000004025900420299020462696279728958E
:1033D000FDF796FACDE92586CDE927752EE000BFE9
:1033E0004FF48070019001A8FEF7C6F808B1FDF710
:1033F00097F843F63000C4F20200016941F48021DD
:103400000161016901F4802100910099016841F096
:103410000801016040F200410068C4F2020100F0BE
:103420000800009001F5006400984FF4407025906A
:103430000220269000202790032028900720299022
:1034400025A92046FDF75CFA2AB0BDE8F08100000E
:10345000FEE700000000000040F26C10C2F2000025
:10346000FDF78ABB0000000040F26C10C2F20000C1
:10347000FDF7B2BB00000000806B816B00291CBF10
:1034800000220A65C16B00291CBF00220A6590F862
:103490004110602908D1202180F8411000210163EA
:1034A00080F84010FDF760BB0021016380F84010F8
:1034B000FDF79ABB0000000010B590F841100368BA
:1034C00001F0280128291FD19969D3F818E0C1F328
:1034D00000419A68D3F80CC0C468022C4FEA1E4E13
:1034E00018D18EEAD21414F0060F21D00CF0FE028F
:1034F0001C6824F0B8041C60002380F84030BDE84C
:103500001040FDF735BB00BF0821D961002180F8CC
:10351000401010BD1A6822F0B8021A600EF0FE02C8
:10352000002380F84030BDE81040FDF721BB00BF0C
:10353000846C01348464846C022C18BF10BD6FF35A
:103540009F224FF0000CC0F848C00824DC6180F8CE
:1035500040C0BDE81040FDF70BBB000000000000BC
:1035600010B50446002390F84100002284F8422060
:10357000CFF6FF73E3626285626C11436164A0F170
:10358000280194F8410002291ED894F8411000F057
:103590002800F222282801F028004FF0B40308BFC9
:1035A0004222282808BF0423216843EA02000A684F
:1035B00022EA00000860282084F8410043F6B14068
:1035C000C0F6000031E000BF94F8410021680868AF
:1035D00020F0FE0008608869800707D48869C0076A
:1035E00009D094F8410060280DD11DE000208862C8
:1035F0008869C007F5D1886940F00100886194F8B6
:103600004100602810D0202084F84100886980069D
:103610000AD58869C00605D51020C861606C40F0E5
:10362000040060642020C86100206063226BA06BEE
:1036300000B3212A18BF112A1CD10A68520403D5ED
:103640000A6822F480420A60FDF742F9012822D07C
:10365000A06B43F27941C0F600010165002184F8B6
:103660004010FDF721F9002844D0A06B016DBDE8A2
:1036700010400847E06B70B1222A18BF122A0AD105
:103680000A68120403D50A6822F400420A60FDF7B2
:103690001FF901281AD194F8410060280CD120208C
:1036A00084F841000020206384F840002046BDE8F3
:1036B0001040FDF759BA00BF0020206384F8400095
:1036C0002046BDE81040FDF78FBA00BFE06B43F223
:1036D0007941C0F600010165002184F84010FDF732
:1036E000E3F8002808BF10BDE06B016DBDE8104095
:1036F000084700BF10BD000070B5036804460E46C1
:1037000020211A68D0F82CC090F84150D96105F0FA
:10371000F700212806D0222808D122206FF0FC01D2
:103720000BE000BF6FF0FA0107E000BF282D0AD1BF
:1037300094F8410000206FF0FE0194F841501D689C
:1037400029401960206358684EF6000140F400409B
:1037500058605868CFF60061084058609869800743
:103760000ED49869C00710D0500414D410041BD58F
:10377000186820F400401860E06B90B914E000BFB6
:10378000002098629869C007EED1986940F0010066
:1037900098615004EAD5186820F480401860A06B46
:1037A00010B100684068608570070ED5586A616A7C
:1037B00026F004060870208D616A0131616220B133
:1037C00001382085608D01386085608D18B1606C8E
:1037D00040F004006064F00640F1B68012F0100082
:1037E00000F0B280608D88B120681021C1616FF057
:1037F00080701CEA000F606C40F00400606440F0D0
:10380000A380616C2046FFF7ABFE9DE094F8410079
:10381000282808BFBCF1007F26D094F84100216819
:1038200029284FF01000C86140F08E800020CFF6AC
:10383000FF70844500F088808869800701D50020EA
:1038400088628869C00703D1886940F001008861F7
:10385000086842044FF0000284F8422036D4000485
:1038600039D56FF4004033E000202021CFF6FF70FF
:10387000E0620020206384F84110710784F8420060
:10388000606311D52168626A496A1170218D626A8C
:103890000132626241B101392185618D0139618551
:1038A000616C41F00401616494F8411094F8411096
:1038B00021680A6822F0FE020A601022CA6184F8B8
:1038C00040002046FDF7ECF93EE000BF6FF4804079
:1038D0000A681040086094F84100292818D128206F
:1038E00084F841002120206394F841006FF0F20237
:1038F00000F02800282808BF6FF042020868104036
:103900000860002084F840002046FDF771FB1BE0B2
:1039100094F841002A2817D1282084F84100222059
:10392000206394F841006FF0F40200F0280028288A
:1039300008BF6FF04402086810400860002084F857
:1039400040002046FDF750FB002084F842006063F1
:10395000606CD8B3616C2046FFF702FE94F841001A
:10396000282818BF70BD00202021CFF6FF70E0622C
:103970000020206384F84110710784F842006063DE
:1039800011D52168626A496A1170218D626A01321B
:10399000626241B101392185618D01396185616CB6
:1039A00041F00401616494F8411094F841102168D9
:1039B0000A6822F0FE020A601022CA6184F8400000
:1039C0002046BDE87040FDF76BB900BFE06A10F516
:1039D000803F0FD194F84100202184F8411000214C
:1039E00022282046216384F8401013D1BDE870409E
:1039F000FDF7FABA20680025CFF6FF7501684A0482
:103A00004FF0000284F8422008D409040BD56FF46B
:103A1000004105E0BDE87040FDF7EABA6FF480416F
:103A200002681140016094F84110292918D1282119
:103A300084F841102121216394F841106FF0F202C3
:103A400001F02801282908BF6FF0420201681140E7
:103A50000160002084F840002046FDF7C9FA1BE011
:103A600094F841102A2917D1282184F841102221E5
:103A7000216394F841106FF0F40201F02801282925
:103A800008BF6FF04402016811400160002084F813
:103A900040002046FDF7A8FAE562202084F84100A6
:103AA0000020206384F840002046BDE87040FDF708
:103AB000F7B800000000000001680A6853044FF0E6
:103AC000000380F8423005D4120408D56FF4004298
:103AD00002E000BF6FF480420B681A400A6090F861
:103AE0004120292A16D1282280F841202122026370
:103AF00090F841206FF0F20302F02802282A08BF54
:103B00006FF042030A681A400A60002180F84010F2
:103B1000FDF76EBA90F841202A2A18BF7047282274
:103B200080F841202222026390F841206FF0F403D4
:103B300002F02802282A08BF6FF044030A681A40DE
:103B40000A60002180F84010FDF74EBA0000000026
:103B500070B5044600688369DB0603D400210022A7
:103B600069E000BF0E461021C161816989065ED4FB
:103B7000711C52D0154636BBFCF7A2FF2068426884
:103B800094F8421083691B040CD512F4804209D1C9
:103B9000202907D0416841F480414160FCF790FF43
:103BA000054600BF20688169890605D4FCF788FFB7
:103BB000401B1A28F6D328E081698906DCD536E057
:103BC0008169890633D4FCF77BFF401BB042206833
:103BD000F6D9426894F8421083691B040CD512F49C
:103BE000804209D1202907D0416841F480414160D9
:103BF000FCF766FF054600BF206881698906DFD4AF
:103C0000FCF75EFF401B1A28F6D320680122816969
:103C1000242110E08169890609D48169890606D4C6
:103C2000816989065CBF81695FEA8161F2D52021E3
:103C3000C161012204218369DE0505D541F001013E
:103C40004FF48072C26101225E0505D49B050AD43F
:103C500072B9002070BD00BF41F008019A054FF411
:103C60008062C26104D541F002014FF40072C2616A
:103C70008269920701D5002282628269D20703D14C
:103C8000826942F0010282614EF600034268CFF67B
:103C900000631A404260606C08436064202084F82E
:103CA0004100002084F8420084F84000012070BDEB
:103CB00010B50446C06A94F84030012B02D10220AE
:103CC00010BD00BF0A4093064FF0010384F8403056
:103CD0001CD4D30622D4510736D411077CD49107C3
:103CE00017D5618D002900F0F980606A216810F80D
:103CF000012B8A626062608D01386085208D0138F9
:103D00002085002084F8400010BD00BF2046FFF74A
:103D1000F3FC002084F8400010BD00BF628DBAB3F0
:103D200021681022CA616FF080710842606C40F017
:103D300004006064EDD1616C2046FFF711FC0020A7
:103D400084F8400010BD00BF618D61B12168626AD6
:103D5000496A1170228D616A01316162511E2185AB
:103D6000618D01396185618D0029D2D10021CFF6A5
:103D7000FF718842CDD0206801684A044FF00002EC
:103D800084F8422030D4090433D56FF400412DE08B
:103D900094F84120282A40F20002CFF6FF7208BFB3
:103DA000B0F1007F46D094F841302168292B4FF0C4
:103DB0001003CB61ADD19042ABD08869800701D5AB
:103DC000002088628869C00740F08D80886940F0D3
:103DD0000100886187E000BF2046FFF76DFB0020EF
:103DE00084F8400010BD00BF6FF4804102681140AC
:103DF000016094F8411029294ED1282184F84110FE
:103E00002121216394F841106FF0F20201F02801A2
:103E1000282908BF6FF042020168114001600020AC
:103E200084F840002046FDF7E3F8002084F84000C5
:103E300010BD00BF00204907E2624FF0200220635E
:103E400084F8412084F84200606311D52168626AD9
:103E5000496A1170218D626A0132626241B1013991
:103E60002185618D01396185616C41F004016164D6
:103E700094F8411094F8411021680A6822F0FE027B
:103E80000A601022CA6184F840002046FCF708FF4F
:103E9000002084F8400010BD94F841102A297FF4D6
:103EA00038AF282184F841102221216394F8411071
:103EB0006FF0F40201F02801282908BF6FF04402D6
:103EC000016811400160002084F840002046FDF7A1
:103ED0008BF8002084F8400010BD00BF6FF08071A7
:103EE00008427FF416AF2046FFF7E6FD002084F875
:103EF000400010BD000000002DE9F04104460068BC
:103F000080690840401AB0FA80F04009904221D1FF
:103F10000D4616461F46581CDDF8188027D0CFBB2B
:103F2000002120464246FFF713FE002853D1FCF73C
:103F3000C7FD206881692940491BB1FA81F149090F
:103F4000B1423CD080692840401BB0FA80F0400963
:103F5000B042E5D00020BDE8F08100BF2068806954
:103F60002840401BB0FA80F04009B042F2D14FF037
:103F7000FF3120464246FFF7EBFD0028EED001203E
:103F8000BDE8F08180692840401BB0FA80F040090C
:103F9000B042DFD1204639464246FFF7D9FDD0B9BD
:103FA000FCF78EFDA0EB0800B8422068EAD98169D1
:103FB0002940491BB1FA81F14909B142E2D1606C53
:103FC00040F020006064202084F84100002084F844
:103FD000420084F840000120BDE8F08100000000AC
:103FE00070B5044600688069800635D415460E46D3
:103FF00019B928E0806980062ED4204631462A4629
:10400000FFF7A6FD30BBFCF75BFD401BB04220680C
:10401000F0D981698906EDD4606C40F020006064BD
:10402000202084F84100002084F8420084F84000F9
:10403000012070BDFCF744FD206881698906EBD53D
:104040008069800608D4002120462A46FFF780FDBB
:104050000028EFD0012070BD002070BD00000000DE
:1040600070B5044600688069800714D415460E4672
:10407000481C17D01EBB00BF002120462A46FFF770
:1040800067FDB8BBFCF71CFD20688169890725D551
:1040900080698007F0D5002070BD00BF206880696E
:1040A0008007F8D44FF0FF3120462A46FFF750FD35
:1040B0000028F3D0012070BD80698007EBD4204632
:1040C00031462A46FFF744FDA0B9FCF7F9FC401B36
:1040D000B0422068F0D981698907EDD4606C40F066
:1040E00020006064202084F84100002084F8420011
:1040F00084F84000012070BDFEE7000000000000D1
:10410000FEE7000000000000704700000000000013
:10411000704700000000000010B52DED048B84B046
:104120000020ADF80E000DF10E000090022001906D
:1041300040F26C106C21C2F200000C2201234FF4FB
:10414000FA7402940124FCF7AFFDBDF80E009FED58
:10415000208BC0BA00EE100A9FED1F1BB8EEC00BFB
:1041600020EE080B20EE010BB7EEC09B01F0B0FE75
:1041700040F27801C2F2000191ED040A886039EE44
:10418000400A0868BDEEC01A11EE102A44EAA27374
:104190005A43062A08DBB5EE400AF1EE10FAC8BF12
:1041A0004FF0FF342044086000EE100AB7EEC91A41
:1041B00081ED049AB8EEC00BA0EE081BB7EEC10B60
:1041C00081ED050A04B0BDEC048B10BD00BF00BF3B
:1041D000EA2E4454FB211940000000000000303F4B
:1041E00080B5FCF709FFBDE8804001F065BE000026
:1041F00080B594B000200690CDE90B00CDE9090010
:10420000CDE90400CDE90200FDF7AAF943F640002C
:10421000D822C4F20200016841F0805101600068B8
:1042200000F08050019047F200000199C4F20000B4
:10423000016841F44041016000684FF4800100F4DE
:10424000404001900198012007904FF4A020089071
:1042500002200D900E910421CDE91020CDE912101D
:1042600007A80F91FDF7B4FD20B1EFF3108072B6EF
:10427000FEE700BFFDF738F920B1EFF3108072B60A
:10428000FEE700BF0F200290022003900020049060
:104290004FF4A05005904FF48050069002A80721DB
:1042A000FDF74AFC20B1EFF3108072B6FEE700BFC5
:1042B00014B080BD000000004EF68850CEF2000021
:1042C000016841F4700101607047000000000000C7
:1042D00040F25870C2F20000FEF7A6BA00000000DB
:1042E00040F25870C2F20000FEF79EBA00000000D3
:1042F00040F25870C2F20000FEF796BA00000000CB
:1043000010B540F6FF3E40F2004CC4F2000E0368C8
:104310007045C4F2010C27DCB0F1804F2CD040F284
:104320000042C4F20002904226D040F60002C4F2DD
:104330000002904220D041F6FF72C4F20002904287
:1043400024DC704536DCB0F1804F59D040F2004299
:10435000C4F20002904253D040F60002C4F20002C0
:1043600090424DD050E000BF40F60042C4F200023F
:10437000904218BF604563D123F070024B6813432D
:1043800041F6FF72C4F200029042DADD43F6FF729A
:10439000C4F20102904221DC42F20002C4F20002A7
:1043A00090422DD00022C4F20102904228D06045F4
:1043B00026D029E040F60042C4F2000290421FD00D
:1043C00041F60002C4F20002904219D041F60042C8
:1043D000C4F20002904213D016E000BF44F2000283
:1043E000C4F2010290420BD044F60002C4F2010272
:1043F000904205D044F20042C4F20102904203D13F
:1044000023F44072CB68134323F080024B69D1F848
:1044100000E01A438C68026040F48062C462C0F815
:1044200028E0624504BF0969016301214161016916
:10443000C90708BF10BD016921F00101016110BD6C
:104440000022C4F20102904296D074E700000000FE
:10445000416A0A070CD4CA0715D18A071ED44A0735
:1044600027D4CA0630D48A0639D44A0642D454E046
:104470000268D0F834C0536823F4004343EA0C03C5
:104480005360CA07E9D00268D0F828C0536823F403
:10449000003343EA0C0353608A07E0D50268D0F882
:1044A0002CC0536823F4803343EA0C0353604A075B
:1044B000D7D50268D0F830C0536823F4802343EA8C
:1044C0000C035360CA06CED50268D0F838C0936892
:1044D00023F4805343EA0C0393608A06C5D502682F
:1044E000D0F83CC0936823F4005343EA0C03936074
:1044F0004A0612D50268D0F840C05368BCF5801F48
:1045000023F4801343EA0C03536006D1536823F469
:10451000C00C436C43EA0C035360090658BF704754
:104520000168806C4A6822F400221043486070479A
:10453000B0B582B004460020C4F88400FCF7C0FA8D
:10454000216805460A68120737D54FF4001100228A
:104550006FF07E40009020462B4600F0C5F958B31E
:10456000206850E8000F216820F0800041E8000238
:10457000F2B1206850E8000F216820F0800041E887
:104580000002002A1FBF206850E8000F216820F0B9
:1045900080001CBF41E80002002A09D0206850E8D2
:1045A000000F216820F0800041E80002002AD7D1E6
:1045B0002020E06763E000BF21680868400765D5F8
:1045C0004FF4800100226FF07E40009020462B4681
:1045D00000F08AF9002859D0206850E8000F2168BF
:1045E00020F4907041E80002F2B1206850E8000F1A
:1045F000216820F4907041E80002002A1FBF206863
:1046000050E8000F216820F490701CBF41E80002C0
:10461000002A09D0206850E8000F216820F490702B
:1046200041E80002002AD7D1206850E8020F216833
:1046300020F0010041E80202F2B1206850E8020FC8
:10464000216820F0010041E80202002A1FBF206813
:1046500050E8020F216820F001001CBF41E802026F
:10466000002A09D0206850E8020F216820F00100DC
:1046700041E80202002AD7D12020C4F8800003209C
:10468000002184F8781002B0B0BD00BF2020E067A0
:10469000C4F88000002020666066002184F878104D
:1046A00002B0B0BD0000000070B506460168806829
:1046B00046F6F315D6E9033202437069D6F81CC0FA
:1046C0000C68CEF6FF75104304EA0502104340EA79
:1046D0000C000860486820F4405018434860B069F6
:1046E00047F2FF73326AC4F2000310438A6822F46F
:1046F0003062994240EA02004FF01002886019DCF3
:1047000044F6FF30C4F2000081422DDC44F2004048
:10471000C4F2000081424DD044F60000C4F2000013
:10472000814271D143F69000C4F202000068010991
:1047300056E000BF40F6FF70C4F20100814227DC62
:1047400047F60000C4F2000081423BD047F600402B
:10475000C4F20000814257D143F69000C4F2020037
:104760000068810B3CE000BF44F60040C4F200004A
:1047700081422FD045F20000C4F20000814243D1B3
:1047800043F69000C4F202000068010A28E000BF6E
:1047900041F20040C4F20100814227D041F2000002
:1047A000C4F2010081422FD143F69000C4F202000E
:1047B000016821E043F69000C4F20200006881081D
:1047C0000EE000BF43F69000C4F202000068010B47
:1047D00006E000BF43F69000C4F2020000688109C1
:1047E00046F62402C0F600020AE000BF43F690003D
:1047F000C4F202000068810A46F61402C0F6000204
:1048000001F0030052F8202042F20040BCF5004FB6
:10481000C0F2F4000ED1082A4FF0010139D8DFE8C8
:1048200002F0051923381D3838382100FDF770FAD9
:10483000D0B94AE0082A4FF001012AD8DFE802F097
:10484000062E382932292929360000BFFDF760FAE3
:1048500070BB3AE0FDF770FA30B936E0FDF780FA48
:1048600010B932E04FF4004071684A0802EB400092
:104870004FF6EF72B0FBF1F0A0F11001914207D8B2
:104880004FF6F0710140C0F3420008441BE000BF46
:1048900001210020C6E91A00084670BDFDF74CFA58
:1048A00030B912E0FDF75CFA10B90EE04FF40040A9
:1048B00071684FF6EF7200EB5100B0FBF1F0A0F120
:1048C0001001914208D83168C86000210020C6E973
:1048D0001A00084670BD00BF01210020C6E91A0079
:1048E000084670BD000000002DE9F04180460068D8
:1048F0000D46C7693940491BB1FA81F14909914216
:1049000025D1069C34B31646611C29D1C1692940C2
:10491000491BB1FA81F14909B14218D1C169294055
:10492000491BB1FA81F14909B14201BFC16929406E
:10493000491BB1FA81F104BF4909B14207D1C169EC
:104940002940491BB1FA81F14909B142DED000206A
:10495000BDE8F081FCF7B4F80320BDE8F08100BFAA
:104960001F4607E0C0692840401BB0FA80F04009AC
:10497000B042ECD1FCF7A4F8C01BA04200F2B68014
:10498000D8F8000001684907ECD5402D18BF802DEC
:10499000E8D0C169090700F1AD80C1690905E1D519
:1049A0004FF400610162D8F8000050E8000FD8F819
:1049B000001020F4907041E8000222B3D8F8000003
:1049C00050E8000FD8F8001020F4907041E8000281
:1049D000002A1FBFD8F8000050E8000FD8F80010D8
:1049E00020F490701CBF41E80002002A0BD0D8F8D8
:1049F000000050E8000FD8F8001020F4907041E853
:104A00000002002ACFD1D8F8000050E8020FD8F8F1
:104A1000001020F0010041E8020222B3D8F80000A3
:104A200050E8020FD8F8001020F0010041E802021F
:104A3000002A1FBFD8F8000050E8020FD8F8001075
:104A400020F001001CBF41E80202002A0BD0D8F878
:104A5000000050E8020FD8F8001020F0010041E8F3
:104A60000202002ACFD1D8F8600001282FD1D8F84F
:104A7000000050E8000FD8F8001020F0100041E8C6
:104A8000000222B3D8F8000050E8000FD8F8001058
:104A900020F0100041E80002002A1FBFD8F80000F3
:104AA00050E8000FD8F8001020F010001CBF41E8BB
:104AB0000002002A0BD0D8F8000050E8000FD8F808
:104AC000001020F0100041E80002002ACFD1202081
:104AD000C8F880000021C8F86010C8F86810C8F84D
:104AE0008400032088F87810BDE8F0810320BDE839
:104AF000F08100BF08210162D8F8000050E8000FE3
:104B0000D8F8001020F4907041E8000222B3D8F8E1
:104B1000000050E8000FD8F8001020F4907041E831
:104B20000002002A1FBFD8F8000050E8000FD8F894
:104B3000001020F490701CBF41E80002002A0BD046
:104B4000D8F8000050E8000FD8F8001020F490705A
:104B500041E80002002ACFD1D8F8000050E8020F47
:104B6000D8F8001020F0010041E8020222B3D8F882
:104B7000000050E8020FD8F8001020F0010041E8D2
:104B80000202002A1FBFD8F8000050E8020FD8F830
:104B9000001020F001001CBF41E80202002A0BD0E7
:104BA000D8F8000050E8020FD8F8001020F00100FB
:104BB00041E80202002ACFD1D8F8600001282FD1A5
:104BC000D8F8000050E8000FD8F8001020F01000CE
:104BD00041E8000222B3D8F8000050E8000FD8F8EE
:104BE000001020F0100041E80002002A1FBFD8F892
:104BF000000050E8000FD8F8001020F010001CBF93
:104C000041E80002002A0BD0D8F8000050E8000F5D
:104C1000D8F8001020F0100041E80002002ACFD19F
:104C20002020C8F880000020C8F86000C8F868009C
:104C30000821C8F8841088F878000120BDE8F081C8
:104C400082B002F47F42B2F5807F7DD1836B4FF654
:104C5000BF7223F480338363DDF808C0C368CFF6E6
:104C6000BD721A40C2605FFA8CF2C368012A23F455
:104C70004012C26003D1C26842F48012C2600022B6
:104C80000092009A01320092009AB2F1706F00F225
:104C9000BB800269002A21D4009A01320092009A56
:104CA000B2F1706F00F2B0800269002A16D4009A47
:104CB00001320092009AB2F1706F00F2A580026991
:104CC000002A0BD4009A01320092009AB2F1706F60
:104CD00000F29A800269B2F1FF3FD2DC002200921A
:104CE000026942F001020261009A01320092009AC8
:104CF000B2F1706F00F288800269D2071DD0009A6D
:104D000001320092009AB2F1706F7DD80269D20729
:104D100013D0009A01320092009AB2F1706F73D8EA
:104D20000269D20709D0009A01320092009AB2F1CA
:104D3000706F69D80269D207D6D1002201F47F01D1
:104D4000B1F5803F7AD171E0C26842F04002C260A2
:104D500000220192019A01320192019AB2F1706F20
:104D60005AD80269002A1ED4019A01320192019A8E
:104D7000B2F1706F50D80269002A14D4019A01323E
:104D80000192019AB2F1706F46D80269002A0AD4E2
:104D9000019A01320192019AB2F1706F3CD8026916
:104DA000B2F1FF3FD6DC00220192026942F001021B
:104DB0000261019A01320192019AB2F1706F2BD80F
:104DC0000269D2071DD0019A01320192019AB2F113
:104DD000706F21D80269D20713D0019A0132019273
:104DE000019AB2F1706F17D80269D20709D0019AFF
:104DF00001320192019AB2F1706F0DD80269D207A7
:104E0000D7D1002209E000BF032201F47F01B1F5F0
:104E1000803F13D10AE000BF0322836B43F4803349
:104E2000836301F47F01B1F5803F07D1816841F0D0
:104E300006018160816841F020018160104602B066
:104E400070470000000000000146D0F8000E20F07E
:104E50000300C1F8000E0020D1F8042842F002023D
:104E6000C1F80428704700002DE9F04F85B0C3F366
:104E700007489146B8F1000F8A464FF00007C0F886
:104E80000471C0F80871C0F80C71C0F81071C0F856
:104E90001471C0F81871C0F81C71C0F82071C0F806
:104EA0002471C0F82871C0F82C71C0F83071C0F8B6
:104EB0003471C0F83871C0F83C7105D000F1380287
:104EC0004FF4001310E000BFD0F80428802342F014
:104ED0000202C0F80428826B22F400128263026886
:104EE00042F040020260024617683B4309F47F47E4
:104EF0001360B7F5807F4FF00002C0F8002E07D195
:104F0000B2EB1A6FD0F8002806D042F0010203E09D
:104F1000D0F8002842F00302C0F8002800220392D3
:104F2000039A01320392039AB2F1706F50D802696A
:104F3000002A1ED4039A01320392039AB2F1706FD1
:104F400046D80269002A14D4039A01320392039AC4
:104F5000B2F1706F3CD80269002A0AD4039A013278
:104F60000392039AB2F1706F32D80269B2F1FF3F37
:104F7000D6DC002203924FF484620261039A01326C
:104F80000392039AB2F1706F22D8026992061DD57E
:104F9000039A01320392039AB2F1706F18D8026932
:104FA000920613D5039A01320392039AB2F1706FFD
:104FB0000ED80269920609D5039A01320392039A28
:104FC000B2F1706F04D802699206D7D4002600E0CF
:104FD000012600220492049A01320492049AB2F14A
:104FE000706F4FD80269002A1ED4049A01320492CD
:104FF000049AB2F1706F45D80269002A14D4049A59
:1050000001320492049AB2F1706F3BD80269002A0F
:105010000AD4049A01320492049AB2F1706F31D822
:105020000269B2F1FF3FD6DC002204921022026135
:10503000049A01320492049AB2F1706F22D8026984
:10504000D20620D5049A01320492049AB2F1706F0C
:1050500018D80269D20616D5049A01320492049A2D
:10506000B2F1706F0ED80269D2060CD5049A0132E3
:105070000492049AB2F1706F04D80269D206D7D4B0
:1050800001E000BF01265FFA8AF44FF0000B002C0C
:10509000C0F810B8C0F814B8C0F81CB800F005810A
:1050A000D0F800294FF00065B4F1010E4FF67F31C2
:1050B00005EA1212C0F80029C0F810B9C0F80819A2
:1050C00078D0A21E5146032A0EF0030A029605D29A
:1050D0000122BAF1000F3FD166E000BFCDE900899F
:1050E0002EF0030700F5186600234FF0904C4FF6A2
:1050F0007F38002256F8609C04320CEAE97546F8C5
:10510000605C46F8503C974246F8588C56F8405C34
:105110000CEAE57546F8405C46F8303C46F8388CB9
:1051200056F8205C0CEAE57546F8205C46F8103C21
:1051300046F8188C35680CEAE57535603361C6F8B9
:10514000088006F18006D5D101324FF00065DDE917
:105150000089BAF1000F27D000F51067560107EB60
:1051600042124FF0904CBB59BAF1010F0CEAE373B5
:10517000BB514FF000074FF67F361761966013D092
:10518000136ABAF1020F0CEAE373136217639662B3
:105190000AD0136C4FF0904707EAE37313640023BF
:1051A00013654FF67F339364002C8A46029E4FF6B8
:1051B0007F317AD0D0F8002BBEF1000F05EA121231
:1051C000C0F8002B4FF00002C0F8102BC0F8081BED
:1051D0006BD0A21E0EF0030C032A05D20122BCF1F3
:1051E000000F3BD161E000BF02962EF0030500F5F1
:1051F000386600234FF090474FF67F32002400BFFF
:1052000056F8601C043407EAE17146F8601C46F861
:10521000503CA54246F8582C56F8401C07EAE1716C
:1052200046F8401C46F8303C46F8382C56F8201C0E
:1052300007EAE17146F8201C46F8103C46F8182CA5
:10524000316807EAE17131603361B26006F18006CE
:10525000D6D1621C029EBCF1000F26D000F5306151
:10526000570101EB42123546CE594FF0904303EA05
:10527000E676CE512E460024BCF1010F4FF67F3565
:105280001461956011D0116ABCF1020F03EAE1715B
:1052900011621463956208D0116C03EAE171116424
:1052A000002111654FF67F319164D0F810181AF47F
:1052B0007F0F21F48071C0F81018C0F818B06FF09B
:1052C0008041416103D1816941F01001816143F660
:1052D00000028169C8F23C0219F47F0F41EA020121
:1052E000816103D0816941F008018161B8F1010F4A
:1052F00005D1816941F0804141F00401816130466E
:1053000005B0BDE8F08F000001468268002022F061
:1053100001028A6070470000B0B50446C0680029E9
:1053200020F0C040E06000F09980012940F0B0809A
:10533000E0680A2540F00050E0600A20FBF7CCFA54
:1053400054F8140FC00740F09C800A20FBF7C4FA01
:105350002068C00740F09E800A20FBF7BDFA206855
:10536000C00740F0A5800A20FBF7B6FA2068C00706
:1053700040F0AC800A20FBF7AFFA2068C00740F08D
:10538000B3800A20FBF7A8FA2068C00740F0BA8073
:105390000A20FBF7A1FA2068C00740F0C1800A206C
:1053A000FBF79AFA2068C00740F0C8800A20FBF794
:1053B00093FA2068C00740F0CF800A20FBF78CFAF0
:1053C0002068C00740F0D6800A20FBF785FA2068E5
:1053D000C00740F0DD800A20FBF77EFA2068C00796
:1053E00040F0E4800A20FBF777FA2068C00740F01D
:1053F000EB800A20FBF770FA2068C00740F0F280CB
:105400000A20FBF769FA2068C00740F0F9800A20FB
:10541000FBF762FA2068C00740F000810A20FBF722
:105420005BFA2068C00740F007810A20FBF754FAB6
:105430002068C00740F00E810A20FBF74DFA206873
:10544000C00740F016810A20FBF746FAC8252068FD
:10545000A5F1C800B0FA80F04009B0BDE0680A25A7
:1054600040F08040E0600A20FBF736FA54F8140F51
:10547000C00706D00A20FBF72FFA2068C00711D119
:105480001425A5F1C800B0FA80F04009B0BD00BFF6
:105490000120B0BD1425A5F1C800B0FA80F0400984
:1054A000B0BD00BF0A20FBF717FA2068C00707D17C
:1054B0001E25A5F1C800B0FA80F04009B0BD00BFBC
:1054C0000A20FBF709FA2068C00707D12825A5F1B3
:1054D000C800B0FA80F04009B0BD00BF0A20FBF759
:1054E000FBF92068C00707D13225A5F1C800B0FA42
:1054F00080F04009B0BD00BF0A20FBF7EDF920683D
:10550000C00707D13C25A5F1C800B0FA80F04009DA
:10551000B0BD00BF0A20FBF7DFF92068C00707D144
:105520004625A5F1C800B0FA80F04009B0BD00BF23
:105530000A20FBF7D1F92068C00707D15025A5F153
:10554000C800B0FA80F04009B0BD00BF0A20FBF7E8
:10555000C3F92068C00707D15A25A5F1C800B0FAE1
:1055600080F04009B0BD00BF0A20FBF7B5F9206804
:10557000C00707D16425A5F1C800B0FA80F0400942
:10558000B0BD00BF0A20FBF7A7F92068C00707D10C
:105590006E25A5F1C800B0FA80F04009B0BD00BF8B
:1055A0000A20FBF799F92068C00707D17825A5F1F3
:1055B000C800B0FA80F04009B0BD00BF0A20FBF778
:1055C0008BF92068C00707D18225A5F1C800B0FA81
:1055D00080F04009B0BD00BF0A20FBF77DF92068CC
:1055E000C00707D18C25A5F1C800B0FA80F04009AA
:1055F000B0BD00BF0A20FBF76FF92068C00707D1D4
:105600009625A5F1C800B0FA80F04009B0BD00BFF2
:105610000A20FBF761F92068C00707D1A025A5F192
:10562000C800B0FA80F04009B0BD00BF0A20FBF707
:1056300053F92068C00707D1AA25A5F1C800B0FA20
:1056400080F04009B0BD00BF0A20FBF745F9206893
:10565000C00707D1B425A5F1C800B0FA80F0400911
:10566000B0BD00BF0A20FBF737F92068C0077FF400
:10567000EAAEBE25A5F1C800B0FA80F04009B0BD81
:10568000FEE700000000000040F218109FED020A43
:10569000C2F2000000F004B80AD7233C000000006A
:1056A00010B5044680ED000A0020A06000F010FC58
:1056B0006060204610BD000040F27800C2F2000099
:1056C0009FED092B90ED000AB8EEC00A90ED041A88
:1056D000B7EEC11AB7EEC00AA0EE021BB7EEC10BBF
:1056E000704700BF00BF00BFEA2E4454FB211940A1
:1056F00040F27800C2F2000090ED040A704700000A
:105700009AB041F60009C4F20209FBF785FCFEF7E6
:105710006FFD43F630000024C4F20200A9F5A05644
:10572000CDE904440168002241F0040101600168F0
:1057300001F004010C910C99016841F02001016015
:10574000016801F020010C910C99016841F0800181
:105750000160016801F080010C910C99016841F031
:1057600001010160016801F001010C910C990168CF
:1057700041F002010160016801F002010C910C99F5
:10578000016841F008010160016801F008010C9115
:105790000C99016841F040010160006844F2810108
:1057A00000F040000C900C983046FBF781F9402146
:1057B00000224846FBF77CF9A9F5805701AD4FF46C
:1057C000005001904FF488102946CDE90204384674
:1057D000FBF796F832200190384629464FF0020A2E
:1057E0004FF0030BCDE902A4CDF810B04FF00B0839
:1057F000CDF81480FBF784F886202946CDE9010A0C
:10580000A9F5C050CDF81480CDE9034BFBF778F82B
:1058100044F2810001903046294601270494CDE9E5
:105820000274FBF76DF84FF400502946CDE9010AE8
:105830003046CDF81480CDE9034BFBF761F84020EA
:105840002946CDE901074846CDE90344FBF758F85E
:1058500080202946CDE9010448460394FBF750F81F
:105860004FF420502946CDE9010A484644F26875B4
:10587000CDE9034BCDF81480C2F24005FBF740F8A8
:1058800040F26C10A9F5E231C2F20000C0E9001547
:10589000C0E90247C0E90444C0E906440462FBF7DA
:1058A000A7F928B1EFF3108072B600BFFEE700BF82
:1058B00040F26C100021C2F20000FBF709F928B198
:1058C000EFF3108072B600BFFEE700BF40F26C102D
:1058D0000021C2F200000024FBF722F920B1EFF30F
:1058E000108072B6FEE700BF01A82C211994CDE903
:1058F00017441294CDE91044CDE90E44CDE90C448F
:10590000FAF77AFD40F25870A9F58C31C2F2000026
:105910000160EF21C0E9011440F6B731C0E903147A
:10592000C0E90544FCF7DCFD20B1EFF3108072B64E
:10593000FEE700BF4FF48050169040F2587016A951
:10594000C2F20000FCF79CFE20B1EFF3108072B6AB
:10595000FEE700BF40F25870C2F20000FDF76CFB9A
:1059600020B1EFF3108072B6FEE700BF40F258702E
:1059700013A9C2F200000024CDE913441594FCF7EA
:1059800047FD28B1EFF3108072B600BFFEE700BFFD
:1059900060200CA9CDE90C0440F258701022C2F22C
:1059A00000000E94CDE91044FDF7B6F920B1EFF3F5
:1059B000108072B6FEE700BF00244FF40050CDE91E
:1059C00006044FF0007001A9CDE9090440F25870B7
:1059D0000594C2F200000894CDE90344CDE90144E6
:1059E0000B94FCF7C5FC28B1EFF3108072B600BF32
:1059F000FEE700BF40F25870C2F20000FCF7E4FD81
:105A000040F2A4700F94C2F200001794CDE90D4447
:105A1000CDE90644CDE904444FF08041016042F2F3
:105A20000F71C0E901148F21C0E903148021816145
:105A3000FCF756FD20B1EFF3108072B6FEE700BF11
:105A40004FF480500C9040F2A4700CA9C2F20000F8
:105A50002F46FCF715FE18B1EFF3108072B6FEE783
:105A600040F2A470C2F20000FDF722F920B1EFF37A
:105A7000108072B6FEE700BF40F2A47016A9C2F211
:105A80000000002416941894FCF7C2FC20B1EFF338
:105A9000108072B6FEE700BF40F2A47001A9C2F206
:105AA00000000022CDE9014403940594FCF7B4FF03
:105AB00020B1EFF3108072B6FEE700BF40F2A47091
:105AC00001A9C2F200000822FCF7A6FF20B1EFF303
:105AD000108072B6FEE700BF40F2A47001A9C2F2C6
