:020000040800F2
:10000000500D0020C5020008C1270008B1270008D4
:10001000B9270008C1040008293C000800000000BE
:10002000000000000000000000000000D1270008D0
:10003000C904000800000000C9270008D9270008EB
:10004000DF020008DF020008DF020008DF0200080C
:10005000DF020008DF020008DF020008DF020008FC
:10006000DF020008DF020008DF020008DF020008EC
:10007000DF020008DF020008DF020008DF020008DC
:10008000DF020008DF020008DF020008DF020008CC
:10009000DF020008DF020008DF020008DF020008BC
:1000A000DF020008DF020008DF020008DF020008AC
:1000B000DF020008DF020008DF020008DF0200089C
:1000C000DF020008DF020008DF020008DF0200088C
:1000D000DF020008DF020008DF020008DF0200087C
:1000E000DF020008DF020008DF020008DF0200086C
:1000F000DF020008DF020008DF020008DF0200085C
:10010000DF020008DF020008DF020008DF0200084B
:10011000DF020008DF020008DF020008DF0200083B
:10012000DF020008DF020008DF020008DF0200082B
:10013000DF020008DF020008DF020008DF0200081B
:10014000DF020008DF020008DF020008DF0200080B
:10015000DF020008DF020008DF020008DF020008FB
:10016000DF020008DF020008DF020008DF020008EB
:10017000DF020008DF020008DF02000800000000C4
:10018000DF020008DF020008DF020008DF020008CB
:10019000DF020008DF020008DF020008DF020008BB
:1001A000DF020008DF020008DF020008DF020008AB
:1001B000DF020008DF020008DF020008DF0200089B
:1001C000DF020008DF02000800000000DF02000874
:1001D000DF020008DF020008DF020008DF0200087B
:1001E000DF020008DF020008DF020008DF0200086B
:1001F000DF020008DF02000800F002F800F052F809
:1002000014A696E8000CB244B344DA4501D100F0DC
:1002100049F8BAE80F000FA696E83000A5EB0405F0
:1002200004EB0607AAEB0704A7F101074FEA15152F
:100230004FEA3414A4F10104AC4201D300F032F8C7
:1002400013F0010F18BFFB1A43F0010300F001F88F
:10025000DBE71847843E0000A43E0000103A24BFAC
:1002600078C878C1FAD8520724BF30C830C144BF1B
:1002700004680C60704700007047000000230024F1
:1002800000250026103A28BF78C1FBD8520728BFA6
:1002900030C148BF0B6070471FB503F0F3FE1FBDB0
:1002A00010B510BD00F0D0F81146FFF7F5FF03F0D0
:1002B000BFFC00F0EEF803B4FFF7F2FF03BC00F060
:1002C000F5F800000948804709480047FEE7FEE7C7
:1002D000FEE7FEE7FEE7FEE7FEE7FEE7FEE7FEE7F6
:1002E00004480549054A064B70470000912800085C
:1002F000F901000850070020500D0020500900208F
:100300005009002053EA020C00F069802DE9F04BFF
:100310004FF00006002B1FBFB3FA83F503FA05F474
:1003200024FA05F65E4012BF1643B2FA82F502FACD
:1003300005F4C5F120051EBF22FA05FC44EA0C04B1
:10034000203556EA044C4FEA144418BF641C4FF0A1
:1003500000084FF00009904271EB030C39D30029DB
:1003600019BFB1FA81F701FA07F6B0FA80F700FA7F
:1003700007F6C7F120071EBF20FA07FC46EA0C0665
:100380002037B6FBF4FCA7EB0507103F07F01F0B67
:10039000CBF120062CFA06F60CFA0BFB44BFB34651
:1003A0000026202FA4BF5E464FF0000B5BEA060C30
:1003B00008BF4FF0010B19EB0B0948EB0608ABFB2C
:1003C000027C06FB02CC0BFB03CCC01B71EB0C01C7
:1003D000C1E70B46024641464846BDE8F08B13B5DF
:1003E000084318BF4FF0FF300146AFF30080BDE86F
:1003F0001C4070474FF0000200B5134694469646E5
:10040000203922BFA0E80C50A0E80C50B1F1200127
:10041000BFF4F7AF090728BFA0E80C5048BF0CC0D5
:100420005DF804EB890028BF40F8042B08BF704733
:1004300048BF20F8022B11F0804F18BF00F8012BA5
:100440007047704770477047754600F02BF8AE460E
:1004500005006946534620F00700854618B020B5D0
:10046000FFF73EFFBDE820404FF000064FF00007C9
:100470004FF000084FF0000BAC46ACE8C009ACE808
:10048000C009ACE8C009ACE8C00921F007018D46FD
:10049000704710B50446AFF300802046BDE8104019
:1004A000FFF709BF004870471000002001491820DD
:1004B000ABBEFEE72600020070470000000000000F
:1004C000FEE7000000000000704700000000000090
:1004D000EFF3108072B600BFFEE7000000000000DE
:1004E000B0B5044600F0F0F840F200010546C2F253
:1004F0000001621C097818BF0C4400BF00F0E4F84A
:10050000401BA042FAD3B0BD2DE9F04F82B000F1FC
:100510003E4342F2004603F1FF738705C4F2020630
:100520000A22B04247EA932708BF0922092F4FF059
:10053000000E38BF3A46012400270026009206E04C
:1005400001360237102E0EF1040E00F0AF8004FACF
:1005500006FB0D6815EA0B08F2D0D1F804A00322BF
:100560000AF0030CBA40ACF101056FEA0209012D53
:1005700010D88268CD6802EA0902BD402A43826031
:10058000CAF30015426822EA0B02B5402A434260D2
:1005900006E000BFBCF1030F02D14FF0030C22E0D4
:1005A000C2688D6802EA0902BD40BCF1020F42EA4E
:1005B0000502C26017D16FF003020EF01C0302EABD
:1005C00056020F25024405FA03FAD2F820C00D693D
:1005D0002CEA0A0C05FA03F343EA0C031362D1F880
:1005E00004A00AF0030C02680CFA07F302EA0902FD
:1005F0001AF4403F42EA03020260A1D043F64403EA
:1006000043F60049C4F20203C4F201094FF6084A56
:100610000F241A68CFF6FF7A42F480421A601A68F3
:1006200026F0030302F48042019209EB0302019BCE
:100630000EF00C0352F80AC004FA03F5009C2CEAF1
:10064000050504FA03F32B4342F80A30D9F808C031
:100650004B684CEA0805DA0258BF2CEA080543F655
:100660000C4C9C02C4F2010CC9F80850DCF80020C4
:1006700042EA080558BF22EA08059C034FF001042E
:10068000CCF80050D9F8042042EA080558BF22EA05
:100690000805DB03C9F80450D9F8002042EA080530
:1006A00058BF22EA0805C9F8005049E702B0BDE882
:1006B000F08F000000000000002A08BF09048161DB
:1006C000704700000000000040F24C70C2F20000D1
:1006D000006870470000000090F84120202A03D1F4
:1006E00090F84020012A01D102207047242280F88E
:1006F00041200268136823F001031360136823F498
:1007000080531360136819431160116841F00101AF
:100710001160202180F84110002180F84010084627
:10072000704700000000000090F84120202A03D10B
:1007300090F84020012A01D102207047242280F83D
:1007400041200268136823F001031360136823F447
:10075000706343EA01211160116841F001011160E9
:10076000202180F84110002180F840100846704791
:1007700010B310B5044690F8410028B9002084F861
:100780004000204600F04CF8242084F8410094E812
:100790000910E2680168012A21F00101016023F0DB
:1007A00070610161816821F40041816006D14CF4DF
:1007B000004181600CE000BF01207047022A4CF428
:1007C0000441816004D1416841F4006103E000BF4D
:1007D000416821F40061416004F1100C416841F06E
:1007E000007141F400414160C16821F40041C160E1
:1007F0009CE80E10114341EA0321C160216A41EADD
:100800000C010160016841F0010101600020606499
:10081000202184F84110206384F8420010BD0000BC
:10082000B0B5AAB0044601A845F2004504308C21B9
:10083000C4F20005FFF7DEFD2068A84202D02AB00E
:10084000B0BD00BF4FF48040019001A800F0A0FAB5
:1008500008B1FFF73DFE43F6300425A9C4F20204B7
:10086000206840F002002060206800F0020025901F
:1008700025984FF440702590122026900020279054
:10088000032028900420299005F5D830FFF73CFE7E
:10089000206940F400102061206900F400100090ED
:1008A00000982AB0B0BD000040F2000040F24C7148
:1008B000C2F20000C2F2000100780A681044086029
:1008C000704700000000000080B5032000F078F8B9
:1008D0000F2000F005F800F027F8002080BD000090
:1008E00070B540F2000640F20801C2F20006C2F202
:1008F00000014FF47A73044632780968B3FBF2F2D0
:10090000B1FBF2F1084601F05BF80F2C4FF0010546
:1009100008D838B94FF0FF3000222146002500F0FA
:100920001FF87460284670BD82B043F64000C4F2E0
:100930000200016841F080510160016801F08051BE
:1009400001910199416841F480414160406800F49F
:1009500080400090009802B0704700000000000046
:1009600070B54EF60C5C4FF0FF36CEF2000C00F185
:10097000604505F56445DCF80030C3F3022E8EF0C7
:100980000703042B28BF0423BEF1030406FA03F374
:1009900021EA030100F00F0338BF0024043B0028C4
:1009A000634406FA04F048BF03F10C05A14022EAB3
:1009B000000008430001287070BD00000000000026
:1009C0004EF60C514FF6FF03CEF200010A681A40B2
:1009D00060F30A2242F0806040F0FD7008607047CA
:1009E00001680122C0F8D824002280F8CC2488694C
:1009F00040F000608861486D40F08052002042F075
:100A000003024A6570470000002800F02D81F0B510
:100A100081B00446056890F89504002800F026810E
:100A2000B5F1A04F4FF0030084F8950400F02C813D
:100A3000206802F03DFFD4E90001267CD4E90223BE
:100A4000009602F0D1FB002840F0088120680021C8
:100A500002F036FF002840F0018194F804E0BEF176
:100A6000000F00F0F280BEF1040F0EF0030C4FF007
:100A7000000241D30EF0FC03A4F1900003210125F4
:100A8000CE1E80F8A460A0F8BE608E1E80F8C860FC
:100A90004F1CA0F8E2604E1E80F8EC609F42A0F868
:100AA000066101F1040680F8A55080F8A820C0E98D
:100AB0002B22C0F8B42080F8C95080F8CC20C0E9BF
:100AC0003422C0F8D82080F8ED5080F8F020C0E93A
:100AD0003D22C0F8FC2080F8115180F81011A0F8D8
:100AE0002A11314680F81421C0E94622C0F820219D
:100AF00000F19000C4D1F21EBCF1000F2DD002EB2A
:100B0000C2000121BCF1010F04EB80034FF0000093
:100B100059751A75DA851876C3E9070058621CD032
:100B2000531CBCF1020F03EBC30504EB850569758B
:100B30002B75EB852876C5E9070068620DD0901CFF
:100B4000012200EBC00104EB81014A750875C885DC
:100B500000200876C1E907004862BEF1000F74D09A
:100B6000BEF1040F4FF0000237D30EF0FC0003215A
:100B7000234600BFCF1E83F854728F1E83F878720D
:100B80004F1E83F89C724F1C0D1D83F8552287421F
:100B900083F85822C3E99722C3F8642283F87922A4
:100BA00083F87C22C3E9A022C3F8882283F89D221F
:100BB00083F8A022C3E9A922C3F8AC2283F8C1229A
:100BC00083F8C012294683F8C422C3E9B222C3F8CD
:100BD000D02203F19003CDD1EA1EBCF1000F34D036
:100BE00002EBC200BCF1010F04EB80014FF00000EA
:100BF00081F8550281F8542281F85802C1E9970022
:100C0000C1F8640221D0511CBCF1020F01EBC103F9
:100C100004EB830383F8550283F8541283F85802D7
:100C2000C3E99700C3F864020FD0901C002200EBC8
:100C3000C00104EB810181F8552281F8540281F84A
:100C40005822C1E99722C1F86422D4E90001277C27
:100C5000D4E90223009702F0DBFBC8B1022084F83C
:100C60009504012001B0F0BD01207047002084F8F8
:100C70009404204600F020F8B5F1A04F4FF0030097
:100C800084F895047FF4D4AE0020A071D0E600BFB4
:100C900000206074012084F89504207B012802D193
:100CA0002046FFF79DFE206802F0A2FB002001B065
:100CB000F0BD000000000000F0B5ABB002A9044692
:100CC000081D8C21FFF796FB2068B0F1A04F01D0E2
:100CD0002BB0F0BD4FF4001002906020079001206F
:100CE0000A900C904FF00060219002A80224CDE9F8
:100CF000084400F04DF808B1FFF7EAFB43F6300670
:100D000026ADC4F2020629460027306840F00100F3
:100D10003060306800F00100269026984FF4E850CB
:100D2000CDE9260400240320C4F2020429900A20FD
:100D30002A9020462897FFF7E7FB4FF400702946DA
:100D4000CDE9260720462897FFF7DEFB706840F0C4
:100D500080007060706800F08000019001987069F8
:100D600040F480407061706900F480400090009809
:100D70002BB0F0BD0000000047F20000C4F20000FC
:100D8000016841F4807101607047000000000000BC
:100D90002DE9F04782B0D0F800A043F69006044653
:100DA0005FEACA70C4F202061AD14FF000095FEA86
:100DB0000A3028D556F8040CE16B20F44010B1F548
:100DC000801F40EA010046F8040CB1FA81F04FEAB6
:100DD000501808BF4FF001095FEACA2018D429E073
:100DE00056F8880C20F4000046F8880C606B56F822
:100DF000881C014346F8881CB0FA80F04FEA50196D
:100E00005FEA0A30D6D44FF000085FEACA2011D555
:100E100056F8040C216C20F44000B1F5800F40EA34
:100E2000010008BF4FF00109002908BF4FF0010879
:100E300046F8040C5FEA8A6057465CD556F8500CB9
:100E400047F2000740F0805046F8500CC4F200070B
:100E500056F8500C00F0805001900198386840F42A
:100E600080703860FFF730FC054600BF3868C00569
:100E700006D4FFF729FC401B6428F7D962E200BFC3
:100E800056F8200C10F440701BD0216B01F4407117
:100E9000884216D056F8200C56F8201C41F48031B8
:100EA00046F8201C56F8201C20F4407021F48031B4
:100EB00046F8201C46F8200C56F8200CC00740F0DD
:100EC000C3814FF6FF432768206B56F8882CC0F685
:100ED000FF7300F4407122F4F81203406FF31F30E7
:100EE000B1F5407F08BF1A4346F8882C56F8201CFD
:100EF000084346F8200CF80632D478043ED438046F
:100F000044D4F8034AD4B80350D4780656D43806EB
:100F10005CD4F80562D4B80568D478056ED4380579
:100F200075D4F8047CD4B80400F18380780200F111
:100F30008980B80200F18F80780300F19B8038022D
:100F400000F1A180780100F1A880380100F1AF80A4
:100F5000F80000F1B8805FEACA1040F1C080CDE02F
:100F600056F8040C20F0807046F8040CA06B56F87C
:100F7000041C084346F8040C7804C0D53068616E40
:100F800020F44030084330603804BAD53068A16E90
:100F900020F4402008433060F803B4D53068E16E97
:100FA00020F4401008433060B803AED53068216F9C
:100FB00020F44000084330607806A8D53068616CA2
:100FC00020F00300084330603806A2D53068A16CD9
:100FD00020F00C0008433060F8059CD53068E16CC7
:100FE00020F0300008433060B80596D53068216D98
:100FF00020F0C00008433060780590D53068616DFE
:1010000020F440700843306038057FF58AAF3068BF
:10101000A16D20F4406008433060F8047FF583AF91
:101020003068E16D20F4405008433060B8047FF52B
:101030007DAF3068216E20F4404008433060780274
:101040007FF577AF3068A16F20F080600843306093
:10105000B8027FF571AF3068E16F20F00060B1F148
:10106000006F40EA010008BF4FF0010830607803CC
:101070007FF565AF3068616F20F0407008433060E5
:1010800038027FF55FAF3068D4F8801020F08050D0
:101090000843306078017FF558AF3068D4F8841089
:1010A00020F000500843306038017FF551AF56F80A
:1010B000040CD4F8881020F00070084346F8040CA3
:1010C000F8007FF548AF56F8040CD4F88C1020F0E7
:1010D0008060084346F8040C5FEACA100ED4B9F1E8
:1010E000000F08BF17F0007008D138071AD4B8F104
:1010F000000F17D1002002B0BDE8F08756F8900C21
:1011000020F0806046F8900CFFF7DEFA054600BF3D
:1011100056F8900C000119D5FFF7D6FA401B642849
:10112000F6D90FE156F8900C20F0805046F8900C5C
:10113000FFF7CAFA054600BF56F8900C800015D597
:10114000FFF7C2FA401B6428F6D9FBE02068C1070C
:1011500003D0616B002900F08B80010340F19C807B
:10116000E16BB1F5801F40F097809BE020680103A0
:1011700001D5E16B19B1C1021ED5216CE1B956F858
:10118000081C56F8082C01F4403102F0E042D4E982
:1011900005371144A26A41EA83116FF0FF0341EA67
:1011A000076146F8081C56F8041C03EB022221F4E0
:1011B000F851114346F8041C810214D5E16FB1F1D6
:1011C000006F10D156F8081C56F8082C01F0706119
:1011D00002F0E0426369276A114441EA831141EA5F
:1011E000074146F8081C000718D556F8080C56F8B1
:1011F000081C00F0706001F4403162690844E16944
:1012000040EA8210E36A40EA017046F8080C56F89A
:10121000040C20F44030184346F8040C56F8900CA7
:1012200040F0805046F8900CFFF74EFA044600BF9D
:1012300056F8900C80003FF55DAFFFF745FA001BB4
:101240006528F5D37EE000BFFFF73EFA054641F280
:10125000883700BF56F8200C80073FF532AEFFF705
:1012600033FA401BB8424FF00300F3D96BE000BFE4
:1012700056F80C1C56F80C2C01F4403102F0706248
:10128000D4E90135114441EA831141EA057146F878
:101290000C1C01033FF564AFC1021DD5216CB1F5F3
:1012A000800F19D156F80C1C56F80C2C01F4403163
:1012B00002F0E04263681144E26841EA8311656A22
:1012C00041EA026146F80C1C56F8041C6A1E21F023
:1012D0001F01114346F8041CC10110D556F80C1C1F
:1012E00056F80C2C01F0706102F0E0426368256949
:1012F000114441EA831141EA054146F80C1C800182
:101300000CD56068A368D4E90321090441EA801080
:1013100040EA026040EA037046F80C0C56F8900C64
:1013200040F0806046F8900CFFF7CEF9054600BF0C
:1013300056F8900C00013FF5D8AEFFF7C5F9401BF9
:101340006428F5D9032002B0BDE8F0870000000052
:10135000002871D02DE9F04143F608080446C4F294
:1013600002080D46D8F8F80300F00F0088420CD2AE
:10137000D8F8F80320F00F002843C8F8F803D8F88D
:10138000F80300F00F00A84270D12068810717D53C
:10139000410705D5D8F8001041F4E051C8F8001015
:1013A000010705D5D8F8001041F46041C8F80010D5
:1013B000D8F80010A26821F0F0011143C8F800101D
:1013C000C0073BD1D8F8F80300F00F00A8420CD9B1
:1013D000D8F8F80320F00F002843C8F8F803D8F82D
:1013E000F80300F00F00A84240D12068410707D55C
:1013F000D8F80010E26821F4E0511143C8F8001059
:10140000000708D5D8F80000216920F4604040EAC0
:10141000C100C8F80000D8F8000000F00C0142F24A
:1014200000400829C0F2F40040D0042960D141F204
:101430000020C0F27A005BE001207047606802285B
:1014400008D001280ED158F8081C890312D40120B5
:10145000BDE8F08158F8081C89010BD40120BDE8D3
:10146000F08100BF58F8081C890703D40120BDE8AB
:10147000F08100BFD8F8001021F003010843C8F83C
:101480000000FFF721F9064641F28837D8F800003E
:10149000616800F00C00B0EB810F93D0FFF714F9F6
:1014A000801BB842F2D90320BDE8F08158F8041C33
:1014B00058F8043C58F8047C01F03F025902C7F385
:1014C000881105D4A1FB00010023FEF71BFF06E0F5
:1014D00041F20020C0F27A004843B0FBF2F058F825
:1014E000041C0222C1F3014102EB4101B0FBF1F007
:1014F000D8F8001044F29E02C0F60002C1F30311B6
:10150000515C40F20402C2F20002C84040F20801FD
:10151000C2F2000108601068FFF7E2F90020BDE8A0
:10152000F08100000000000040F2080043F60801CE
:10153000C2F20000C4F2020144F2AE02006809687F
:10154000C0F60002C1F38221515CC8407047000020
:1015500040F2080043F60801C2F20000C4F20201A2
:1015600044F2AE0200680968C0F60002C1F34231DD
:10157000515CC8407047000010B543F60404C4F243
:101580000204606800F00C0142F200400829C0F239
:10159000F40007D0042918BF10BD41F20020C0F2AA
:1015A0007A0010BD22682368216802F03F025B02C6
:1015B000C1F3881106D4A1FB00010023FEF7A2FEAF
:1015C00007E000BF41F20020C0F27A004843B0FBC0
:1015D000F2F021680222C1F3014102EB4101B0FBAC
:1015E000F1F010BD0000000000284FD02DE9F041BF
:1015F00082B00446007843F60006C007C4F2020633
:101600000CD0B06800F00C00042840F081803068F5
:10161000800303D56068002800F0388120788007B7
:101620001BD5B06810F00C0F09D0B06800F00C00AA
:10163000082840F08B807068400200F18780306895
:10164000800703D5E068012840F0208130682169D7
:1016500020F0F80040EAC10030602078000717D47D
:10166000207840072CD4A569002D00F00B81B068CC
:1016700000F00C00082840F0A780012D706840F0B1
:10168000D980012002B0BDE8F08100BF0120704781
:1016900060690028706F00F0838040F0010070677F
:1016A000FFF712F8054600BF706F8007D8D4FFF728
:1016B0000BF8401B0228F7D9032002B0BDE8F081E7
:1016C000306C5FEAC00808D4306C40F08050306461
:1016D000306C00F080500190019847F20007C4F28E
:1016E00000073868C00549D4386840F48070386015
:1016F000FEF7EAFF054600BF3868C0053ED4FEF796
:10170000E3FF401B6428F7D9032002B0BDE8F08155
:10171000B06800F00C00082803D1706840023FF563
:1017200076AF6068002800F0F380B0F5A02F00F0DD
:101730000781B0F5803F00F00781306820F48030E9
:101740003060306820F4802001E100BFE0680028AC
:1017500030685BD040F001003060FEF7B5FF054611
:10176000306880073FF572AFFEF7AEFF401B0228DE
:10177000F6D9032002B0BDE8F08100BFA0680028C0
:1017800000F08880052800F09F80012800F0A080EC
:10179000306F20F001003067306F20F004009AE0D5
:1017A00020F001007067FEF78FFF0546706F80071D
:1017B0007FF556AFFEF788FF401B0228F6D90320BD
:1017C00002B0BDE8F08100BF306820F0807030606A
:1017D000FEF77AFF022D05460CD100BF306880016C
:1017E00040F1C880FEF770FF401B02284FF0030055
:1017F000F4D91CE03068800144D5FEF765FF401B3A
:1018000002284FF00300F5D911E000BF20F00100DD
:101810003060FEF759FF0546306880077FF51DAF41
:10182000FEF752FF401B02284FF00300F4D902B02C
:10183000BDE8F08100F48001E269914226D100F018
:101840003F01226A914221D147F6C071626A01408C
:10185000B1EB821F1AD1A16A4FF6FF72C9039143FF
:1018600000F44032A1F580318A420FD1E16A00F0E4
:101870007062B2EB016F09D1216B00F0E040B0EB78
:10188000017F03D1002002B0BDE8F081012002B049
:10189000BDE8F081306F20F001003067306F20F03C
:1018A00004003067FEF710FF054641F2883700BF9D
:1018B000306F800722D5FEF707FF401BB8424FF07C
:1018C0000300F5D9B3E700BF306F40F00400306784
:1018D000306F40F001003067FEF7F6FE054641F23A
:1018E000883700BF306F800708D4FEF7EDFE401B3D
:1018F000B842F7D9032002B0BDE8F081B8F1000F7B
:101900003FF5B1AE306C20F080503064ABE600BFE4
:10191000306820F480303060306820F480203060FF
:10192000FEF7D2FE054600BF306880037FF576AE35
:10193000FEF7CAFE401B64284FF00300F4D976E797
:10194000306840F480203060306840F4803030608F
:10195000FEF7BAFE054600BF306880033FF55EAE75
:10196000FEF7B2FE401B6428F6D9032002B0BDE8A2
:10197000F08100BF04F11C07256B8FCF0843D9030A
:101980004FF6FF7340EA8210994340EA0760A1F5E1
:101990008031084340EA05707060306840F0807024
:1019A0003060FEF791FE0446306880013FF56AAF73
:1019B000FEF78AFE001B02284FF00300F4D936E739
:1019C000411E0020B0EB116F02D00120704700BF14
:1019D0004EF21002F023CEF2000251604EF6235177
:1019E000CEF200010B70072190601160704700007B
:1019F00090F83C20012A01D102207047B0B5CB6895
:101A000048F2FF7ED1E901C223F47C5322F47052E4
:101A1000CFF6F07E1A430CEA0E03D1F800C042EA7A
:101A2000030E2CF477230A6943EA0E0322F476228C
:101A3000D0F800E01A434B691A438B6A22F4742CE5
:101A400023F470238A6940F200454EF48064C4F2A6
:101A5000010543EA0C03AC4243EA02430FD10025DF
:101A600023F07C724B6ACFF6F045CC6905EA03534C
:101A70001A4324F00073096A1A4342EA0103CEF8BC
:101A80004430002180F83C10BDE8B0400846704763
:101A900090F83C20012A4FF002025ED0B0B580F8E9
:101AA0003D2040F2004C0268C4F2010C42F4806315
:101AB00063455368D2F808E002BF23F470034C6812
:101AC000234341F2FF740D68C4F2000423F0700355
:101AD000A24243EA050353600CDC40F2FF73C4F2F8
:101AE00000039A4216DCB2F1804F29D040F2004345
:101AF00018E000BF40F2FF33C4F201039A4217DC42
:101B000041F60003C4F200039A4219D00023C4F244
:101B1000010309E040F60003C4F200039A420FD02B
:101B200040F60043C4F200039A4209D00DE000BF22
:101B300044F20003C4F201039A4201D0624504D189
:101B40002EF080038968194391600022012180F8FA
:101B50003D1080F83C20BDE8B040104670470000C2
:101B600060B310B5044690F83D0028B9002084F811
:101B70003C00204600F024F8022084F83D00206854
:101B8000211D00F091FE012084F8480084F83E00F9
:101B900084F83F0084F8400084F8410084F8420053
:101BA00084F8430084F8440084F8450084F8460033
:101BB00084F8470084F83D00002010BD01207047E4
:101BC00082B00068B0F1804F14D00021C4F201014E
:101BD00088421CD143F64000C4F20200416841F043
:101BE00001014160406800F001000190019802B0DD
:101BF000704700BF43F64000C4F20200016841F0A4
:101C000001010160006800F001000090009802B03E
:101C1000704700000000000090F83C20012A4FF0BF
:101C200002026CD080B580F83D208822D0F800C038
:101C3000CFF6FE72DCF808301A40CCF808200B68AA
:101C40004F2B29DC1F2B45DD202B18BF302B44D018
:101C5000402B40F0AF80D1F804E0C968DCF82030B8
:101C6000DCF8202022F00102CCF82020DCF818203B
:101C700022F0F00242EA011123F00A02CCF8181017
:101C800042EA0E01CCF82010DCF8081041F04701C0
:101C900021F0300128E000BF6F2B33DDB3F5005F8A
:101CA00054D0B3F5805F21D0702B40F08380D1E910
:101CB00001E3C968DCF8082043EA0E0322F47F42FE
:101CC00043EA01211143CCF80810DCF8081041F078
:101CD000770109E00BB1102B6CD1DCF8081021F072
:101CE0007001194341F00701CCF8081000220121CE
:101CF00080F83D10002180F83C10BDE8804010467F
:101D0000704700BF502B35D0602B53D1D1F804E081
:101D1000C968DCF82030DCF8202022F01002CCF872
:101D20002020DCF8182022F4704242EA013123F02E
:101D3000A002CCF8181042EA0E11CCF82010DCF802
:101D4000081041F0670121F01001CDE7D1E901E36E
:101D5000C968DCF8082043EA0E0322F47F4243EA14
:101D600001211143CCF80810DCF8081041F480413F
:101D7000BAE700BFD1F804E0C968DCF82030DCF82D
:101D8000202022F00102CCF82020DCF8182022F0DC
:101D9000F00242EA011123F00A02CCF8181042EADC
:101DA0000E01CCF82010DCF8081041F0570121F0AA
:101DB000200199E701229AE70068B0F1804F18BF2F
:101DC00070472DE9F04186B043F630000024C4F29C
:101DD0000200C4F2020401AD4FF0020801680127BD
:101DE00041F0010101600168032601F00101019148
:101DF0000199016841F0020101600068294600F084
:101E0000020001900198092001902046CDF8088039
:101E10000397CDE90467FEF777FB4FF4806029460E
:101E2000CDE9010804F580600597CDE90376FEF75A
:101E30006BFB06B0BDE8F0417047000000000000F9
:101E400090F83C30012B01D1022070474FEAB202DA
:101E5000052A00F20181F0B5DFE812F006003A0031
:101E60007200AA00D4000401026842F48064136A7C
:101E7000156A23F0020325F001051562D2F804E08B
:101E8000D2F818C08E6840F20045C4F20105334311
:101E9000AC4201BFCE6823F00C0326F004063343A6
:101EA000AC420C6801BF2EF44076D1E9055E3543A3
:101EB0004EEA050E4FF68C75CFF6FE75C2F804E0BB
:101EC0000CEA050626439661496851631362F4E003
:101ED000026840F2004542F48064C4F20105136ACE
:101EE000AC42166A23F0200326F010061662D2F8E0
:101EF00004E0D2F818C08E6843EA061307D1CE6812
:101F00006FF0400723F0C00307EA06163343AC42E4
:101F10000C6801BFD1E9055635432EF4406747EA06
:101F2000850E48F6FF45CFF6FF65C2F804E00CEADF
:101F3000050747EA04279761496891631362BCE08B
:101F4000026840F2004542F48064C4F20105136A5D
:101F5000AC42176A23F4007327F480771762D2F833
:101F600004E0D2F81CC08E6843EA062307D1CE688D
:101F700040F2FF47360223F44063BE433343AC4292
:101F80000C6801BFD1E9055635432EF4405747EAA6
:101F9000051E4FF68C75CFF6FE75C2F804E00CEA0C
:101FA00005072743D7614968D163136285E000BF05
:101FB000026840F2004642F48067C4F20106D2F89B
:101FC00020C0B742136A2CF4005723F480531362E5
:101FD0005368D469D1F800E08D6802BF4E6923F4DC
:101FE000804343EA861348F6FF4647EA0537CFF6B3
:101FF000FF665360264046EA0E23D36149681164A8
:102000005AE000BF026840F2004642F48067C4F222
:102010000106D2F820C0B742136A2CF4003723F42B
:10202000803313625368556DD1F800E08C6802BFAD
:102030004E6923F4803343EA06234FF68C7647EA51
:102040000447CFF6FE76536003362E4046EA0E0371
:102050005365496891652FE00121002280F83C20FA
:1020600008467047026840F2004642F48067C4F2B6
:102070000106D2F820C0B742136A2CF4001723F4EB
:10208000801313625368556DD1F800E08C6802BF6D
:102090004E6923F4802343EA862348F6FF4647EA45
:1020A0000457CFF6FF66536006F540762E4046EAA9
:1020B0000E2353654968D16517620021BDE8F040E1
:1020C000002280F83C200846704700000000000015
:1020D00060B310B5044690F83D0028B9002084F89C
:1020E0003C00204600F024F8022084F83D002068DF
:1020F000211D00F0D9FB012084F8480084F83E003F
:1021000084F83F0084F8400084F8410084F84200DD
:1021100084F8430084F8440084F8450084F84600BD
:1021200084F8470084F83D00002010BD012070476E
:10213000704700000000000081B10A1F8B0743EACE
:102140009202032A30D8DFE802F00311192900BFF8
:1021500000F13F031B78012B15D00CE090F83E20D6
:10216000012A08D1022280F83E2032E000F140032B
:102170001B78012B07D00120704700BF00F14103FD
:102180001B78012BF7D1032A14D8DFE802F00317DC
:102190001B1F00BF022280F83F201AE000F142031B
:1021A0001B78012BE7D1EEE700F143031B78012BED
:1021B000E9D0E0E7022280F843200AE0022280F81A
:1021C000402006E0022280F8412002E0022280F84E
:1021D0004220026801F01F00012101FA00F0116A9B
:1021E0008143116241F2FF71C4F200018A42116A17
:1021F00040EA010010620FDC40F2FF70C4F2000000
:1022000082421BDCB2F1804F3ED040F20040C4F26B
:102210000000824238D043E040F2FF30C4F20100B7
:10222000824219DC41F60000C4F2000082422BD049
:102230000020C4F2010082421AD031E040F60000D2
:10224000C4F2000082421FD040F60040C4F20000F9
:10225000824219D024E000BF44F20000C4F2010021
:10226000824211D040F20040C4F20100824217D1F4
:1022700040F2004142F48060C4F20101536C884294
:1022800043F4004050640BD107219068C0F2010173
:1022900001400020062918BFB1F5803F00D17047EA
:1022A000106840F00100106000207047000000003E
:1022B00090F83C30012B01D1022070474FEAB20266
:1022C000052A00F23B812DE9F041DFE812F007001A
:1022D00047008900CB0001013D0100BF036840F2C7
:1022E000004643F48065C4F201061C6AB5421A6ACE
:1022F00024F0020422F001021A621A46D3F804C044
:1023000052F818EF8F6844EA070401BFCF6824F041
:102310000C0427F004073C43B5420D6801BF2CF4C0
:102320004077D1E9056C3E434CEA060C4FF68C76BB
:10233000CFF6FE76C3F804C00EEA06072F439F616E
:102340004F6809695F631C629F6947F008079F61D6
:102350009F6927F004079F612DE100BF036840F2E9
:10236000004643F48065C4F201061C6AB5421A6A4D
:1023700024F0200422F010021A621A46D3F804C096
:1023800052F818EF8F6844EA071407D1CF686FF04E
:10239000400824F0C00408EA07173C43B5420D6822
:1023A00001BFD1E905673E432CF4406747EA860C3C
:1023B00048F6FF46CFF6FF66C3F804C00EEA0607EC
:1023C00047EA05279F614F6809699F631C629F69FF
:1023D00047F400679F619F6927F480679F61E9E088
:1023E000036840F2004643F48065C4F201061C6AAB
:1023F000B5421A6A24F4007422F480721A621A46F2
:10240000D3F804C052F81CEF8F6844EA072408D1BF
:10241000CF6840F2FF483F0224F4406427EA0807EF
:102420003C43B5420D6801BFD1E905673E432CF43A
:10243000405747EA061C4FF68C76CFF6FE76C3F877
:1024400004C00EEA06072F43DF614F680969DF63A6
:102450001C62DF6947F00807DF61DF6927F00407C6
:10246000DF61A8E0036840F2004543F48067C4F2EE
:102470000105D3F820C0AF421A6A22F480521A62D2
:102480001A465C6852F81C6F0D68D1F808E002BF6C
:102490004F6924F4804444EA871448F6FF47CFF696
:1024A000FF675C603E402CF4005746EA0524DC617F
:1024B0004E6809691E6447EA0E371F62DF6947F4F8
:1024C0000067DF61DF6927F48067DF6172E000BFCA
:1024D000036840F2004543F48067C4F20105D3F875
:1024E00020C0AF421A6A22F480321A621A465C682F
:1024F00052F8546F0D68D1F808E002BF4F6924F418
:10250000803444EA07244FF68C77CFF6FE775C6080
:1025100003373E402CF4003746EA05045C654E68FC
:1025200009699E6547EA0E471F625F6D47F008071D
:102530005F655F6D27F004075F653CE001210022C5
:1025400080F83C2008467047036840F2004543F499
:102550008067C4F20105D3F820C0AF421A6A22F4A2
:1025600080121A621A465C6852F8546F0D68D1F8EE
:1025700008E002BF4F6924F4802444EA872448F627
:10258000FF47CFF6FF675C6007F540773E402CF4CD
:10259000001746EA05245C654E680969DE6547EA6E
:1025A0000E571F625F6D47F400675F655F6D27F42C
:1025B00080675F6509021368194311600021BDE857
:1025C000F041002280F83C200846704700000000DF
:1025D00060B310B5044690F83D0028B9002084F897
:1025E0003C00204600F024F8022084F83D002068DA
:1025F000211D00F059F9012084F8480084F83E00BC
:1026000084F83F0084F8400084F8410084F84200D8
:1026100084F8430084F8440084F8450084F84600B8
:1026200084F8470084F83D00002010BD0120704769
:10263000704700000000000010B5C8B10446C06F2C
:1026400028B9002084F87800204600F025F82420DE
:10265000E0672068616A0029026822F001010160D8
:1026600002D0204600F0C8F9204600F0F1FA08B187
:10267000012010BD2068416821F4904141608168CB
:1026800021F02A018160016841F0010101602046CA
:10269000BDE8104000F020BA2DE9F041AAB00021B9
:1026A0000446CDE92811CDE92611259101A89021F4
:1026B000FDF7A0FE44F600012068C4F20001884244
:1026C0003ED041F20001C4F2010188426CD101A860
:1026D0004FF04008CDF80480FEF75AFB08B1FDF733
:1026E000F7FE43F6300040F20044C4F20200C4F2A8
:1026F0000204022600274169032541F010014161CF
:10270000416901F0100100910099016841F0020156
:102710000160006825A900F00200009000984FF4C5
:10272000004025900420299020462696279728953A
:10273000FDF7EAFECDE92586CDE927752EE000BF3D
:102740004FF48070019001A8FEF722FB08B1FDF75D
:10275000BFFE43F63000C4F20200016941F480215B
:102760000161016901F4802100910099016841F043
:102770000801016040F200410068C4F2020100F06B
:102780000800009001F5006400984FF44070259017
:1027900002202690002027900320289007202990CF
:1027A00025A92046FDF7B0FE2AB0BDE8F081000063
:1027B000FEE7000000000000FEE70000000000004F
:1027C000FEE700000000000070470000000000006D
:1027D0007047000000000000FEF766B8000000002F
:1027E00010B594B000200690CDE90B00CDE90900AA
:1027F000CDE90400CDE90200FEF7BEFA43F6400041
:102800000122C4F202000224016841F080510160FB
:10281000006800F080500190019847F20000C4F277
:102820000000016862F38F3101600068902100F4BC
:102830004040019001984FF4A02008904FF4800090
:102840000E9004200F90CDE9120407A807920D9472
:10285000CDE91014FEF7C8FE20B1EFF3108072B678
:10286000FEE700BF0F200221CDE902048020049082
:102870004FF48050CDE9050002A8FEF769FD28B1AC
:10288000EFF3108072B600BFFEE700BF14B010BDBA
:102890004EF68850CEF20000016841F470010160EC
:1028A000704700000000000010B540F6FF3E40F207
:1028B000004CC4F2000E03687045C4F2010C27DC22
:1028C000B0F1804F2CD040F20042C4F2000290429E
:1028D00026D040F60002C4F20002904220D041F619
:1028E000FF72C4F20002904224DC704536DCB0F185
:1028F000804F59D040F20042C4F20002904253D0BF
:1029000040F60002C4F2000290424DD050E000BFF9
:1029100040F60042C4F20002904218BF604563D105
:1029200023F070024B68134341F6FF72C4F20002B9
:102930009042DADD43F6FF72C4F20102904221DCDC
:1029400042F20002C4F2000290422DD00022C4F2F2
:102950000102904228D0604526D029E040F600428E
:10296000C4F2000290421FD041F60002C4F20002FD
:10297000904219D041F60042C4F20002904213D0B6
:1029800016E000BF44F20002C4F2010290420BD0F4
:1029900044F60002C4F20102904205D044F2004223
:1029A000C4F20102904203D123F44072CB68134376
:1029B00023F080024B69D1F800E01A438C68026072
:1029C00040F48062C462C0F828E0624504BF09692F
:1029D0000163012141610169C90708BF10BD016997
:1029E00021F00101016110BD0022C4F201029042F8
:1029F00096D074E700000000416A0A070CD4CA07A9
:102A000015D18A071ED44A0727D4CA0630D48A06AD
:102A100039D44A0642D454E00268D0F834C053682E
:102A200023F4004343EA0C035360CA07E9D0026869
:102A3000D0F828C0536823F4003343EA0C035360F2
:102A40008A07E0D50268D0F82CC0536823F480339D
:102A500043EA0C0353604A07D7D50268D0F830C068
:102A6000536823F4802343EA0C035360CA06CED58F
:102A70000268D0F838C0936823F4805343EA0C030B
:102A800093608A06C5D50268D0F83CC0936823F4E9
:102A9000005343EA0C0393604A0612D50268D0F84B
:102AA00040C05368BCF5801F23F4801343EA0C0335
:102AB000536006D1536823F4C00C436C43EA0C0303
:102AC0005360090658BF70470168806C4A6822F459
:102AD0000022104348607047B0B582B00446002021
:102AE000C4F88400FDF7F0FD216805460A68120766
:102AF00037D54FF4001100226FF07E400090204641
:102B00002B4600F0C5F958B3206850E8000F216843
:102B100020F0800041E80002F2B1206850E8000F88
:102B2000216820F0800041E80002002A1FBF2068D1
:102B300050E8000F216820F080001CBF41E800022F
:102B4000002A09D0206850E8000F216820F080009A
:102B500041E80002002AD7D12020E06763E000BFEF
:102B600021680868400765D54FF4800100226FF0A6
:102B70007E40009020462B4600F08AF9002859D06C
:102B8000206850E8000F216820F4907041E80002AE
:102B9000F2B1206850E8000F216820F4907041E8FD
:102BA0000002002A1FBF206850E8000F216820F4AF
:102BB00090701CBF41E80002002A09D0206850E84C
:102BC000000F216820F4907041E80002002AD7D15C
:102BD000206850E8020F216820F0010041E802025D
:102BE000F2B1206850E8020F216820F0010041E8AE
:102BF0000202002A1FBF206850E8020F216820F05F
:102C000001001CBF41E80202002A09D0206850E8F8
:102C1000020F216820F0010041E80202002AD7D10A
:102C20002020C4F880000320002184F8781002B02E
:102C3000B0BD00BF2020E067C4F8800000202066FF
:102C40006066002184F8781002B0B0BD000000007A
:102C500070B506460168806846F6F315D6E903327A
:102C600002437069D6F81CC00C68CEF6FF7510439D
:102C700004EA0502104340EA0C000860486820F4AA
:102C8000405018434860B06947F2FF73326AC4F29B
:102C9000000310438A6822F43062994240EA02003D
:102CA0004FF01002886019DC44F6FF30C4F20000D7
:102CB00081422DDC44F20040C4F2000081424DD03C
:102CC00044F60000C4F20000814271D143F6900046
:102CD000C4F202000068010956E000BF40F6FF7030
:102CE000C4F20100814227DC47F60000C4F2000074
:102CF00081423BD047F60040C4F20000814257D1E8
:102D000043F69000C4F202000068810B3CE000BF73
:102D100044F60040C4F2000081422FD045F200008A
:102D2000C4F20000814243D143F69000C4F2020095
:102D30000068010A28E000BF41F20040C4F201002F
:102D4000814227D041F20000C4F2010081422FD11C
:102D500043F69000C4F20200016821E043F69000BF
:102D6000C4F20200006881080EE000BF43F6900044
:102D7000C4F202000068010B06E000BF43F69000B9
:102D8000C4F202000068810944F2C802C0F60002E1
:102D90000AE000BF43F69000C4F202000068810A16
:102DA00044F2B802C0F6000201F0030052F82020FD
:102DB00042F20040BCF5004FC0F2F4000ED1082AE8
:102DC0004FF0010139D8DFE802F0051923381D382A
:102DD00038382100FEF7A8FBD0B94AE0082A4FF0A6
:102DE00001012AD8DFE802F0062E382932292929E4
:102DF000360000BFFEF798FB70BB3AE0FEF7A8FB79
:102E000030B936E0FEF7B8FB10B932E04FF40040BD
:102E100071684A0802EB40004FF6EF72B0FBF1F028
:102E2000A0F11001914207D84FF6F0710140C0F3B4
:102E3000420008441BE000BF01210020C6E91A003F
:102E4000084670BDFEF784FB30B912E0FEF794FB34
:102E500010B90EE04FF4004071684FF6EF7200EBCE
:102E60005100B0FBF1F0A0F11001914208D8316897
:102E7000C86000210020C6E91A00084670BD00BFE6
:102E800001210020C6E91A00084670BD00000000BC
:102E90002DE9F041804600680D46C7693940491B5D
:102EA000B1FA81F14909914225D1069C34B3164605
:102EB000611C29D1C1692940491BB1FA81F1490935
:102EC000B14218D1C1692940491BB1FA81F14909C0
:102ED000B14201BFC1692940491BB1FA81F104BF68
:102EE0004909B14207D1C1692940491BB1FA81F1B1
:102EF0004909B142DED00020BDE8F081FDF7E4FBD6
:102F00000320BDE8F08100BF1F4607E0C0692840EC
:102F1000401BB0FA80F04009B042ECD1FDF7D4FB81
:102F2000C01BA04200F2B680D8F800000168490733
:102F3000ECD5402D18BF802DE8D0C169090700F1FC
:102F4000AD80C1690905E1D54FF400610162D8F88F
:102F5000000050E8000FD8F8001020F4907041E80D
:102F6000000222B3D8F8000050E8000FD8F8001093
:102F700020F4907041E80002002A1FBFD8F800003A
:102F800050E8000FD8F8001020F490701CBF41E802
:102F90000002002A0BD0D8F8000050E8000FD8F843
:102FA000001020F4907041E80002002ACFD1D8F838
:102FB000000050E8020FD8F8001020F0010041E8AE
:102FC000020222B3D8F8000050E8020FD8F800102F
:102FD00020F0010041E80202002A1FBFD8F80000DB
:102FE00050E8020FD8F8001020F001001CBF41E8A3
:102FF0000202002A0BD0D8F8000050E8020FD8F8DF
:10300000001020F0010041E80202002ACFD1D8F8D8
:10301000600001282FD1D8F8000050E8000FD8F840
:10302000001020F0100041E8000222B3D8F80000A0
:1030300050E8000FD8F8001020F0100041E800021E
:10304000002A1FBFD8F8000050E8000FD8F8001081
:1030500020F010001CBF41E80002002A0BD0D8F875
:10306000000050E8000FD8F8001020F0100041E8F0
:103070000002002ACFD12020C8F880000021C8F823
:103080006010C8F86810C8F88400032088F8781029
:10309000BDE8F0810320BDE8F08100BF0821016296
:1030A000D8F8000050E8000FD8F8001020F4907015
:1030B00041E8000222B3D8F8000050E8000FD8F829
:1030C000001020F4907041E80002002A1FBFD8F8D9
:1030D000000050E8000FD8F8001020F490701CBFDA
:1030E00041E80002002A0BD0D8F8000050E8000F99
:1030F000D8F8001020F4907041E80002002ACFD1E7
:10310000D8F8000050E8020FD8F8001020F00100B5
:1031100041E8020222B3D8F8000050E8020FD8F8C4
:10312000001020F0010041E80202002A1FBFD8F879
:10313000000050E8020FD8F8001020F001001CBF7A
:1031400041E80202002A0BD0D8F8000050E8020F34
:10315000D8F8001020F0010041E80202002ACFD187
:10316000D8F8600001282FD1D8F8000050E8000FEF
:10317000D8F8001020F0100041E8000222B3D8F87F
:10318000000050E8000FD8F8001020F0100041E8CF
:103190000002002A1FBFD8F8000050E8000FD8F83E
:1031A000001020F010001CBF41E80002002A0BD0E4
:1031B000D8F8000050E8000FD8F8001020F01000F8
:1031C00041E80002002ACFD12020C8F8800000206A
:1031D000C8F86000C8F868000821C8F8841088F8AA
:1031E00078000120BDE8F08182B002F47F42B2F5A0
:1031F000807F7DD1836B4FF6BF7223F4803383636E
:10320000DDF808C0C368CFF6BD721A40C2605FFA2D
:103210008CF2C368012A23F44012C26003D1C26851
:1032200042F48012C26000220092009A01320092A1
:10323000009AB2F1706F00F2BB800269002A21D4BB
:10324000009A01320092009AB2F1706F00F2B080E1
:103250000269002A16D4009A01320092009AB2F153
:10326000706F00F2A5800269002A0BD4009A013227
:103270000092009AB2F1706F00F29A800269B2F186
:10328000FF3FD2DC00220092026942F0010202619B
:10329000009A01320092009AB2F1706F00F28880B9
:1032A0000269D2071DD0009A01320092009AB2F151
:1032B000706F7DD80269D20713D0009A0132009254
:1032C000009AB2F1706F73D80269D20709D0009AE0
:1032D00001320092009AB2F1706F69D80269D20788
:1032E000D6D1002201F47F01B1F5803F7AD171E09F
:1032F000C26842F04002C26000220192019A01328B
:103300000192019AB2F1706F5AD80269002A1ED454
:10331000019A01320192019AB2F1706F50D802699C
:10332000002A14D4019A01320192019AB2F1706F0D
:1033300046D80269002A0AD4019A01320192019A00
:10334000B2F1706F3CD80269B2F1FF3FD6DC0022C7
:103350000192026942F001020261019A0132019276
:10336000019AB2F1706F2BD80269D2071DD0019A71
:1033700001320192019AB2F1706F21D80269D2072D
:1033800013D0019A01320192019AB2F1706F17D8ED
:103390000269D20709D0019A01320192019AB2F171
:1033A000706F0DD80269D207D7D1002209E000BFA3
:1033B000032201F47F01B1F5803F13D10AE000BF81
:1033C0000322836B43F48033836301F47F01B1F5FF
:1033D000803F07D1816841F006018160816841F03A
:1033E00020018160104602B070470000000000001C
:1033F0000146D0F8000E20F00300C1F8000E0020B6
:10340000D1F8042842F00202C1F8042870470000F5
:103410002DE9F04F85B0C3F307489146B8F1000F8E
:103420008A464FF00007C0F80471C0F80871C0F870
:103430000C71C0F81071C0F81471C0F81871C0F8A0
:103440001C71C0F82071C0F82471C0F82871C0F850
:103450002C71C0F83071C0F83471C0F83871C0F800
:103460003C7105D000F138024FF4001310E000BFAA
:10347000D0F80428802342F00202C0F80428826BAE
:1034800022F400128263026842F0400202600246A7
:1034900017683B4309F47F471360B7F5807F4FF00F
:1034A0000002C0F8002E07D1B2EB1A6FD0F8002846
:1034B00006D042F0010203E0D0F8002842F00302F7
:1034C000C0F8002800220392039A01320392039A63
:1034D000B2F1706F50D80269002A1ED4039A0132EB
:1034E0000392039AB2F1706F46D80269002A14D48D
:1034F000039A01320392039AB2F1706F3CD80269C9
:10350000002A0AD4039A01320392039AB2F1706F2F
:1035100032D80269B2F1FF3FD6DC002203924FF4A9
:1035200084620261039A01320392039AB2F1706FCE
:1035300022D8026992061DD5039A01320392039A9A
:10354000B2F1706F18D80269920613D5039A01324E
:103550000392039AB2F1706F0ED80269920609D5F0
:10356000039A01320392039AB2F1706F04D8026990
:103570009206D7D4002600E0012600220492049A85
:1035800001320492049AB2F1706F4FD80269002A96
:103590001ED4049A01320492049AB2F1706F45D895
:1035A0000269002A14D4049A01320492049AB2F1F6
:1035B000706F3BD80269002A0AD4049A013204923F
:1035C000049AB2F1706F31D80269B2F1FF3FD6DCD4
:1035D0000022049210220261049A01320492049A99
:1035E000B2F1706F22D80269D20620D5049A013256
:1035F0000492049AB2F1706F18D80269D20616D5F7
:10360000049A01320492049AB2F1706F0ED80269E2
:10361000D2060CD5049A01320492049AB2F1706F6A
:1036200004D80269D206D7D401E000BF01265FFAB0
:103630008AF44FF0000B002CC0F810B8C0F814B892
:10364000C0F81CB800F00581D0F800294FF00065E3
:10365000B4F1010E4FF67F3105EA1212C0F80029CD
:10366000C0F810B9C0F8081978D0A21E5146032A34
:103670000EF0030A029605D20122BAF1000F3FD1E3
:1036800066E000BFCDE900892EF0030700F518665B
:1036900000234FF0904C4FF67F38002256F8609C84
:1036A00004320CEAE97546F8605C46F8503C9742F3
:1036B00046F8588C56F8405C0CEAE57546F8405CD4
:1036C00046F8303C46F8388C56F8205C0CEAE57534
:1036D00046F8205C46F8103C46F8188C35680CEA31
:1036E000E57535603361C6F8088006F18006D5D1EE
:1036F00001324FF00065DDE90089BAF1000F27D0F3
:1037000000F51067560107EB42124FF0904CBB5981
:10371000BAF1010F0CEAE373BB514FF000074FF60B
:103720007F361761966013D0136ABAF1020F0CEA64
:10373000E3731362176396620AD0136C4FF09047DD
:1037400007EAE3731364002313654FF67F33936432
:10375000002C8A46029E4FF67F317AD0D0F8002B9B
:10376000BEF1000F05EA1212C0F8002B4FF0000264
:10377000C0F8102BC0F8081B6BD0A21E0EF0030C73
:10378000032A05D20122BCF1000F3BD161E000BF4A
:1037900002962EF0030500F5386600234FF090479F
:1037A0004FF67F32002400BF56F8601C043407EA4D
:1037B000E17146F8601C46F8503CA54246F8582C8A
:1037C00056F8401C07EAE17146F8401C46F8303CC8
:1037D00046F8382C56F8201C07EAE17146F8201C00
:1037E00046F8103C46F8182C316807EAE171316060
:1037F0003361B26006F18006D6D1621C029EBCF134
:10380000000F26D000F53061570101EB421235461A
:10381000CE594FF0904303EAE676CE512E4600246F
:10382000BCF1010F4FF67F351461956011D0116A1C
:10383000BCF1020F03EAE17111621463956208D0D2
:10384000116C03EAE1711164002111654FF67F31BB
:103850009164D0F810181AF47F0F21F48071C0F829
:103860001018C0F818B06FF08041416103D1816930
:1038700041F01001816143F600028169C8F23C0207
:1038800019F47F0F41EA0201816103D0816941F09F
:1038900008018161B8F1010F05D1816941F08041D2
:1038A00041F004018161304605B0BDE8F08F0000B1
:1038B00001468268002022F001028A607047000001
:1038C000B0B50446C068002920F0C040E06000F0B8
:1038D0009980012940F0B080E0680A2540F000504E
:1038E000E0600A20FCF7FCFD54F8140FC00740F01C
:1038F0009C800A20FCF7F4FD2068C00740F09E8001
:103900000A20FCF7EDFD2068C00740F0A5800A20E2
:10391000FCF7E6FD2068C00740F0AC800A20FCF709
:10392000DFFD2068C00740F0B3800A20FCF7D8FD17
:103930002068C00740F0BA800A20FCF7D1FD20685B
:10394000C00740F0C1800A20FCF7CAFD2068C0070C
:1039500040F0C8800A20FCF7C3FD2068C00740F093
:10396000CF800A20FCF7BCFD2068C00740F0D6805D
:103970000A20FCF7B5FD2068C00740F0DD800A2072
:10398000FCF7AEFD2068C00740F0E4800A20FCF799
:10399000A7FD2068C00740F0EB800A20FCF7A0FDDF
:1039A0002068C00740F0F2800A20FCF799FD2068EB
:1039B000C00740F0F9800A20FCF792FD2068C0079C
:1039C00040F000810A20FCF78BFD2068C00740F022
:1039D00007810A20FCF784FD2068C00740F00E81B3
:1039E0000A20FCF77DFD2068C00740F016810A2000
:1039F000FCF776FDC8252068A5F1C800B0FA80F074
:103A00004009B0BDE0680A2540F08040E0600A202F
:103A1000FCF766FD54F8140FC00706D00A20FCF727
:103A20005FFD2068C00711D11425A5F1C800B0FAC8
:103A300080F04009B0BD00BF0120B0BD1425A5F144
:103A4000C800B0FA80F04009B0BD00BF0A20FCF702
:103A500047FD2068C00707D11E25A5F1C800B0FAB0
:103A600080F04009B0BD00BF0A20FCF739FD206896
:103A7000C00707D12825A5F1C800B0FA80F0400999
:103A8000B0BD00BF0A20FCF72BFD2068C00707D19E
:103A90003225A5F1C800B0FA80F04009B0BD00BFE2
:103AA0000A20FCF71DFD2068C00707D13C25A5F1C1
:103AB000C800B0FA80F04009B0BD00BF0A20FCF792
:103AC0000FFD2068C00707D14625A5F1C800B0FA50
:103AD00080F04009B0BD00BF0A20FCF701FD20685E
:103AE000C00707D15025A5F1C800B0FA80F0400901
:103AF000B0BD00BF0A20FCF7F3FC2068C00707D167
:103B00005A25A5F1C800B0FA80F04009B0BD00BF49
:103B10000A20FCF7E5FC2068C00707D16425A5F161
:103B2000C800B0FA80F04009B0BD00BF0A20FCF721
:103B3000D7FC2068C00707D16E25A5F1C800B0FAF0
:103B400080F04009B0BD00BF0A20FCF7C9FC206826
:103B5000C00707D17825A5F1C800B0FA80F0400968
:103B6000B0BD00BF0A20FCF7BBFC2068C00707D12E
:103B70008225A5F1C800B0FA80F04009B0BD00BFB1
:103B80000A20FCF7ADFC2068C00707D18C25A5F101
:103B9000C800B0FA80F04009B0BD00BF0A20FCF7B1
:103BA0009FFC2068C00707D19625A5F1C800B0FA90
:103BB00080F04009B0BD00BF0A20FCF791FC2068EE
:103BC000C00707D1A025A5F1C800B0FA80F04009D0
:103BD000B0BD00BF0A20FCF783FC2068C00707D1F6
:103BE000AA25A5F1C800B0FA80F04009B0BD00BF19
:103BF0000A20FCF775FC2068C00707D1B425A5F1A1
:103C0000C800B0FA80F04009B0BD00BF0A20FCF740
:103C100067FC2068C0077FF4EAAEBE25A5F1C800A6
:103C2000B0FA80F04009B0BDFEE7000000000000DF
:103C30009AB041F60008C4F20208FCF745FEFEF710
:103C4000CFFD43F630000027C4F20200A8F5A055CE
:103C5000CDE904770168002241F0040101600168A8
:103C600044F2810401F004010C910C99016841F0C7
:103C700080010160016801F080010C910C990168DC
:103C800041F001010160016801F001010C910C9902
:103C9000016841F002010160016801F002010C912C
:103CA0000C99016841F008010160016801F0080108
:103CB0000C910C99016841F040010160006844F2E8
:103CC000810100F040000C900C982846FCF7F4FCB1
:103CD0004021002240464FF04009FCF7EDFC01AEC8
:103CE0004FF4005001904FF48810CDE90207A8F579
:103CF00080503146FCF708FC2846314601940124E7
:103D0000CDE902470497FCF7FFFB40463146CDE979
:103D10000194CDE90377FCF7F7FB80203146CDE92C
:103D2000010740460397FCF7EFFB40F27000A8F54F
:103D3000E231C2F2000048F6D242C0F2800280E8CE
:103D40008600C0E90347C0E90577C0E90777FCF7BB
:103D50000FFD28B1EFF3108072B600BFFEE700BF81
:103D600040F270000021C2F20000FCF7B5FC28B15F
:103D7000EFF3108072B600BFFEE700BF40F27000A4
:103D80000021C2F200000025FCF7CEFC20B1EFF3C9
:103D9000108072B6FEE700BF01A82C211995CDE96D
:103DA00017551295CDE91055CDE90E55CDE90C55B5
:103DB000FCF720FB40F2A450A8F58C31C2F20000C1
:103DC000C0E90015856045F25F41C0E90315C0E90F
:103DD0000555FDF7C5FE28B1EFF3108072B600BFA0
:103DE000FEE700BF4FF48050169040F2A45016A991
:103DF000C2F20000FDF710FF20B1EFF3108072B6A1
:103E0000FEE700BF40F2A450C2F20000FEF7E0FB64
:103E100020B1EFF3108072B6FEE700BF40F2A4506D
:103E200013A9C2F200000024CDE913441594FDF754
:103E30002FFE28B1EFF3108072B600BFFEE700BF7F
:103E400060200CA9CDE90C0440F2A4501022C2F26B
:103E500000000E94CDE91044FEF72AFA20B1EFF3EA
:103E6000108072B6FEE700BF00254FF40050CDE988
:103E700006054FF0007001A9CDE9090540F2A450F4
:103E80000595C2F200000895CDE90355CDE901552D
:103E90000B95FDF7ADFD28B1EFF3108072B600BFB2
:103EA000FEE700BF40F2F0500F95C2F200001795F8
:103EB000CDE90D55CDE90655CDE904554FF08041CA
:103EC000016041F61F41C0E90115C721C0E9031592
:103ED00080218161FDF744FE20B1EFF3108072B6BE
:103EE000FEE700BF4FF480500C9040F2F0500CA958
:103EF000C2F20000FDF790FE20B1EFF3108072B621
:103F0000FEE700BF40F2F050C2F20000FEF7E0F81A
:103F100020B1EFF3108072B6FEE700BF40F2F05020
:103F200016A9C2F20000002416941894FDF7B0FD03
:103F300020B1EFF3108072B6FEE700BF602001A948
:103F4000CDE9010440F2F0500022C2F200000394D7
:103F50000594FDF775FF18B1EFF3108072B6FEE718
:103F600040F2F05001A9C2F200000822FDF768FFFC
:103F700020B1EFF3108072B6FEE700BF40F2F050C0
:103F800001A9C2F200000C220C27FDF759FF18B15D
:103F9000EFF3108072B6FEE740F2F055C2F2000572
:103FA0002846FDF709FF002128460026FEF7C4F841
:103FB00008212846FEF7C0F80C212846FEF7BCF879
:103FC00040F23C60A8F58431C2F200004FF4E134C5
:103FD0000160C0E90146C0E90366C0E90576C0E9B1
:103FE00007664662FEF728FB20B1EFF3108072B639
:103FF000FEE700BF40F2C460A8F5E831C2F200005D
:1040000080E85200C0E903660C214662C0E905164B
:10401000C0E90766FEF710FB20B1EFF3108072B61F
:10402000FEE700BF40F2C4004FF0A041C2F2000022
:104030000160062101714FF40071C1804FF481715C
:10404000C0F809100121C181FCF7DEFC20B1EFF3BB
:10405000108072B6FEE700BF052419260F272868D6
:10406000C4634FF47A70FCF73BFA2868C6634FF4D8
:10407000FA70FCF735FA2868C7634FF4FA70FCF75A
:104080002FFAECE7F1EE100A4FF6FF71C0F2C031E3
:1040900020EA010040F04070E1EE100A7047000095
:1040A00000000000000001020304060708090000E8
:1040B00000000102030400000100000004000000F1
:1040C00002000000080000000000000004000000E2
:1040D0000200000008000000F84000080000002076
:1040E000100000005C0200080841000810000020D9
:1040F000400D00007C0200080100000010000000DC
:084100000024F400000000009F
:04000005080001F9F5
:00000001FF
